{
  "contractName": "LenderRegistration",
  "abi": [
    {
      "constant": true,
      "inputs": [],
      "name": "active",
      "outputs": [
        {
          "name": "",
          "type": "bool"
        }
      ],
      "payable": false,
      "stateMutability": "view",
      "type": "function"
    },
    {
      "constant": true,
      "inputs": [],
      "name": "banned",
      "outputs": [
        {
          "name": "",
          "type": "bool"
        }
      ],
      "payable": false,
      "stateMutability": "view",
      "type": "function"
    },
    {
      "constant": true,
      "inputs": [],
      "name": "approved",
      "outputs": [
        {
          "name": "",
          "type": "bool"
        }
      ],
      "payable": false,
      "stateMutability": "view",
      "type": "function"
    },
    {
      "constant": true,
      "inputs": [],
      "name": "lenderReputationPoints",
      "outputs": [
        {
          "name": "",
          "type": "uint256"
        }
      ],
      "payable": false,
      "stateMutability": "view",
      "type": "function"
    },
    {
      "constant": true,
      "inputs": [
        {
          "name": "timestamp",
          "type": "uint256"
        }
      ],
      "name": "getHour",
      "outputs": [
        {
          "name": "",
          "type": "uint8"
        }
      ],
      "payable": false,
      "stateMutability": "pure",
      "type": "function"
    },
    {
      "constant": true,
      "inputs": [
        {
          "name": "timestamp",
          "type": "uint256"
        }
      ],
      "name": "getWeekday",
      "outputs": [
        {
          "name": "",
          "type": "uint8"
        }
      ],
      "payable": false,
      "stateMutability": "pure",
      "type": "function"
    },
    {
      "constant": true,
      "inputs": [
        {
          "name": "year",
          "type": "uint16"
        },
        {
          "name": "month",
          "type": "uint8"
        },
        {
          "name": "day",
          "type": "uint8"
        },
        {
          "name": "hour",
          "type": "uint8"
        },
        {
          "name": "minute",
          "type": "uint8"
        }
      ],
      "name": "toTimestamp",
      "outputs": [
        {
          "name": "timestamp",
          "type": "uint256"
        }
      ],
      "payable": false,
      "stateMutability": "pure",
      "type": "function"
    },
    {
      "constant": true,
      "inputs": [
        {
          "name": "timestamp",
          "type": "uint256"
        }
      ],
      "name": "getDay",
      "outputs": [
        {
          "name": "",
          "type": "uint8"
        }
      ],
      "payable": false,
      "stateMutability": "pure",
      "type": "function"
    },
    {
      "constant": true,
      "inputs": [],
      "name": "PASSING_PERCENTAGE",
      "outputs": [
        {
          "name": "",
          "type": "uint256"
        }
      ],
      "payable": false,
      "stateMutability": "view",
      "type": "function"
    },
    {
      "constant": true,
      "inputs": [],
      "name": "renewalDate",
      "outputs": [
        {
          "name": "",
          "type": "uint256"
        }
      ],
      "payable": false,
      "stateMutability": "view",
      "type": "function"
    },
    {
      "constant": true,
      "inputs": [
        {
          "name": "year",
          "type": "uint16"
        },
        {
          "name": "month",
          "type": "uint8"
        },
        {
          "name": "day",
          "type": "uint8"
        },
        {
          "name": "hour",
          "type": "uint8"
        }
      ],
      "name": "toTimestamp",
      "outputs": [
        {
          "name": "timestamp",
          "type": "uint256"
        }
      ],
      "payable": false,
      "stateMutability": "pure",
      "type": "function"
    },
    {
      "constant": true,
      "inputs": [
        {
          "name": "timestamp",
          "type": "uint256"
        }
      ],
      "name": "getSecond",
      "outputs": [
        {
          "name": "",
          "type": "uint8"
        }
      ],
      "payable": false,
      "stateMutability": "pure",
      "type": "function"
    },
    {
      "constant": true,
      "inputs": [
        {
          "name": "year",
          "type": "uint16"
        },
        {
          "name": "month",
          "type": "uint8"
        },
        {
          "name": "day",
          "type": "uint8"
        }
      ],
      "name": "toTimestamp",
      "outputs": [
        {
          "name": "timestamp",
          "type": "uint256"
        }
      ],
      "payable": false,
      "stateMutability": "pure",
      "type": "function"
    },
    {
      "constant": true,
      "inputs": [
        {
          "name": "year",
          "type": "uint16"
        },
        {
          "name": "month",
          "type": "uint8"
        },
        {
          "name": "day",
          "type": "uint8"
        },
        {
          "name": "hour",
          "type": "uint8"
        },
        {
          "name": "minute",
          "type": "uint8"
        },
        {
          "name": "second",
          "type": "uint8"
        }
      ],
      "name": "toTimestamp",
      "outputs": [
        {
          "name": "timestamp",
          "type": "uint256"
        }
      ],
      "payable": false,
      "stateMutability": "pure",
      "type": "function"
    },
    {
      "constant": true,
      "inputs": [
        {
          "name": "timestamp",
          "type": "uint256"
        }
      ],
      "name": "getYear",
      "outputs": [
        {
          "name": "",
          "type": "uint16"
        }
      ],
      "payable": false,
      "stateMutability": "pure",
      "type": "function"
    },
    {
      "constant": true,
      "inputs": [
        {
          "name": "timestamp",
          "type": "uint256"
        }
      ],
      "name": "getMonth",
      "outputs": [
        {
          "name": "",
          "type": "uint8"
        }
      ],
      "payable": false,
      "stateMutability": "pure",
      "type": "function"
    },
    {
      "constant": true,
      "inputs": [
        {
          "name": "year",
          "type": "uint16"
        }
      ],
      "name": "isLeapYear",
      "outputs": [
        {
          "name": "",
          "type": "bool"
        }
      ],
      "payable": false,
      "stateMutability": "pure",
      "type": "function"
    },
    {
      "constant": true,
      "inputs": [],
      "name": "rentedStorage",
      "outputs": [
        {
          "name": "",
          "type": "uint256"
        }
      ],
      "payable": false,
      "stateMutability": "view",
      "type": "function"
    },
    {
      "constant": true,
      "inputs": [
        {
          "name": "year",
          "type": "uint256"
        }
      ],
      "name": "leapYearsBefore",
      "outputs": [
        {
          "name": "",
          "type": "uint256"
        }
      ],
      "payable": false,
      "stateMutability": "pure",
      "type": "function"
    },
    {
      "constant": true,
      "inputs": [
        {
          "name": "month",
          "type": "uint8"
        },
        {
          "name": "year",
          "type": "uint16"
        }
      ],
      "name": "getDaysInMonth",
      "outputs": [
        {
          "name": "",
          "type": "uint8"
        }
      ],
      "payable": false,
      "stateMutability": "pure",
      "type": "function"
    },
    {
      "constant": true,
      "inputs": [],
      "name": "registerDate",
      "outputs": [
        {
          "name": "",
          "type": "uint256"
        }
      ],
      "payable": false,
      "stateMutability": "view",
      "type": "function"
    },
    {
      "constant": true,
      "inputs": [],
      "name": "contractOwner",
      "outputs": [
        {
          "name": "",
          "type": "address"
        }
      ],
      "payable": false,
      "stateMutability": "view",
      "type": "function"
    },
    {
      "constant": true,
      "inputs": [],
      "name": "TARGET_POINTS",
      "outputs": [
        {
          "name": "",
          "type": "uint256"
        }
      ],
      "payable": false,
      "stateMutability": "view",
      "type": "function"
    },
    {
      "constant": true,
      "inputs": [],
      "name": "escrow",
      "outputs": [
        {
          "name": "",
          "type": "address"
        }
      ],
      "payable": false,
      "stateMutability": "view",
      "type": "function"
    },
    {
      "constant": true,
      "inputs": [
        {
          "name": "timestamp",
          "type": "uint256"
        }
      ],
      "name": "getMinute",
      "outputs": [
        {
          "name": "",
          "type": "uint8"
        }
      ],
      "payable": false,
      "stateMutability": "pure",
      "type": "function"
    },
    {
      "inputs": [
        {
          "name": "_adminAddress",
          "type": "address"
        },
        {
          "name": "_rentedStorage",
          "type": "uint256"
        },
        {
          "name": "_vuupleToken",
          "type": "address"
        },
        {
          "name": "_sender",
          "type": "address"
        }
      ],
      "payable": false,
      "stateMutability": "nonpayable",
      "type": "constructor"
    },
    {
      "constant": false,
      "inputs": [
        {
          "name": "oferedSpace",
          "type": "uint256"
        }
      ],
      "name": "renewSubscription",
      "outputs": [
        {
          "name": "",
          "type": "bool"
        }
      ],
      "payable": false,
      "stateMutability": "nonpayable",
      "type": "function"
    },
    {
      "constant": false,
      "inputs": [
        {
          "name": "status",
          "type": "bool"
        }
      ],
      "name": "setActiveStatus",
      "outputs": [
        {
          "name": "",
          "type": "bool"
        }
      ],
      "payable": false,
      "stateMutability": "nonpayable",
      "type": "function"
    },
    {
      "constant": false,
      "inputs": [],
      "name": "addReputationalPoint",
      "outputs": [
        {
          "name": "",
          "type": "bool"
        }
      ],
      "payable": false,
      "stateMutability": "nonpayable",
      "type": "function"
    },
    {
      "constant": false,
      "inputs": [],
      "name": "approve",
      "outputs": [
        {
          "name": "",
          "type": "bool"
        }
      ],
      "payable": false,
      "stateMutability": "nonpayable",
      "type": "function"
    },
    {
      "constant": false,
      "inputs": [
        {
          "name": "status",
          "type": "bool"
        }
      ],
      "name": "setBanStatus",
      "outputs": [
        {
          "name": "",
          "type": "bool"
        }
      ],
      "payable": false,
      "stateMutability": "nonpayable",
      "type": "function"
    },
    {
      "constant": false,
      "inputs": [],
      "name": "withdraw",
      "outputs": [
        {
          "name": "",
          "type": "bool"
        }
      ],
      "payable": false,
      "stateMutability": "nonpayable",
      "type": "function"
    }
  ],
  "bytecode": "0x60806040526001600960006101000a81548160ff0219169083151502179055506000600960016101000a81548160ff0219169083151502179055506000600960026101000a81548160ff02191690831515021790555034801561006157600080fd5b50604051608080612ab183398101806040528101908080519060200190929190805190602001909291908051906020019092919080519060200190929190505050806000806101000a81548173ffffffffffffffffffffffffffffffffffffffff021916908373ffffffffffffffffffffffffffffffffffffffff16021790555083600160006101000a81548173ffffffffffffffffffffffffffffffffffffffff021916908373ffffffffffffffffffffffffffffffffffffffff160217905550426006819055508260088190555081600260006101000a81548173ffffffffffffffffffffffffffffffffffffffff021916908373ffffffffffffffffffffffffffffffffffffffff1602179055505050505061292c806101856000396000f300608060405260043610620001ab576000357c0100000000000000000000000000000000000000000000000000000000900463ffffffff16806302fb0c5e14620001b05780630d4786b914620001e257806312424e3f146200022c578063158fba8f146200025e57806318ac80fa146200029057806319d40b0814620002c25780631b16e85414620002f45780633ccfd60b14620003225780633e239e1a14620003545780634ac1ad78146200039e57806362ba968714620003e857806365c72840146200046457806374b3143114620004ae5780637c1ad29214620004dc5780637f791833146200050a5780638aa001fc14620005795780638c8d98a014620005c35780639054bdec146200062557806392d6631314620006ae578063a324ad2414620006fa578063a6f0e5771462000744578063ae8812df1462000790578063b199993714620007be578063b238ad0e1462000802578063c642f694146200085d578063ce606ee0146200088b578063d122007d14620008e5578063d71bb37b1462000913578063e2fdcc17146200095b578063ec7404b114620009b5578063fa93f88314620009ff575b600080fd5b348015620001bd57600080fd5b50620001c862000a49565b604051808215151515815260200191505060405180910390f35b348015620001ef57600080fd5b506200021260048036038101908080351515906020019092919050505062000a5c565b604051808215151515815260200191505060405180910390f35b3480156200023957600080fd5b506200024462000d3e565b604051808215151515815260200191505060405180910390f35b3480156200026b57600080fd5b506200027662000ffe565b604051808215151515815260200191505060405180910390f35b3480156200029d57600080fd5b50620002a862001011565b604051808215151515815260200191505060405180910390f35b348015620002cf57600080fd5b50620002da62001132565b604051808215151515815260200191505060405180910390f35b3480156200030157600080fd5b506200030c62001145565b6040518082815260200191505060405180910390f35b3480156200032f57600080fd5b506200033a6200114b565b604051808215151515815260200191505060405180910390f35b3480156200036157600080fd5b50620003826004803603810190808035906020019092919050505062001292565b604051808260ff1660ff16815260200191505060405180910390f35b348015620003ab57600080fd5b50620003cc60048036038101908080359060200190929190505050620012c2565b604051808260ff1660ff16815260200191505060405180910390f35b348015620003f557600080fd5b506200044e600480360381019080803561ffff169060200190929190803560ff169060200190929190803560ff169060200190929190803560ff169060200190929190803560ff169060200190929190505050620012eb565b6040518082815260200191505060405180910390f35b3480156200047157600080fd5b50620004926004803603810190808035906020019092919050505062001309565b604051808260ff1660ff16815260200191505060405180910390f35b348015620004bb57600080fd5b50620004c662001321565b6040518082815260200191505060405180910390f35b348015620004e957600080fd5b50620004f462001326565b6040518082815260200191505060405180910390f35b3480156200051757600080fd5b5062000563600480360381019080803561ffff169060200190929190803560ff169060200190929190803560ff169060200190929190803560ff1690602001909291905050506200132c565b6040518082815260200191505060405180910390f35b3480156200058657600080fd5b50620005a76004803603810190808035906020019092919050505062001349565b604051808260ff1660ff16815260200191505060405180910390f35b348015620005d057600080fd5b506200060f600480360381019080803561ffff169060200190929190803560ff169060200190929190803560ff16906020019092919050505062001360565b6040518082815260200191505060405180910390f35b3480156200063257600080fd5b5062000698600480360381019080803561ffff169060200190929190803560ff169060200190929190803560ff169060200190929190803560ff169060200190929190803560ff169060200190929190803560ff1690602001909291905050506200137d565b6040518082815260200191505060405180910390f35b348015620006bb57600080fd5b50620006dc6004803603810190808035906020019092919050505062001640565b604051808261ffff1661ffff16815260200191505060405180910390f35b3480156200070757600080fd5b506200072860048036038101908080359060200190929190505050620016f6565b604051808260ff1660ff16815260200191505060405180910390f35b3480156200075157600080fd5b5062000776600480360381019080803561ffff1690602001909291905050506200170e565b604051808215151515815260200191505060405180910390f35b3480156200079d57600080fd5b50620007a862001798565b6040518082815260200191505060405180910390f35b348015620007cb57600080fd5b50620007ec600480360381019080803590602001909291905050506200179e565b6040518082815260200191505060405180910390f35b3480156200080f57600080fd5b5062000841600480360381019080803560ff169060200190929190803561ffff169060200190929190505050620017da565b604051808260ff1660ff16815260200191505060405180910390f35b3480156200086a57600080fd5b5062000875620018b7565b6040518082815260200191505060405180910390f35b3480156200089857600080fd5b50620008a3620018bd565b604051808273ffffffffffffffffffffffffffffffffffffffff1673ffffffffffffffffffffffffffffffffffffffff16815260200191505060405180910390f35b348015620008f257600080fd5b50620008fd620018e2565b6040518082815260200191505060405180910390f35b3480156200092057600080fd5b506200094160048036038101908080359060200190929190505050620018e7565b604051808215151515815260200191505060405180910390f35b3480156200096857600080fd5b506200097362001b2f565b604051808273ffffffffffffffffffffffffffffffffffffffff1673ffffffffffffffffffffffffffffffffffffffff16815260200191505060405180910390f35b348015620009c257600080fd5b50620009e560048036038101908080351515906020019092919050505062001b55565b604051808215151515815260200191505060405180910390f35b34801562000a0c57600080fd5b5062000a2d6004803603810190808035906020019092919050505062001d71565b604051808260ff1660ff16815260200191505060405180910390f35b600960009054906101000a900460ff1681565b6000600160009054906101000a900473ffffffffffffffffffffffffffffffffffffffff1673ffffffffffffffffffffffffffffffffffffffff166347a6fa60336040518263ffffffff167c0100000000000000000000000000000000000000000000000000000000028152600401808273ffffffffffffffffffffffffffffffffffffffff1673ffffffffffffffffffffffffffffffffffffffff168152602001915050602060405180830381600087803b15801562000b1c57600080fd5b505af115801562000b31573d6000803e3d6000fd5b505050506040513d602081101562000b4857600080fd5b8101908080519060200190929190505050151562000b6557600080fd5b81600960026101000a81548160ff0219169083151502179055508115600960006101000a81548160ff021916908315150217905550600360009054906101000a900473ffffffffffffffffffffffffffffffffffffffff1673ffffffffffffffffffffffffffffffffffffffff166322f3e2d46040518163ffffffff167c0100000000000000000000000000000000000000000000000000000000028152600401602060405180830381600087803b15801562000c2157600080fd5b505af115801562000c36573d6000803e3d6000fd5b505050506040513d602081101562000c4d57600080fd5b81019080805190602001909291905050501562000d3557600360009054906101000a900473ffffffffffffffffffffffffffffffffffffffff1673ffffffffffffffffffffffffffffffffffffffff1663c163de3d6040518163ffffffff167c0100000000000000000000000000000000000000000000000000000000028152600401602060405180830381600087803b15801562000ceb57600080fd5b505af115801562000d00573d6000803e3d6000fd5b505050506040513d602081101562000d1757600080fd5b8101908080519060200190929190505050151562000d3457600080fd5b5b60019050919050565b6000600160009054906101000a900473ffffffffffffffffffffffffffffffffffffffff1673ffffffffffffffffffffffffffffffffffffffff166347a6fa60336040518263ffffffff167c0100000000000000000000000000000000000000000000000000000000028152600401808273ffffffffffffffffffffffffffffffffffffffff1673ffffffffffffffffffffffffffffffffffffffff168152602001915050602060405180830381600087803b15801562000dfe57600080fd5b505af115801562000e13573d6000803e3d6000fd5b505050506040513d602081101562000e2a57600080fd5b8101908080519060200190929190505050151562000e4757600080fd5b600960019054906101000a900460ff1615151562000e6457600080fd5b62278d0042016005819055506001600960016101000a81548160ff021916908315150217905550600260009054906101000a900473ffffffffffffffffffffffffffffffffffffffff166005546002600854026000809054906101000a900473ffffffffffffffffffffffffffffffffffffffff1662000ee36200206c565b808573ffffffffffffffffffffffffffffffffffffffff1673ffffffffffffffffffffffffffffffffffffffff1681526020018481526020018381526020018273ffffffffffffffffffffffffffffffffffffffff1673ffffffffffffffffffffffffffffffffffffffff168152602001945050505050604051809103906000f08015801562000f77573d6000803e3d6000fd5b50600360006101000a81548173ffffffffffffffffffffffffffffffffffffffff021916908373ffffffffffffffffffffffffffffffffffffffff16021790555062000feb600260085402600360009054906101000a900473ffffffffffffffffffffffffffffffffffffffff1662001d94565b151562000ff757600080fd5b6001905090565b600960029054906101000a900460ff1681565b6000600160009054906101000a900473ffffffffffffffffffffffffffffffffffffffff1673ffffffffffffffffffffffffffffffffffffffff166347a6fa60336040518263ffffffff167c0100000000000000000000000000000000000000000000000000000000028152600401808273ffffffffffffffffffffffffffffffffffffffff1673ffffffffffffffffffffffffffffffffffffffff168152602001915050602060405180830381600087803b158015620010d157600080fd5b505af1158015620010e6573d6000803e3d6000fd5b505050506040513d6020811015620010fd57600080fd5b810190808051906020019092919050505015156200111a57600080fd5b60016007600082825401925050819055506001905090565b600960019054906101000a900460ff1681565b60075481565b60003373ffffffffffffffffffffffffffffffffffffffff166000809054906101000a900473ffffffffffffffffffffffffffffffffffffffff1673ffffffffffffffffffffffffffffffffffffffff16141515620011a957600080fd5b6005544210151515620011bb57600080fd5b600360009054906101000a900473ffffffffffffffffffffffffffffffffffffffff1673ffffffffffffffffffffffffffffffffffffffff16633ccfd60b6040518163ffffffff167c0100000000000000000000000000000000000000000000000000000000028152600401602060405180830381600087803b1580156200124257600080fd5b505af115801562001257573d6000803e3d6000fd5b505050506040513d60208110156200126e57600080fd5b810190808051906020019092919050505015156200128b57600080fd5b6001905090565b60006018603c8084811515620012a457fe5b04811515620012af57fe5b04811515620012ba57fe5b069050919050565b6000600760046201518084811515620012d757fe5b0401811515620012e357fe5b069050919050565b6000620012fe868686868660006200137d565b905095945050505050565b6000620013168262001eaf565b604001519050919050565b603c81565b60055481565b60006200133f858585856000806200137d565b9050949350505050565b6000603c828115156200135857fe5b069050919050565b60006200137484848460008060006200137d565b90509392505050565b6000806200138a6200207d565b6107b291505b8861ffff168261ffff161015620013d957620013ac826200170e565b15620013c1576301e2850083019250620013cb565b6301e13380830192505b818060010192505062001390565b601f816000600c81101515620013eb57fe5b602002019060ff16908160ff168152505062001407896200170e565b156200143657601d816001600c811015156200141f57fe5b602002019060ff16908160ff16815250506200145a565b601c816001600c811015156200144857fe5b602002019060ff16908160ff16815250505b601f816002600c811015156200146c57fe5b602002019060ff16908160ff1681525050601e816003600c811015156200148f57fe5b602002019060ff16908160ff1681525050601f816004600c81101515620014b257fe5b602002019060ff16908160ff1681525050601e816005600c81101515620014d557fe5b602002019060ff16908160ff1681525050601f816006600c81101515620014f857fe5b602002019060ff16908160ff1681525050601f816007600c811015156200151b57fe5b602002019060ff16908160ff1681525050601e816008600c811015156200153e57fe5b602002019060ff16908160ff1681525050601f816009600c811015156200156157fe5b602002019060ff16908160ff1681525050601e81600a600c811015156200158457fe5b602002019060ff16908160ff1681525050601f81600b600c81101515620015a757fe5b602002019060ff16908160ff1681525050600191505b8760ff168261ffff1610156200160257806001830361ffff16600c81101515620015e357fe5b602002015160ff166201518002830192508180600101925050620015bd565b6001870360ff166201518002830192508560ff16610e1002830192508460ff16603c02830192508360ff168301925082925050509695505050505050565b600080600080600092506301e13380858115156200165a57fe5b046107b261ffff16019150620016766107b261ffff166200179e565b620016858361ffff166200179e565b039050806301e285000283019250806107b2830361ffff16036301e1338002830192505b84831115620016eb57620016c0600183036200170e565b15620016d5576301e2850083039250620016df565b6301e13380830392505b600182039150620016a9565b819350505050919050565b6000620017038262001eaf565b602001519050919050565b60008060048361ffff168115156200172257fe5b0661ffff1614151562001739576000905062001793565b600060648361ffff168115156200174c57fe5b0661ffff1614151562001763576001905062001793565b60006101908361ffff168115156200177757fe5b0661ffff161415156200178e576000905062001793565b600190505b919050565b60085481565b600060018203915061019082811515620017b457fe5b04606483811515620017c257fe5b04600484811515620017d057fe5b0403019050919050565b600060018360ff161480620017f2575060038360ff16145b8062001801575060058360ff16145b8062001810575060078360ff16145b806200181f575060088360ff16145b806200182e5750600a8360ff16145b806200183d5750600c8360ff16145b156200184d57601f9050620018b1565b60048360ff16148062001863575060068360ff16145b8062001872575060098360ff16145b80620018815750600b8360ff16145b156200189157601e9050620018b1565b6200189c826200170e565b15620018ac57601d9050620018b1565b601c90505b92915050565b60065481565b6000809054906101000a900473ffffffffffffffffffffffffffffffffffffffff1681565b60d281565b60003373ffffffffffffffffffffffffffffffffffffffff166000809054906101000a900473ffffffffffffffffffffffffffffffffffffffff1673ffffffffffffffffffffffffffffffffffffffff161415156200194557600080fd5b60055442101515156200195757600080fd5b600960029054906101000a900460ff161515156200197457600080fd5b600960009054906101000a900460ff161515620019a7576001600960006101000a81548160ff0219169083151502179055505b8160088190555062278d004201600581905550600260009054906101000a900473ffffffffffffffffffffffffffffffffffffffff166005546002600854026000809054906101000a900473ffffffffffffffffffffffffffffffffffffffff1662001a126200206c565b808573ffffffffffffffffffffffffffffffffffffffff1673ffffffffffffffffffffffffffffffffffffffff1681526020018481526020018381526020018273ffffffffffffffffffffffffffffffffffffffff1673ffffffffffffffffffffffffffffffffffffffff168152602001945050505050604051809103906000f08015801562001aa6573d6000803e3d6000fd5b50600360006101000a81548173ffffffffffffffffffffffffffffffffffffffff021916908373ffffffffffffffffffffffffffffffffffffffff16021790555062001b1a600260085402600360009054906101000a900473ffffffffffffffffffffffffffffffffffffffff1662001d94565b151562001b2657600080fd5b60019050919050565b600360009054906101000a900473ffffffffffffffffffffffffffffffffffffffff1681565b60003373ffffffffffffffffffffffffffffffffffffffff166000809054906101000a900473ffffffffffffffffffffffffffffffffffffffff1673ffffffffffffffffffffffffffffffffffffffff1614151562001bb357600080fd5b81600960006101000a81548160ff021916908315150217905550600360009054906101000a900473ffffffffffffffffffffffffffffffffffffffff1673ffffffffffffffffffffffffffffffffffffffff166322f3e2d46040518163ffffffff167c0100000000000000000000000000000000000000000000000000000000028152600401602060405180830381600087803b15801562001c5457600080fd5b505af115801562001c69573d6000803e3d6000fd5b505050506040513d602081101562001c8057600080fd5b81019080805190602001909291905050501562001d6857600360009054906101000a900473ffffffffffffffffffffffffffffffffffffffff1673ffffffffffffffffffffffffffffffffffffffff1663c163de3d6040518163ffffffff167c0100000000000000000000000000000000000000000000000000000000028152600401602060405180830381600087803b15801562001d1e57600080fd5b505af115801562001d33573d6000803e3d6000fd5b505050506040513d602081101562001d4a57600080fd5b8101908080519060200190929190505050151562001d6757600080fd5b5b60019050919050565b6000603c808381151562001d8157fe5b0481151562001d8c57fe5b069050919050565b6000600260009054906101000a900473ffffffffffffffffffffffffffffffffffffffff1673ffffffffffffffffffffffffffffffffffffffff166340c10f1983856040518363ffffffff167c0100000000000000000000000000000000000000000000000000000000028152600401808373ffffffffffffffffffffffffffffffffffffffff1673ffffffffffffffffffffffffffffffffffffffff16815260200182815260200192505050602060405180830381600087803b15801562001e5c57600080fd5b505af115801562001e71573d6000803e3d6000fd5b505050506040513d602081101562001e8857600080fd5b8101908080519060200190929190505050151562001ea557600080fd5b6001905092915050565b62001eb9620020a1565b6000806000806000935062001ece8662001640565b856000019061ffff16908161ffff168152505062001ef26107b261ffff166200179e565b62001f05866000015161ffff166200179e565b039250826301e285000284019350826107b286600001510361ffff16036301e133800284019350600191505b600c8260ff1611151562001f8f5762001f4f828660000151620017da565b60ff166201518002905085848201111562001f7c5781856020019060ff16908160ff168152505062001f8f565b8084019350818060010192505062001f31565b600191505b62001fa885602001518660000151620017da565b60ff168260ff1611151562001ff35785846201518001111562001fdd5781856040019060ff16908160ff168152505062001ff3565b6201518084019350818060010192505062001f94565b62001ffe8662001292565b856060019060ff16908160ff16815250506200201a8662001d71565b856080019060ff16908160ff1681525050620020368662001349565b8560a0019060ff16908160ff16815250506200205286620012c2565b8560c0019060ff16908160ff168152505050505050919050565b60405161080b80620020f683390190565b61018060405190810160405280600c90602082028038833980820191505090505090565b60e060405190810160405280600061ffff168152602001600060ff168152602001600060ff168152602001600060ff168152602001600060ff168152602001600060ff168152602001600060ff16815250905600608060405234801561001057600080fd5b5060405160808061080b83398101806040528101908080519060200190929190805190602001909291908051906020019092919080519060200190929190505050836000806101000a81548173ffffffffffffffffffffffffffffffffffffffff021916908373ffffffffffffffffffffffffffffffffffffffff160217905550826001819055508160048190555080600360006101000a81548173ffffffffffffffffffffffffffffffffffffffff021916908373ffffffffffffffffffffffffffffffffffffffff16021790555060008060146101000a81548160ff021916908360028111156100fe57fe5b021790555033600260006101000a81548173ffffffffffffffffffffffffffffffffffffffff021916908373ffffffffffffffffffffffffffffffffffffffff160217905550505050506106b4806101576000396000f30060806040526004361061008e576000357c0100000000000000000000000000000000000000000000000000000000900463ffffffff168063186099601461009357806322f3e2d4146100cc5780633ccfd60b146100fb578063627749e61461012a57806371ce99ad14610155578063bcead63e146101ac578063c163de3d14610203578063eec7faa114610232575b600080fd5b34801561009f57600080fd5b506100a861025d565b604051808260028111156100b857fe5b60ff16815260200191505060405180910390f35b3480156100d857600080fd5b506100e1610270565b604051808215151515815260200191505060405180910390f35b34801561010757600080fd5b506101106102ad565b604051808215151515815260200191505060405180910390f35b34801561013657600080fd5b5061013f610387565b6040518082815260200191505060405180910390f35b34801561016157600080fd5b5061016a61038d565b604051808273ffffffffffffffffffffffffffffffffffffffff1673ffffffffffffffffffffffffffffffffffffffff16815260200191505060405180910390f35b3480156101b857600080fd5b506101c16103b3565b604051808273ffffffffffffffffffffffffffffffffffffffff1673ffffffffffffffffffffffffffffffffffffffff16815260200191505060405180910390f35b34801561020f57600080fd5b506102186103d9565b604051808215151515815260200191505060405180910390f35b34801561023e57600080fd5b506102476104a2565b6040518082815260200191505060405180910390f35b600060149054906101000a900460ff1681565b600080600281111561027e57fe5b600060149054906101000a900460ff16600281111561029957fe5b146102a55760006102a8565b60015b905090565b60003373ffffffffffffffffffffffffffffffffffffffff16600260009054906101000a900473ffffffffffffffffffffffffffffffffffffffff1673ffffffffffffffffffffffffffffffffffffffff1614151561030b57600080fd5b600154421015151561031c57600080fd5b6000600281111561032957fe5b600060149054906101000a900460ff16600281111561034457fe5b14151561035057600080fd5b61035b6004546104a8565b506001600060146101000a81548160ff0219169083600281111561037b57fe5b02179055506001905090565b60015481565b600260009054906101000a900473ffffffffffffffffffffffffffffffffffffffff1681565b600360009054906101000a900473ffffffffffffffffffffffffffffffffffffffff1681565b60003373ffffffffffffffffffffffffffffffffffffffff16600260009054906101000a900473ffffffffffffffffffffffffffffffffffffffff1673ffffffffffffffffffffffffffffffffffffffff1614151561043757600080fd5b6000600281111561044457fe5b600060149054906101000a900460ff16600281111561045f57fe5b14151561046b57600080fd5b6104766004546105d5565b506002600060146101000a81548160ff0219169083600281111561049657fe5b02179055506001905090565b60045481565b60008060009054906101000a900473ffffffffffffffffffffffffffffffffffffffff1673ffffffffffffffffffffffffffffffffffffffff1663a9059cbb600360009054906101000a900473ffffffffffffffffffffffffffffffffffffffff16846040518363ffffffff167c0100000000000000000000000000000000000000000000000000000000028152600401808373ffffffffffffffffffffffffffffffffffffffff1673ffffffffffffffffffffffffffffffffffffffff16815260200182815260200192505050602060405180830381600087803b15801561059057600080fd5b505af11580156105a4573d6000803e3d6000fd5b505050506040513d60208110156105ba57600080fd5b81019080805190602001909291905050505060019050919050565b60008060009054906101000a900473ffffffffffffffffffffffffffffffffffffffff1673ffffffffffffffffffffffffffffffffffffffff166342966c68836040518263ffffffff167c010000000000000000000000000000000000000000000000000000000002815260040180828152602001915050600060405180830381600087803b15801561066757600080fd5b505af115801561067b573d6000803e3d6000fd5b50505050600190509190505600a165627a7a72305820553116ba52e82ce8cd9265ac89f0a51146dd0cf9d94a0cd1a247046423a03e370029a165627a7a7230582064aa6cd7badbbca00ac3d126592952c71df2f3786f64f4a82589a8ca15a03d5d0029",
  "source": "pragma solidity ^0.4.24;\nimport \"../../node_modules/openzeppelin-solidity/contracts/math/SafeMath.sol\";\n\nimport \"../SharedContracts/VuupleAdmins.sol\";\nimport \"../SharedContracts/VuupleToken.sol\";\nimport \"../SharedContracts/DateTimeParser.sol\";\nimport \"./LenderEscrow.sol\";\n\ncontract LenderRegistration  is DateTimeParser{\n    using SafeMath for uint256;\n\n    address public contractOwner;\n    VuupleAdmins private vuupleAdmin;\n    VuupleToken private vuupleToken;\n    LenderEscrow public escrow;\n\n    uint256 private balance ;\n    uint256 public renewalDate; // this date stores the renewal date and exlenderReputationPointspire after 30 days\n    uint256 public registerDate;\n    uint256 public constant PASSING_PERCENTAGE  = 60;  // 60%  we may change it to so that reputation could be calculated based on number of factors\n    uint256 public constant TARGET_POINTS = 210;  // ( 7 time  each 30 day) we may change it to so that reputation could be calculated based on number of factors\n    uint256 public lenderReputationPoints; // we may change it to so that reputation could be calculated based on number of factors\n    uint256 public rentedStorage;    // storage he offer to rent   in Giga         \n    bool public active =true;\n    bool public approved =false;\n    bool public banned =false;\n    \n    modifier isOwner {\n        require(contractOwner == msg.sender);\n        _;\n    }    \n    modifier onlyVuupleAdmin() {\n        require(vuupleAdmin.isVuupleAdmin(msg.sender));\n        _;\n    }\n    modifier hasGoodReputation() {\n        require((lenderReputationPoints.div(TARGET_POINTS)).mul(100)>=PASSING_PERCENTAGE);\n        _;\n    }\n     \n    modifier subscriptionEnded() {\n        require( now >= renewalDate);\n        _;\n    }\n    modifier unbanned() {\n        require( !banned);\n        _;\n    }\n    modifier isApproved() {\n        require( !approved);\n        _;\n    }\n     \n    constructor ( VuupleAdmins _adminAddress , uint256 _rentedStorage , VuupleToken _vuupleToken, address _sender) public {            \n               \n        contractOwner = _sender;\n        vuupleAdmin = _adminAddress;\n        registerDate = now;\n        rentedStorage = _rentedStorage;\n        vuupleToken = _vuupleToken;\n                // 2 vuuple per 1 giga\n      \n\n\n    }\n  \n    \n  \n    // check that the last subscription is ended\n    function renewSubscription (uint256 oferedSpace ) public isOwner  subscriptionEnded  unbanned returns(bool){     // enter amount in GB\n       \n        if(!active){\n            active=true;\n\n        }\n        rentedStorage = oferedSpace;\n        renewalDate  =now + 30 days;// _getRenewalDate();\n        escrow = new LenderEscrow(vuupleToken,renewalDate,rentedStorage*2,contractOwner);\n        require(_mintToken(rentedStorage*2,escrow));\n        return true;\n      \n    }\n    function setActiveStatus(bool status) public isOwner  returns(bool) {\n  \n        active = status;\n        if(escrow.isActive()){\n            require(escrow.closeEscrow());\n\n        }\n        return true;\n\n    }\n\n    function addReputationalPoint() public onlyVuupleAdmin  returns(bool) {\n  \n        lenderReputationPoints += 1;\n        return true;\n\n    }\n\n    function approve() public onlyVuupleAdmin isApproved  returns(bool){\n         \n        renewalDate  = now + 2592000;//_getRenewalDate();\n        approved =true;\n        escrow = new LenderEscrow(vuupleToken,renewalDate,rentedStorage*2,contractOwner);\n       require(_mintToken(rentedStorage*2,escrow));\n        return true;\n    }\n    \n    function setBanStatus(bool status) public onlyVuupleAdmin returns(bool) {\n     \n        banned = status;\n        active = !status;\n        if(escrow.isActive()){\n            require(escrow.closeEscrow());\n\n        }\n\n        return true;\n    }\n// // this function still need more work to integrate well with swarm\n//     function decreaseStorage (uint256 _amount) public isOwner returns(bool) {\n//                         rentedStorage -= _amount;\n//                        return true;\n\n//     }\n  // function increaseStorgae (uint256 _amount) public isOwner {     // enter amount in GB\n    //     rentedStorage += _amount;\n      \n    // }\n\n    function withdraw( ) public isOwner /*hasGoodReputation */ subscriptionEnded returns (bool){\n        require(escrow.withdraw());\n        return true;\n    }\n    // function getBalance() public view isOwner returns (uint) {\n    //     return vuupleToken.balanceOf(escrow) ;\n    // }\n    function _mintToken(uint256 value, address to) internal returns (bool) {\n        require(vuupleToken.mint(to, value));\n        return true;\n    }\n}\n",
  "sourcePath": "/home/ubuntu/Smart-Contracts/contracts/LendersContracts/LenderRegistration.sol",
  "compiler": {
    "name": "solc",
    "version": "0.4.24+commit.e67f0147.Emscripten.clang"
  },
  "schemaVersion": "2.0.1",
  "updatedAt": "2019-11-09T21:03:50.024Z"
}