{
  "contractName": "LenderEscrow",
  "abi": [
    {
      "constant": true,
      "inputs": [],
      "name": "escrowStatus",
      "outputs": [
        {
          "name": "",
          "type": "uint8"
        }
      ],
      "payable": false,
      "stateMutability": "view",
      "type": "function"
    },
    {
      "constant": true,
      "inputs": [],
      "name": "closeTime",
      "outputs": [
        {
          "name": "",
          "type": "uint256"
        }
      ],
      "payable": false,
      "stateMutability": "view",
      "type": "function"
    },
    {
      "constant": true,
      "inputs": [],
      "name": "lenderAccountContract",
      "outputs": [
        {
          "name": "",
          "type": "address"
        }
      ],
      "payable": false,
      "stateMutability": "view",
      "type": "function"
    },
    {
      "constant": true,
      "inputs": [],
      "name": "lender",
      "outputs": [
        {
          "name": "",
          "type": "address"
        }
      ],
      "payable": false,
      "stateMutability": "view",
      "type": "function"
    },
    {
      "constant": true,
      "inputs": [],
      "name": "tokenAmount",
      "outputs": [
        {
          "name": "",
          "type": "uint256"
        }
      ],
      "payable": false,
      "stateMutability": "view",
      "type": "function"
    },
    {
      "inputs": [
        {
          "name": "_vuupleToken",
          "type": "address"
        },
        {
          "name": "_closeTime",
          "type": "uint256"
        },
        {
          "name": "_tokenAmount",
          "type": "uint256"
        },
        {
          "name": "_lender",
          "type": "address"
        }
      ],
      "payable": false,
      "stateMutability": "nonpayable",
      "type": "constructor"
    },
    {
      "constant": true,
      "inputs": [],
      "name": "isActive",
      "outputs": [
        {
          "name": "",
          "type": "bool"
        }
      ],
      "payable": false,
      "stateMutability": "view",
      "type": "function"
    },
    {
      "constant": false,
      "inputs": [],
      "name": "withdraw",
      "outputs": [
        {
          "name": "",
          "type": "bool"
        }
      ],
      "payable": false,
      "stateMutability": "nonpayable",
      "type": "function"
    },
    {
      "constant": false,
      "inputs": [],
      "name": "closeEscrow",
      "outputs": [
        {
          "name": "",
          "type": "bool"
        }
      ],
      "payable": false,
      "stateMutability": "nonpayable",
      "type": "function"
    }
  ],
  "bytecode": "0x608060405234801561001057600080fd5b5060405160808061080b83398101806040528101908080519060200190929190805190602001909291908051906020019092919080519060200190929190505050836000806101000a81548173ffffffffffffffffffffffffffffffffffffffff021916908373ffffffffffffffffffffffffffffffffffffffff160217905550826001819055508160048190555080600360006101000a81548173ffffffffffffffffffffffffffffffffffffffff021916908373ffffffffffffffffffffffffffffffffffffffff16021790555060008060146101000a81548160ff021916908360028111156100fe57fe5b021790555033600260006101000a81548173ffffffffffffffffffffffffffffffffffffffff021916908373ffffffffffffffffffffffffffffffffffffffff160217905550505050506106b4806101576000396000f30060806040526004361061008e576000357c0100000000000000000000000000000000000000000000000000000000900463ffffffff168063186099601461009357806322f3e2d4146100cc5780633ccfd60b146100fb578063627749e61461012a57806371ce99ad14610155578063bcead63e146101ac578063c163de3d14610203578063eec7faa114610232575b600080fd5b34801561009f57600080fd5b506100a861025d565b604051808260028111156100b857fe5b60ff16815260200191505060405180910390f35b3480156100d857600080fd5b506100e1610270565b604051808215151515815260200191505060405180910390f35b34801561010757600080fd5b506101106102ad565b604051808215151515815260200191505060405180910390f35b34801561013657600080fd5b5061013f610387565b6040518082815260200191505060405180910390f35b34801561016157600080fd5b5061016a61038d565b604051808273ffffffffffffffffffffffffffffffffffffffff1673ffffffffffffffffffffffffffffffffffffffff16815260200191505060405180910390f35b3480156101b857600080fd5b506101c16103b3565b604051808273ffffffffffffffffffffffffffffffffffffffff1673ffffffffffffffffffffffffffffffffffffffff16815260200191505060405180910390f35b34801561020f57600080fd5b506102186103d9565b604051808215151515815260200191505060405180910390f35b34801561023e57600080fd5b506102476104a2565b6040518082815260200191505060405180910390f35b600060149054906101000a900460ff1681565b600080600281111561027e57fe5b600060149054906101000a900460ff16600281111561029957fe5b146102a55760006102a8565b60015b905090565b60003373ffffffffffffffffffffffffffffffffffffffff16600260009054906101000a900473ffffffffffffffffffffffffffffffffffffffff1673ffffffffffffffffffffffffffffffffffffffff1614151561030b57600080fd5b600154421015151561031c57600080fd5b6000600281111561032957fe5b600060149054906101000a900460ff16600281111561034457fe5b14151561035057600080fd5b61035b6004546104a8565b506001600060146101000a81548160ff0219169083600281111561037b57fe5b02179055506001905090565b60015481565b600260009054906101000a900473ffffffffffffffffffffffffffffffffffffffff1681565b600360009054906101000a900473ffffffffffffffffffffffffffffffffffffffff1681565b60003373ffffffffffffffffffffffffffffffffffffffff16600260009054906101000a900473ffffffffffffffffffffffffffffffffffffffff1673ffffffffffffffffffffffffffffffffffffffff1614151561043757600080fd5b6000600281111561044457fe5b600060149054906101000a900460ff16600281111561045f57fe5b14151561046b57600080fd5b6104766004546105d5565b506002600060146101000a81548160ff0219169083600281111561049657fe5b02179055506001905090565b60045481565b60008060009054906101000a900473ffffffffffffffffffffffffffffffffffffffff1673ffffffffffffffffffffffffffffffffffffffff1663a9059cbb600360009054906101000a900473ffffffffffffffffffffffffffffffffffffffff16846040518363ffffffff167c0100000000000000000000000000000000000000000000000000000000028152600401808373ffffffffffffffffffffffffffffffffffffffff1673ffffffffffffffffffffffffffffffffffffffff16815260200182815260200192505050602060405180830381600087803b15801561059057600080fd5b505af11580156105a4573d6000803e3d6000fd5b505050506040513d60208110156105ba57600080fd5b81019080805190602001909291905050505060019050919050565b60008060009054906101000a900473ffffffffffffffffffffffffffffffffffffffff1673ffffffffffffffffffffffffffffffffffffffff166342966c68836040518263ffffffff167c010000000000000000000000000000000000000000000000000000000002815260040180828152602001915050600060405180830381600087803b15801561066757600080fd5b505af115801561067b573d6000803e3d6000fd5b50505050600190509190505600a165627a7a723058202459b66254aa4871c4dcc9b1e98b75c21303412fc47ceefc8110991dd24405e90029",
  "source": "pragma solidity ^0.4.24;\nimport \"../SharedContracts/VuupleToken.sol\";\n// import \"../SharedContracts/DateTimeParser.sol\";\n\n// this contract hold the token and at the end of the month , if the lender get the required reputational points , the ownership of the token transfered to this lender  if not , these token is burnt\ncontract LenderEscrow  {\n    enum EscrowStatus{Active,Completed ,Closed}\n    VuupleToken private vuupleToken;\n    EscrowStatus public escrowStatus ;\n    uint256 public closeTime;\n    address public lenderAccountContract;\n    address public lender;\n    uint256 public tokenAmount;\n    constructor(VuupleToken _vuupleToken,\n        uint256 _closeTime,\n        uint256 _tokenAmount,\n        address _lender){\n        vuupleToken =_vuupleToken;\n        closeTime =_closeTime;\n        tokenAmount =_tokenAmount;\n        lender =_lender;\n        escrowStatus = EscrowStatus.Active;\n        lenderAccountContract = msg.sender;\n    }\n    modifier isLenderAccountContract(){\n        require(lenderAccountContract==msg.sender);\n        _;\n    }\n    modifier subscriptionEnded() {\n        require( now >= closeTime);\n        _;\n    }\n    modifier escrowActive() {\n        require( escrowStatus == EscrowStatus.Active);\n        _;\n    }\n\n\n    function isActive( ) public view returns(bool) {\n        return escrowStatus == EscrowStatus.Active ? true :false;\n    }\n    function withdraw() external isLenderAccountContract subscriptionEnded escrowActive returns (bool) {\n        _transferToken(tokenAmount);\n        // tokenAmount=0;\n        escrowStatus = EscrowStatus.Completed;\n        return true;\n    }\n    function closeEscrow() external isLenderAccountContract  escrowActive returns (bool)  {\n        _burn(tokenAmount);\n        // tokenAmount=0;\n        escrowStatus = EscrowStatus.Closed;\n        return true;\n    }\n    function _burn(uint256 _tokenAmount) internal returns (bool) {\n        vuupleToken.burn(_tokenAmount);\n        return true;\n    }\n    function _transferToken(uint256 _tokenAmount) internal returns (bool) {\n        vuupleToken.transfer(lender,_tokenAmount);\n        return true;\n    }\n\n}\n\n",
  "sourcePath": "/home/ubuntu/Smart-Contracts/contracts/LendersContracts/LenderEscrow.sol",
  "compiler": {
    "name": "solc",
    "version": "0.4.24+commit.e67f0147.Emscripten.clang"
  },
  "schemaVersion": "2.0.1",
  "updatedAt": "2019-05-18T23:24:12.657Z"
}