{
  "contractName": "LenderFactory",
  "abi": [
    {
      "constant": true,
      "inputs": [],
      "name": "lenderIndex",
      "outputs": [
        {
          "name": "",
          "type": "uint256"
        }
      ],
      "payable": false,
      "stateMutability": "view",
      "type": "function"
    },
    {
      "inputs": [
        {
          "name": "_adminAddress",
          "type": "address"
        },
        {
          "name": "_vuupleToken",
          "type": "address"
        }
      ],
      "payable": false,
      "stateMutability": "nonpayable",
      "type": "constructor"
    },
    {
      "constant": false,
      "inputs": [
        {
          "name": "_rentedStorage",
          "type": "uint256"
        }
      ],
      "name": "lenderRegister",
      "outputs": [
        {
          "name": "",
          "type": "bool"
        }
      ],
      "payable": false,
      "stateMutability": "nonpayable",
      "type": "function"
    },
    {
      "constant": false,
      "inputs": [
        {
          "name": "lenderAddress",
          "type": "address"
        }
      ],
      "name": "getLenderContract",
      "outputs": [
        {
          "name": "",
          "type": "address"
        }
      ],
      "payable": false,
      "stateMutability": "nonpayable",
      "type": "function"
    }
  ],
  "bytecode": "0x6080604052600060025534801561001557600080fd5b506040516040806132c48339810180604052810190808051906020019092919080519060200190929190505050816000806101000a81548173ffffffffffffffffffffffffffffffffffffffff021916908373ffffffffffffffffffffffffffffffffffffffff16021790555080600160006101000a81548173ffffffffffffffffffffffffffffffffffffffff021916908373ffffffffffffffffffffffffffffffffffffffff16021790555050506131f0806100d46000396000f300608060405260043610610057576000357c0100000000000000000000000000000000000000000000000000000000900463ffffffff168063040ccf9c1461005c5780632dc910e6146100a1578063a536d63814610124575b600080fd5b34801561006857600080fd5b506100876004803603810190808035906020019092919050505061014f565b604051808215151515815260200191505060405180910390f35b3480156100ad57600080fd5b506100e2600480360381019080803573ffffffffffffffffffffffffffffffffffffffff1690602001909291905050506103fa565b604051808273ffffffffffffffffffffffffffffffffffffffff1673ffffffffffffffffffffffffffffffffffffffff16815260200191505060405180910390f35b34801561013057600080fd5b50610139610463565b6040518082815260200191505060405180910390f35b60008073ffffffffffffffffffffffffffffffffffffffff16600360003373ffffffffffffffffffffffffffffffffffffffff1673ffffffffffffffffffffffffffffffffffffffff16815260200190815260200160002060009054906101000a900473ffffffffffffffffffffffffffffffffffffffff1673ffffffffffffffffffffffffffffffffffffffff161415156101ea57600080fd5b6000809054906101000a900473ffffffffffffffffffffffffffffffffffffffff1682600160009054906101000a900473ffffffffffffffffffffffffffffffffffffffff1633610239610549565b808573ffffffffffffffffffffffffffffffffffffffff1673ffffffffffffffffffffffffffffffffffffffff1681526020018481526020018373ffffffffffffffffffffffffffffffffffffffff1673ffffffffffffffffffffffffffffffffffffffff1681526020018273ffffffffffffffffffffffffffffffffffffffff1673ffffffffffffffffffffffffffffffffffffffff168152602001945050505050604051809103906000f0801580156102f8573d6000803e3d6000fd5b50600360003373ffffffffffffffffffffffffffffffffffffffff1673ffffffffffffffffffffffffffffffffffffffff16815260200190815260200160002060006101000a81548173ffffffffffffffffffffffffffffffffffffffff021916908373ffffffffffffffffffffffffffffffffffffffff1602179055506103de600360003373ffffffffffffffffffffffffffffffffffffffff1673ffffffffffffffffffffffffffffffffffffffff16815260200190815260200160002060009054906101000a900473ffffffffffffffffffffffffffffffffffffffff16610469565b5060026000815480929190600101919050555060019050919050565b6000600360008373ffffffffffffffffffffffffffffffffffffffff1673ffffffffffffffffffffffffffffffffffffffff16815260200190815260200160002060009054906101000a900473ffffffffffffffffffffffffffffffffffffffff169050919050565b60025481565b6000600160009054906101000a900473ffffffffffffffffffffffffffffffffffffffff1673ffffffffffffffffffffffffffffffffffffffff1663983b2d56836040518263ffffffff167c0100000000000000000000000000000000000000000000000000000000028152600401808273ffffffffffffffffffffffffffffffffffffffff1673ffffffffffffffffffffffffffffffffffffffff168152602001915050600060405180830381600087803b15801561052857600080fd5b505af115801561053c573d6000803e3d6000fd5b5050505060019050919050565b604051612c6b8061055a83390190560060806040526001600960006101000a81548160ff0219169083151502179055506000600960016101000a81548160ff0219169083151502179055506000600960026101000a81548160ff02191690831515021790555034801561006157600080fd5b50604051608080612c6b83398101806040528101908080519060200190929190805190602001909291908051906020019092919080519060200190929190505050806000806101000a81548173ffffffffffffffffffffffffffffffffffffffff021916908373ffffffffffffffffffffffffffffffffffffffff16021790555083600160006101000a81548173ffffffffffffffffffffffffffffffffffffffff021916908373ffffffffffffffffffffffffffffffffffffffff160217905550426006819055508260088190555081600260006101000a81548173ffffffffffffffffffffffffffffffffffffffff021916908373ffffffffffffffffffffffffffffffffffffffff16021790555050505050612ae6806101856000396000f300608060405260043610620001ab576000357c0100000000000000000000000000000000000000000000000000000000900463ffffffff16806302fb0c5e14620001b05780630d4786b914620001e257806312424e3f146200022c578063158fba8f146200025e57806318ac80fa146200029057806319d40b0814620002c25780631b16e85414620002f45780633ccfd60b14620003225780633e239e1a14620003545780634ac1ad78146200039e57806362ba968714620003e857806365c72840146200046457806374b3143114620004ae5780637c1ad29214620004dc5780637f791833146200050a5780638aa001fc14620005795780638c8d98a014620005c35780639054bdec146200062557806392d6631314620006ae578063a324ad2414620006fa578063a6f0e5771462000744578063ae8812df1462000790578063b199993714620007be578063b238ad0e1462000802578063c642f694146200085d578063ce606ee0146200088b578063d122007d14620008e5578063d71bb37b1462000913578063e2fdcc17146200095b578063ec7404b114620009b5578063fa93f88314620009ff575b600080fd5b348015620001bd57600080fd5b50620001c862000a49565b604051808215151515815260200191505060405180910390f35b348015620001ef57600080fd5b506200021260048036038101908080351515906020019092919050505062000a5c565b604051808215151515815260200191505060405180910390f35b3480156200023957600080fd5b506200024462000d3e565b604051808215151515815260200191505060405180910390f35b3480156200026b57600080fd5b506200027662001002565b604051808215151515815260200191505060405180910390f35b3480156200029d57600080fd5b50620002a862001015565b604051808215151515815260200191505060405180910390f35b348015620002cf57600080fd5b50620002da62001136565b604051808215151515815260200191505060405180910390f35b3480156200030157600080fd5b506200030c62001149565b6040518082815260200191505060405180910390f35b3480156200032f57600080fd5b506200033a6200114f565b604051808215151515815260200191505060405180910390f35b3480156200036157600080fd5b50620003826004803603810190808035906020019092919050505062001284565b604051808260ff1660ff16815260200191505060405180910390f35b348015620003ab57600080fd5b50620003cc60048036038101908080359060200190929190505050620012b4565b604051808260ff1660ff16815260200191505060405180910390f35b348015620003f557600080fd5b506200044e600480360381019080803561ffff169060200190929190803560ff169060200190929190803560ff169060200190929190803560ff169060200190929190803560ff169060200190929190505050620012dd565b6040518082815260200191505060405180910390f35b3480156200047157600080fd5b506200049260048036038101908080359060200190929190505050620012fb565b604051808260ff1660ff16815260200191505060405180910390f35b348015620004bb57600080fd5b50620004c662001313565b6040518082815260200191505060405180910390f35b348015620004e957600080fd5b50620004f462001318565b6040518082815260200191505060405180910390f35b3480156200051757600080fd5b5062000563600480360381019080803561ffff169060200190929190803560ff169060200190929190803560ff169060200190929190803560ff1690602001909291905050506200131e565b6040518082815260200191505060405180910390f35b3480156200058657600080fd5b50620005a7600480360381019080803590602001909291905050506200133b565b604051808260ff1660ff16815260200191505060405180910390f35b348015620005d057600080fd5b506200060f600480360381019080803561ffff169060200190929190803560ff169060200190929190803560ff16906020019092919050505062001352565b6040518082815260200191505060405180910390f35b3480156200063257600080fd5b5062000698600480360381019080803561ffff169060200190929190803560ff169060200190929190803560ff169060200190929190803560ff169060200190929190803560ff169060200190929190803560ff1690602001909291905050506200136f565b6040518082815260200191505060405180910390f35b348015620006bb57600080fd5b50620006dc6004803603810190808035906020019092919050505062001632565b604051808261ffff1661ffff16815260200191505060405180910390f35b3480156200070757600080fd5b506200072860048036038101908080359060200190929190505050620016e8565b604051808260ff1660ff16815260200191505060405180910390f35b3480156200075157600080fd5b5062000776600480360381019080803561ffff16906020019092919050505062001700565b604051808215151515815260200191505060405180910390f35b3480156200079d57600080fd5b50620007a86200178a565b6040518082815260200191505060405180910390f35b348015620007cb57600080fd5b50620007ec6004803603810190808035906020019092919050505062001790565b6040518082815260200191505060405180910390f35b3480156200080f57600080fd5b5062000841600480360381019080803560ff169060200190929190803561ffff169060200190929190505050620017cc565b604051808260ff1660ff16815260200191505060405180910390f35b3480156200086a57600080fd5b5062000875620018a9565b6040518082815260200191505060405180910390f35b3480156200089857600080fd5b50620008a3620018af565b604051808273ffffffffffffffffffffffffffffffffffffffff1673ffffffffffffffffffffffffffffffffffffffff16815260200191505060405180910390f35b348015620008f257600080fd5b50620008fd620018d4565b6040518082815260200191505060405180910390f35b3480156200092057600080fd5b506200094160048036038101908080359060200190929190505050620018d9565b604051808215151515815260200191505060405180910390f35b3480156200096857600080fd5b506200097362001b25565b604051808273ffffffffffffffffffffffffffffffffffffffff1673ffffffffffffffffffffffffffffffffffffffff16815260200191505060405180910390f35b348015620009c257600080fd5b50620009e560048036038101908080351515906020019092919050505062001b4b565b604051808215151515815260200191505060405180910390f35b34801562000a0c57600080fd5b5062000a2d6004803603810190808035906020019092919050505062001d67565b604051808260ff1660ff16815260200191505060405180910390f35b600960009054906101000a900460ff1681565b6000600160009054906101000a900473ffffffffffffffffffffffffffffffffffffffff1673ffffffffffffffffffffffffffffffffffffffff166347a6fa60336040518263ffffffff167c0100000000000000000000000000000000000000000000000000000000028152600401808273ffffffffffffffffffffffffffffffffffffffff1673ffffffffffffffffffffffffffffffffffffffff168152602001915050602060405180830381600087803b15801562000b1c57600080fd5b505af115801562000b31573d6000803e3d6000fd5b505050506040513d602081101562000b4857600080fd5b8101908080519060200190929190505050151562000b6557600080fd5b81600960026101000a81548160ff0219169083151502179055508115600960006101000a81548160ff021916908315150217905550600360009054906101000a900473ffffffffffffffffffffffffffffffffffffffff1673ffffffffffffffffffffffffffffffffffffffff166322f3e2d46040518163ffffffff167c0100000000000000000000000000000000000000000000000000000000028152600401602060405180830381600087803b15801562000c2157600080fd5b505af115801562000c36573d6000803e3d6000fd5b505050506040513d602081101562000c4d57600080fd5b81019080805190602001909291905050501562000d3557600360009054906101000a900473ffffffffffffffffffffffffffffffffffffffff1673ffffffffffffffffffffffffffffffffffffffff1663c163de3d6040518163ffffffff167c0100000000000000000000000000000000000000000000000000000000028152600401602060405180830381600087803b15801562000ceb57600080fd5b505af115801562000d00573d6000803e3d6000fd5b505050506040513d602081101562000d1757600080fd5b8101908080519060200190929190505050151562000d3457600080fd5b5b60019050919050565b6000600160009054906101000a900473ffffffffffffffffffffffffffffffffffffffff1673ffffffffffffffffffffffffffffffffffffffff166347a6fa60336040518263ffffffff167c0100000000000000000000000000000000000000000000000000000000028152600401808273ffffffffffffffffffffffffffffffffffffffff1673ffffffffffffffffffffffffffffffffffffffff168152602001915050602060405180830381600087803b15801562000dfe57600080fd5b505af115801562000e13573d6000803e3d6000fd5b505050506040513d602081101562000e2a57600080fd5b8101908080519060200190929190505050151562000e4757600080fd5b600960019054906101000a900460ff1615151562000e6457600080fd5b62000e6e62001d8a565b6005819055506001600960016101000a81548160ff021916908315150217905550600260009054906101000a900473ffffffffffffffffffffffffffffffffffffffff166005546002600854026000809054906101000a900473ffffffffffffffffffffffffffffffffffffffff1662000ee762002226565b808573ffffffffffffffffffffffffffffffffffffffff1673ffffffffffffffffffffffffffffffffffffffff1681526020018481526020018381526020018273ffffffffffffffffffffffffffffffffffffffff1673ffffffffffffffffffffffffffffffffffffffff168152602001945050505050604051809103906000f08015801562000f7b573d6000803e3d6000fd5b50600360006101000a81548173ffffffffffffffffffffffffffffffffffffffff021916908373ffffffffffffffffffffffffffffffffffffffff16021790555062000fef600260085402600360009054906101000a900473ffffffffffffffffffffffffffffffffffffffff1662001f4e565b151562000ffb57600080fd5b6001905090565b600960029054906101000a900460ff1681565b6000600160009054906101000a900473ffffffffffffffffffffffffffffffffffffffff1673ffffffffffffffffffffffffffffffffffffffff166347a6fa60336040518263ffffffff167c0100000000000000000000000000000000000000000000000000000000028152600401808273ffffffffffffffffffffffffffffffffffffffff1673ffffffffffffffffffffffffffffffffffffffff168152602001915050602060405180830381600087803b158015620010d557600080fd5b505af1158015620010ea573d6000803e3d6000fd5b505050506040513d60208110156200110157600080fd5b810190808051906020019092919050505015156200111e57600080fd5b60016007600082825401925050819055506001905090565b600960019054906101000a900460ff1681565b60075481565b60003373ffffffffffffffffffffffffffffffffffffffff166000809054906101000a900473ffffffffffffffffffffffffffffffffffffffff1673ffffffffffffffffffffffffffffffffffffffff16141515620011ad57600080fd5b600360009054906101000a900473ffffffffffffffffffffffffffffffffffffffff1673ffffffffffffffffffffffffffffffffffffffff16633ccfd60b6040518163ffffffff167c0100000000000000000000000000000000000000000000000000000000028152600401602060405180830381600087803b1580156200123457600080fd5b505af115801562001249573d6000803e3d6000fd5b505050506040513d60208110156200126057600080fd5b810190808051906020019092919050505015156200127d57600080fd5b6001905090565b60006018603c80848115156200129657fe5b04811515620012a157fe5b04811515620012ac57fe5b069050919050565b6000600760046201518084811515620012c957fe5b0401811515620012d557fe5b069050919050565b6000620012f0868686868660006200136f565b905095945050505050565b6000620013088262002069565b604001519050919050565b603c81565b60055481565b600062001331858585856000806200136f565b9050949350505050565b6000603c828115156200134a57fe5b069050919050565b60006200136684848460008060006200136f565b90509392505050565b6000806200137c62002237565b6107b291505b8861ffff168261ffff161015620013cb576200139e8262001700565b15620013b3576301e2850083019250620013bd565b6301e13380830192505b818060010192505062001382565b601f816000600c81101515620013dd57fe5b602002019060ff16908160ff1681525050620013f98962001700565b156200142857601d816001600c811015156200141157fe5b602002019060ff16908160ff16815250506200144c565b601c816001600c811015156200143a57fe5b602002019060ff16908160ff16815250505b601f816002600c811015156200145e57fe5b602002019060ff16908160ff1681525050601e816003600c811015156200148157fe5b602002019060ff16908160ff1681525050601f816004600c81101515620014a457fe5b602002019060ff16908160ff1681525050601e816005600c81101515620014c757fe5b602002019060ff16908160ff1681525050601f816006600c81101515620014ea57fe5b602002019060ff16908160ff1681525050601f816007600c811015156200150d57fe5b602002019060ff16908160ff1681525050601e816008600c811015156200153057fe5b602002019060ff16908160ff1681525050601f816009600c811015156200155357fe5b602002019060ff16908160ff1681525050601e81600a600c811015156200157657fe5b602002019060ff16908160ff1681525050601f81600b600c811015156200159957fe5b602002019060ff16908160ff1681525050600191505b8760ff168261ffff161015620015f457806001830361ffff16600c81101515620015d557fe5b602002015160ff166201518002830192508180600101925050620015af565b6001870360ff166201518002830192508560ff16610e1002830192508460ff16603c02830192508360ff168301925082925050509695505050505050565b600080600080600092506301e13380858115156200164c57fe5b046107b261ffff16019150620016686107b261ffff1662001790565b620016778361ffff1662001790565b039050806301e285000283019250806107b2830361ffff16036301e1338002830192505b84831115620016dd57620016b26001830362001700565b15620016c7576301e2850083039250620016d1565b6301e13380830392505b6001820391506200169b565b819350505050919050565b6000620016f58262002069565b602001519050919050565b60008060048361ffff168115156200171457fe5b0661ffff161415156200172b576000905062001785565b600060648361ffff168115156200173e57fe5b0661ffff1614151562001755576001905062001785565b60006101908361ffff168115156200176957fe5b0661ffff1614151562001780576000905062001785565b600190505b919050565b60085481565b600060018203915061019082811515620017a657fe5b04606483811515620017b457fe5b04600484811515620017c257fe5b0403019050919050565b600060018360ff161480620017e4575060038360ff16145b80620017f3575060058360ff16145b8062001802575060078360ff16145b8062001811575060088360ff16145b80620018205750600a8360ff16145b806200182f5750600c8360ff16145b156200183f57601f9050620018a3565b60048360ff16148062001855575060068360ff16145b8062001864575060098360ff16145b80620018735750600b8360ff16145b156200188357601e9050620018a3565b6200188e8262001700565b156200189e57601d9050620018a3565b601c90505b92915050565b60065481565b6000809054906101000a900473ffffffffffffffffffffffffffffffffffffffff1681565b60d281565b60003373ffffffffffffffffffffffffffffffffffffffff166000809054906101000a900473ffffffffffffffffffffffffffffffffffffffff1673ffffffffffffffffffffffffffffffffffffffff161415156200193757600080fd5b60055442101515156200194957600080fd5b600960029054906101000a900460ff161515156200196657600080fd5b600960009054906101000a900460ff16151562001999576001600960006101000a81548160ff0219169083151502179055505b81600881905550620019aa62001d8a565b600581905550600260009054906101000a900473ffffffffffffffffffffffffffffffffffffffff166005546002600854026000809054906101000a900473ffffffffffffffffffffffffffffffffffffffff1662001a0862002226565b808573ffffffffffffffffffffffffffffffffffffffff1673ffffffffffffffffffffffffffffffffffffffff1681526020018481526020018381526020018273ffffffffffffffffffffffffffffffffffffffff1673ffffffffffffffffffffffffffffffffffffffff168152602001945050505050604051809103906000f08015801562001a9c573d6000803e3d6000fd5b50600360006101000a81548173ffffffffffffffffffffffffffffffffffffffff021916908373ffffffffffffffffffffffffffffffffffffffff16021790555062001b10600260085402600360009054906101000a900473ffffffffffffffffffffffffffffffffffffffff1662001f4e565b151562001b1c57600080fd5b60019050919050565b600360009054906101000a900473ffffffffffffffffffffffffffffffffffffffff1681565b60003373ffffffffffffffffffffffffffffffffffffffff166000809054906101000a900473ffffffffffffffffffffffffffffffffffffffff1673ffffffffffffffffffffffffffffffffffffffff1614151562001ba957600080fd5b81600960006101000a81548160ff021916908315150217905550600360009054906101000a900473ffffffffffffffffffffffffffffffffffffffff1673ffffffffffffffffffffffffffffffffffffffff166322f3e2d46040518163ffffffff167c0100000000000000000000000000000000000000000000000000000000028152600401602060405180830381600087803b15801562001c4a57600080fd5b505af115801562001c5f573d6000803e3d6000fd5b505050506040513d602081101562001c7657600080fd5b81019080805190602001909291905050501562001d5e57600360009054906101000a900473ffffffffffffffffffffffffffffffffffffffff1673ffffffffffffffffffffffffffffffffffffffff1663c163de3d6040518163ffffffff167c0100000000000000000000000000000000000000000000000000000000028152600401602060405180830381600087803b15801562001d1457600080fd5b505af115801562001d29573d6000803e3d6000fd5b505050506040513d602081101562001d4057600080fd5b8101908080519060200190929190505050151562001d5d57600080fd5b5b60019050919050565b6000603c808381151562001d7757fe5b0481151562001d8257fe5b069050919050565b6000600c62001d9942620016e8565b60ff16141562001e6a5762001dae42620012fb565b60ff1662001dd162001dc042620016e8565b62001dcb4262001632565b620017cc565b60ff16141562001e275762001e24600162001dec4262001632565b01600162001e0860018062001e014262001632565b01620017cc565b62001e134262001284565b62001e1e4262001d67565b620012dd565b90505b62001e62600162001e384262001632565b01600162001e4642620012fb565b62001e514262001284565b62001e5c4262001d67565b620012dd565b905062001f48565b62001e7542620012fb565b60ff1662001e9862001e8742620016e8565b62001e924262001632565b620017cc565b60ff16141562001f015762001efe62001eb14262001632565b600162001ebe42620016e8565b0162001ee2600162001ed042620016e8565b0162001edc4262001632565b620017cc565b62001eed4262001284565b62001ef84262001d67565b620012dd565b90505b62001f4562001f104262001632565b600162001f1d42620016e8565b0162001f2942620012fb565b62001f344262001284565b62001f3f4262001d67565b620012dd565b90505b80905090565b6000600260009054906101000a900473ffffffffffffffffffffffffffffffffffffffff1673ffffffffffffffffffffffffffffffffffffffff166340c10f1983856040518363ffffffff167c0100000000000000000000000000000000000000000000000000000000028152600401808373ffffffffffffffffffffffffffffffffffffffff1673ffffffffffffffffffffffffffffffffffffffff16815260200182815260200192505050602060405180830381600087803b1580156200201657600080fd5b505af11580156200202b573d6000803e3d6000fd5b505050506040513d60208110156200204257600080fd5b810190808051906020019092919050505015156200205f57600080fd5b6001905092915050565b620020736200225b565b60008060008060009350620020888662001632565b856000019061ffff16908161ffff1681525050620020ac6107b261ffff1662001790565b620020bf866000015161ffff1662001790565b039250826301e285000284019350826107b286600001510361ffff16036301e133800284019350600191505b600c8260ff16111515620021495762002109828660000151620017cc565b60ff1662015180029050858482011115620021365781856020019060ff16908160ff168152505062002149565b80840193508180600101925050620020eb565b600191505b6200216285602001518660000151620017cc565b60ff168260ff16111515620021ad57858462015180011115620021975781856040019060ff16908160ff1681525050620021ad565b620151808401935081806001019250506200214e565b620021b88662001284565b856060019060ff16908160ff1681525050620021d48662001d67565b856080019060ff16908160ff1681525050620021f0866200133b565b8560a0019060ff16908160ff16815250506200220c86620012b4565b8560c0019060ff16908160ff168152505050505050919050565b60405161080b80620022b083390190565b61018060405190810160405280600c90602082028038833980820191505090505090565b60e060405190810160405280600061ffff168152602001600060ff168152602001600060ff168152602001600060ff168152602001600060ff168152602001600060ff168152602001600060ff16815250905600608060405234801561001057600080fd5b5060405160808061080b83398101806040528101908080519060200190929190805190602001909291908051906020019092919080519060200190929190505050836000806101000a81548173ffffffffffffffffffffffffffffffffffffffff021916908373ffffffffffffffffffffffffffffffffffffffff160217905550826001819055508160048190555080600360006101000a81548173ffffffffffffffffffffffffffffffffffffffff021916908373ffffffffffffffffffffffffffffffffffffffff16021790555060008060146101000a81548160ff021916908360028111156100fe57fe5b021790555033600260006101000a81548173ffffffffffffffffffffffffffffffffffffffff021916908373ffffffffffffffffffffffffffffffffffffffff160217905550505050506106b4806101576000396000f30060806040526004361061008e576000357c0100000000000000000000000000000000000000000000000000000000900463ffffffff168063186099601461009357806322f3e2d4146100cc5780633ccfd60b146100fb578063627749e61461012a57806371ce99ad14610155578063bcead63e146101ac578063c163de3d14610203578063eec7faa114610232575b600080fd5b34801561009f57600080fd5b506100a861025d565b604051808260028111156100b857fe5b60ff16815260200191505060405180910390f35b3480156100d857600080fd5b506100e1610270565b604051808215151515815260200191505060405180910390f35b34801561010757600080fd5b506101106102ad565b604051808215151515815260200191505060405180910390f35b34801561013657600080fd5b5061013f610387565b6040518082815260200191505060405180910390f35b34801561016157600080fd5b5061016a61038d565b604051808273ffffffffffffffffffffffffffffffffffffffff1673ffffffffffffffffffffffffffffffffffffffff16815260200191505060405180910390f35b3480156101b857600080fd5b506101c16103b3565b604051808273ffffffffffffffffffffffffffffffffffffffff1673ffffffffffffffffffffffffffffffffffffffff16815260200191505060405180910390f35b34801561020f57600080fd5b506102186103d9565b604051808215151515815260200191505060405180910390f35b34801561023e57600080fd5b506102476104a2565b6040518082815260200191505060405180910390f35b600060149054906101000a900460ff1681565b600080600281111561027e57fe5b600060149054906101000a900460ff16600281111561029957fe5b146102a55760006102a8565b60015b905090565b60003373ffffffffffffffffffffffffffffffffffffffff16600260009054906101000a900473ffffffffffffffffffffffffffffffffffffffff1673ffffffffffffffffffffffffffffffffffffffff1614151561030b57600080fd5b600154421015151561031c57600080fd5b6000600281111561032957fe5b600060149054906101000a900460ff16600281111561034457fe5b14151561035057600080fd5b61035b6004546104a8565b506001600060146101000a81548160ff0219169083600281111561037b57fe5b02179055506001905090565b60015481565b600260009054906101000a900473ffffffffffffffffffffffffffffffffffffffff1681565b600360009054906101000a900473ffffffffffffffffffffffffffffffffffffffff1681565b60003373ffffffffffffffffffffffffffffffffffffffff16600260009054906101000a900473ffffffffffffffffffffffffffffffffffffffff1673ffffffffffffffffffffffffffffffffffffffff1614151561043757600080fd5b6000600281111561044457fe5b600060149054906101000a900460ff16600281111561045f57fe5b14151561046b57600080fd5b6104766004546105d5565b506002600060146101000a81548160ff0219169083600281111561049657fe5b02179055506001905090565b60045481565b60008060009054906101000a900473ffffffffffffffffffffffffffffffffffffffff1673ffffffffffffffffffffffffffffffffffffffff1663a9059cbb600360009054906101000a900473ffffffffffffffffffffffffffffffffffffffff16846040518363ffffffff167c0100000000000000000000000000000000000000000000000000000000028152600401808373ffffffffffffffffffffffffffffffffffffffff1673ffffffffffffffffffffffffffffffffffffffff16815260200182815260200192505050602060405180830381600087803b15801561059057600080fd5b505af11580156105a4573d6000803e3d6000fd5b505050506040513d60208110156105ba57600080fd5b81019080805190602001909291905050505060019050919050565b60008060009054906101000a900473ffffffffffffffffffffffffffffffffffffffff1673ffffffffffffffffffffffffffffffffffffffff166342966c68836040518263ffffffff167c010000000000000000000000000000000000000000000000000000000002815260040180828152602001915050600060405180830381600087803b15801561066757600080fd5b505af115801561067b573d6000803e3d6000fd5b50505050600190509190505600a165627a7a723058202459b66254aa4871c4dcc9b1e98b75c21303412fc47ceefc8110991dd24405e90029a165627a7a723058200fac17e34319d1115cd16677ce0adb7a94158d5013db29e81d530b15cf1503880029a165627a7a723058202a069550ad6eeee25c5ce5165bfe03843d6eab8814fba91b1167ab06269ca5020029",
  "source": "pragma solidity ^0.4.24;\nimport \"../SharedContracts/VuupleAdmins.sol\";\nimport \"../SharedContracts/VuupleToken.sol\";\n// import \"../../node_modules/openzeppelin-solidity/contracts/access/roles/MinterRole.sol\";\nimport \"./LenderRegistration.sol\";\ncontract LenderFactory{\n    VuupleAdmins private vuupleAdmin;\n    VuupleToken private vuupleToken;\n    uint public lenderIndex =0;\n\n\n    // MinterRole private minters;\n    \n     mapping (address=>address) lendersToContracts;\n    constructor( VuupleAdmins _adminAddress,  VuupleToken _vuupleToken ){\n        vuupleAdmin =_adminAddress;\n         vuupleToken=   _vuupleToken ;\n// TODO: adding contract to minter group will be done monually on migration\n        //vuupleToken.addMinter(this);\n    }\n \n modifier isNewLender{\n        require(lendersToContracts[msg.sender] == address(0));\n        _;\n    }\n       function lenderRegister(uint256 _rentedStorage) public isNewLender  returns (bool) {\n        /**VuupleAdmins _adminAddress , uint256 _renewalDate, uint256 _rentedStorage , VuupleToken _vuupleToken , _ */\n        lendersToContracts[msg.sender] = new LenderRegistration(vuupleAdmin \n        ,    _rentedStorage , vuupleToken ,msg.sender);\n         \n        _addToMinerRole(lendersToContracts[msg.sender]);\n\n          lenderIndex++;\n        return true;\n    }\n    function getLenderContract(address lenderAddress) returns (address ) {\n        return lendersToContracts[lenderAddress];\n    }\n    function _addToMinerRole(address contractAddress) internal returns (bool){\n        vuupleToken.addMinter(contractAddress);\n        return true;\n    }\n   \n    \n}\n\n",
  "sourcePath": "/home/ubuntu/Smart-Contracts/contracts/LendersContracts/LenderFactory.sol",
  "compiler": {
    "name": "solc",
    "version": "0.4.24+commit.e67f0147.Emscripten.clang"
  },
  "schemaVersion": "2.0.1",
  "updatedAt": "2019-04-26T19:41:17.231Z"
}