{
  "contractName": "LenderFactory",
  "abi": [
    {
      "constant": true,
      "inputs": [],
      "name": "lenderIndex",
      "outputs": [
        {
          "name": "",
          "type": "uint256"
        }
      ],
      "payable": false,
      "stateMutability": "view",
      "type": "function"
    },
    {
      "inputs": [
        {
          "name": "_adminAddress",
          "type": "address"
        },
        {
          "name": "_vuupleToken",
          "type": "address"
        }
      ],
      "payable": false,
      "stateMutability": "nonpayable",
      "type": "constructor"
    },
    {
      "constant": false,
      "inputs": [
        {
          "name": "_rentedStorage",
          "type": "uint256"
        }
      ],
      "name": "lenderRegister",
      "outputs": [
        {
          "name": "",
          "type": "bool"
        }
      ],
      "payable": false,
      "stateMutability": "nonpayable",
      "type": "function"
    },
    {
      "constant": false,
      "inputs": [
        {
          "name": "lenderAddress",
          "type": "address"
        }
      ],
      "name": "getLenderContract",
      "outputs": [
        {
          "name": "",
          "type": "address"
        }
      ],
      "payable": false,
      "stateMutability": "nonpayable",
      "type": "function"
    }
  ],
  "bytecode": "0x6080604052600060025534801561001557600080fd5b506040516040806130f88339810180604052810190808051906020019092919080519060200190929190505050816000806101000a81548173ffffffffffffffffffffffffffffffffffffffff021916908373ffffffffffffffffffffffffffffffffffffffff16021790555080600160006101000a81548173ffffffffffffffffffffffffffffffffffffffff021916908373ffffffffffffffffffffffffffffffffffffffff1602179055505050613024806100d46000396000f300608060405260043610610057576000357c0100000000000000000000000000000000000000000000000000000000900463ffffffff168063040ccf9c1461005c5780632dc910e6146100a1578063a536d63814610124575b600080fd5b34801561006857600080fd5b506100876004803603810190808035906020019092919050505061014f565b604051808215151515815260200191505060405180910390f35b3480156100ad57600080fd5b506100e2600480360381019080803573ffffffffffffffffffffffffffffffffffffffff1690602001909291905050506103fa565b604051808273ffffffffffffffffffffffffffffffffffffffff1673ffffffffffffffffffffffffffffffffffffffff16815260200191505060405180910390f35b34801561013057600080fd5b50610139610463565b6040518082815260200191505060405180910390f35b60008073ffffffffffffffffffffffffffffffffffffffff16600360003373ffffffffffffffffffffffffffffffffffffffff1673ffffffffffffffffffffffffffffffffffffffff16815260200190815260200160002060009054906101000a900473ffffffffffffffffffffffffffffffffffffffff1673ffffffffffffffffffffffffffffffffffffffff161415156101ea57600080fd5b6000809054906101000a900473ffffffffffffffffffffffffffffffffffffffff1682600160009054906101000a900473ffffffffffffffffffffffffffffffffffffffff1633610239610549565b808573ffffffffffffffffffffffffffffffffffffffff1673ffffffffffffffffffffffffffffffffffffffff1681526020018481526020018373ffffffffffffffffffffffffffffffffffffffff1673ffffffffffffffffffffffffffffffffffffffff1681526020018273ffffffffffffffffffffffffffffffffffffffff1673ffffffffffffffffffffffffffffffffffffffff168152602001945050505050604051809103906000f0801580156102f8573d6000803e3d6000fd5b50600360003373ffffffffffffffffffffffffffffffffffffffff1673ffffffffffffffffffffffffffffffffffffffff16815260200190815260200160002060006101000a81548173ffffffffffffffffffffffffffffffffffffffff021916908373ffffffffffffffffffffffffffffffffffffffff1602179055506103de600360003373ffffffffffffffffffffffffffffffffffffffff1673ffffffffffffffffffffffffffffffffffffffff16815260200190815260200160002060009054906101000a900473ffffffffffffffffffffffffffffffffffffffff16610469565b5060026000815480929190600101919050555060019050919050565b6000600360008373ffffffffffffffffffffffffffffffffffffffff1673ffffffffffffffffffffffffffffffffffffffff16815260200190815260200160002060009054906101000a900473ffffffffffffffffffffffffffffffffffffffff169050919050565b60025481565b6000600160009054906101000a900473ffffffffffffffffffffffffffffffffffffffff1673ffffffffffffffffffffffffffffffffffffffff1663983b2d56836040518263ffffffff167c0100000000000000000000000000000000000000000000000000000000028152600401808273ffffffffffffffffffffffffffffffffffffffff1673ffffffffffffffffffffffffffffffffffffffff168152602001915050600060405180830381600087803b15801561052857600080fd5b505af115801561053c573d6000803e3d6000fd5b5050505060019050919050565b604051612a9f8061055a83390190560060806040526001600960006101000a81548160ff0219169083151502179055506000600960016101000a81548160ff0219169083151502179055506000600960026101000a81548160ff02191690831515021790555034801561006157600080fd5b50604051608080612a9f83398101806040528101908080519060200190929190805190602001909291908051906020019092919080519060200190929190505050806000806101000a81548173ffffffffffffffffffffffffffffffffffffffff021916908373ffffffffffffffffffffffffffffffffffffffff16021790555083600160006101000a81548173ffffffffffffffffffffffffffffffffffffffff021916908373ffffffffffffffffffffffffffffffffffffffff160217905550426006819055508260088190555081600260006101000a81548173ffffffffffffffffffffffffffffffffffffffff021916908373ffffffffffffffffffffffffffffffffffffffff1602179055505050505061291a806101856000396000f300608060405260043610620001ab576000357c0100000000000000000000000000000000000000000000000000000000900463ffffffff16806302fb0c5e14620001b05780630d4786b914620001e257806312424e3f146200022c578063158fba8f146200025e57806318ac80fa146200029057806319d40b0814620002c25780631b16e85414620002f45780633ccfd60b14620003225780633e239e1a14620003545780634ac1ad78146200039e57806362ba968714620003e857806365c72840146200046457806374b3143114620004ae5780637c1ad29214620004dc5780637f791833146200050a5780638aa001fc14620005795780638c8d98a014620005c35780639054bdec146200062557806392d6631314620006ae578063a324ad2414620006fa578063a6f0e5771462000744578063ae8812df1462000790578063b199993714620007be578063b238ad0e1462000802578063c642f694146200085d578063ce606ee0146200088b578063d122007d14620008e5578063d71bb37b1462000913578063e2fdcc17146200095b578063ec7404b114620009b5578063fa93f88314620009ff575b600080fd5b348015620001bd57600080fd5b50620001c862000a49565b604051808215151515815260200191505060405180910390f35b348015620001ef57600080fd5b506200021260048036038101908080351515906020019092919050505062000a5c565b604051808215151515815260200191505060405180910390f35b3480156200023957600080fd5b506200024462000d3e565b604051808215151515815260200191505060405180910390f35b3480156200026b57600080fd5b506200027662000ffe565b604051808215151515815260200191505060405180910390f35b3480156200029d57600080fd5b50620002a862001011565b604051808215151515815260200191505060405180910390f35b348015620002cf57600080fd5b50620002da62001132565b604051808215151515815260200191505060405180910390f35b3480156200030157600080fd5b506200030c62001145565b6040518082815260200191505060405180910390f35b3480156200032f57600080fd5b506200033a6200114b565b604051808215151515815260200191505060405180910390f35b3480156200036157600080fd5b50620003826004803603810190808035906020019092919050505062001280565b604051808260ff1660ff16815260200191505060405180910390f35b348015620003ab57600080fd5b50620003cc60048036038101908080359060200190929190505050620012b0565b604051808260ff1660ff16815260200191505060405180910390f35b348015620003f557600080fd5b506200044e600480360381019080803561ffff169060200190929190803560ff169060200190929190803560ff169060200190929190803560ff169060200190929190803560ff169060200190929190505050620012d9565b6040518082815260200191505060405180910390f35b3480156200047157600080fd5b506200049260048036038101908080359060200190929190505050620012f7565b604051808260ff1660ff16815260200191505060405180910390f35b348015620004bb57600080fd5b50620004c66200130f565b6040518082815260200191505060405180910390f35b348015620004e957600080fd5b50620004f462001314565b6040518082815260200191505060405180910390f35b3480156200051757600080fd5b5062000563600480360381019080803561ffff169060200190929190803560ff169060200190929190803560ff169060200190929190803560ff1690602001909291905050506200131a565b6040518082815260200191505060405180910390f35b3480156200058657600080fd5b50620005a76004803603810190808035906020019092919050505062001337565b604051808260ff1660ff16815260200191505060405180910390f35b348015620005d057600080fd5b506200060f600480360381019080803561ffff169060200190929190803560ff169060200190929190803560ff1690602001909291905050506200134e565b6040518082815260200191505060405180910390f35b3480156200063257600080fd5b5062000698600480360381019080803561ffff169060200190929190803560ff169060200190929190803560ff169060200190929190803560ff169060200190929190803560ff169060200190929190803560ff1690602001909291905050506200136b565b6040518082815260200191505060405180910390f35b348015620006bb57600080fd5b50620006dc600480360381019080803590602001909291905050506200162e565b604051808261ffff1661ffff16815260200191505060405180910390f35b3480156200070757600080fd5b506200072860048036038101908080359060200190929190505050620016e4565b604051808260ff1660ff16815260200191505060405180910390f35b3480156200075157600080fd5b5062000776600480360381019080803561ffff169060200190929190505050620016fc565b604051808215151515815260200191505060405180910390f35b3480156200079d57600080fd5b50620007a862001786565b6040518082815260200191505060405180910390f35b348015620007cb57600080fd5b50620007ec600480360381019080803590602001909291905050506200178c565b6040518082815260200191505060405180910390f35b3480156200080f57600080fd5b5062000841600480360381019080803560ff169060200190929190803561ffff169060200190929190505050620017c8565b604051808260ff1660ff16815260200191505060405180910390f35b3480156200086a57600080fd5b5062000875620018a5565b6040518082815260200191505060405180910390f35b3480156200089857600080fd5b50620008a3620018ab565b604051808273ffffffffffffffffffffffffffffffffffffffff1673ffffffffffffffffffffffffffffffffffffffff16815260200191505060405180910390f35b348015620008f257600080fd5b50620008fd620018d0565b6040518082815260200191505060405180910390f35b3480156200092057600080fd5b506200094160048036038101908080359060200190929190505050620018d5565b604051808215151515815260200191505060405180910390f35b3480156200096857600080fd5b506200097362001b1d565b604051808273ffffffffffffffffffffffffffffffffffffffff1673ffffffffffffffffffffffffffffffffffffffff16815260200191505060405180910390f35b348015620009c257600080fd5b50620009e560048036038101908080351515906020019092919050505062001b43565b604051808215151515815260200191505060405180910390f35b34801562000a0c57600080fd5b5062000a2d6004803603810190808035906020019092919050505062001d5f565b604051808260ff1660ff16815260200191505060405180910390f35b600960009054906101000a900460ff1681565b6000600160009054906101000a900473ffffffffffffffffffffffffffffffffffffffff1673ffffffffffffffffffffffffffffffffffffffff166347a6fa60336040518263ffffffff167c0100000000000000000000000000000000000000000000000000000000028152600401808273ffffffffffffffffffffffffffffffffffffffff1673ffffffffffffffffffffffffffffffffffffffff168152602001915050602060405180830381600087803b15801562000b1c57600080fd5b505af115801562000b31573d6000803e3d6000fd5b505050506040513d602081101562000b4857600080fd5b8101908080519060200190929190505050151562000b6557600080fd5b81600960026101000a81548160ff0219169083151502179055508115600960006101000a81548160ff021916908315150217905550600360009054906101000a900473ffffffffffffffffffffffffffffffffffffffff1673ffffffffffffffffffffffffffffffffffffffff166322f3e2d46040518163ffffffff167c0100000000000000000000000000000000000000000000000000000000028152600401602060405180830381600087803b15801562000c2157600080fd5b505af115801562000c36573d6000803e3d6000fd5b505050506040513d602081101562000c4d57600080fd5b81019080805190602001909291905050501562000d3557600360009054906101000a900473ffffffffffffffffffffffffffffffffffffffff1673ffffffffffffffffffffffffffffffffffffffff1663c163de3d6040518163ffffffff167c0100000000000000000000000000000000000000000000000000000000028152600401602060405180830381600087803b15801562000ceb57600080fd5b505af115801562000d00573d6000803e3d6000fd5b505050506040513d602081101562000d1757600080fd5b8101908080519060200190929190505050151562000d3457600080fd5b5b60019050919050565b6000600160009054906101000a900473ffffffffffffffffffffffffffffffffffffffff1673ffffffffffffffffffffffffffffffffffffffff166347a6fa60336040518263ffffffff167c0100000000000000000000000000000000000000000000000000000000028152600401808273ffffffffffffffffffffffffffffffffffffffff1673ffffffffffffffffffffffffffffffffffffffff168152602001915050602060405180830381600087803b15801562000dfe57600080fd5b505af115801562000e13573d6000803e3d6000fd5b505050506040513d602081101562000e2a57600080fd5b8101908080519060200190929190505050151562000e4757600080fd5b600960019054906101000a900460ff1615151562000e6457600080fd5b62278d0042016005819055506001600960016101000a81548160ff021916908315150217905550600260009054906101000a900473ffffffffffffffffffffffffffffffffffffffff166005546002600854026000809054906101000a900473ffffffffffffffffffffffffffffffffffffffff1662000ee36200205a565b808573ffffffffffffffffffffffffffffffffffffffff1673ffffffffffffffffffffffffffffffffffffffff1681526020018481526020018381526020018273ffffffffffffffffffffffffffffffffffffffff1673ffffffffffffffffffffffffffffffffffffffff168152602001945050505050604051809103906000f08015801562000f77573d6000803e3d6000fd5b50600360006101000a81548173ffffffffffffffffffffffffffffffffffffffff021916908373ffffffffffffffffffffffffffffffffffffffff16021790555062000feb600260085402600360009054906101000a900473ffffffffffffffffffffffffffffffffffffffff1662001d82565b151562000ff757600080fd5b6001905090565b600960029054906101000a900460ff1681565b6000600160009054906101000a900473ffffffffffffffffffffffffffffffffffffffff1673ffffffffffffffffffffffffffffffffffffffff166347a6fa60336040518263ffffffff167c0100000000000000000000000000000000000000000000000000000000028152600401808273ffffffffffffffffffffffffffffffffffffffff1673ffffffffffffffffffffffffffffffffffffffff168152602001915050602060405180830381600087803b158015620010d157600080fd5b505af1158015620010e6573d6000803e3d6000fd5b505050506040513d6020811015620010fd57600080fd5b810190808051906020019092919050505015156200111a57600080fd5b60016007600082825401925050819055506001905090565b600960019054906101000a900460ff1681565b60075481565b60003373ffffffffffffffffffffffffffffffffffffffff166000809054906101000a900473ffffffffffffffffffffffffffffffffffffffff1673ffffffffffffffffffffffffffffffffffffffff16141515620011a957600080fd5b600360009054906101000a900473ffffffffffffffffffffffffffffffffffffffff1673ffffffffffffffffffffffffffffffffffffffff16633ccfd60b6040518163ffffffff167c0100000000000000000000000000000000000000000000000000000000028152600401602060405180830381600087803b1580156200123057600080fd5b505af115801562001245573d6000803e3d6000fd5b505050506040513d60208110156200125c57600080fd5b810190808051906020019092919050505015156200127957600080fd5b6001905090565b60006018603c80848115156200129257fe5b048115156200129d57fe5b04811515620012a857fe5b069050919050565b6000600760046201518084811515620012c557fe5b0401811515620012d157fe5b069050919050565b6000620012ec868686868660006200136b565b905095945050505050565b6000620013048262001e9d565b604001519050919050565b603c81565b60055481565b60006200132d858585856000806200136b565b9050949350505050565b6000603c828115156200134657fe5b069050919050565b60006200136284848460008060006200136b565b90509392505050565b600080620013786200206b565b6107b291505b8861ffff168261ffff161015620013c7576200139a82620016fc565b15620013af576301e2850083019250620013b9565b6301e13380830192505b81806001019250506200137e565b601f816000600c81101515620013d957fe5b602002019060ff16908160ff1681525050620013f589620016fc565b156200142457601d816001600c811015156200140d57fe5b602002019060ff16908160ff168152505062001448565b601c816001600c811015156200143657fe5b602002019060ff16908160ff16815250505b601f816002600c811015156200145a57fe5b602002019060ff16908160ff1681525050601e816003600c811015156200147d57fe5b602002019060ff16908160ff1681525050601f816004600c81101515620014a057fe5b602002019060ff16908160ff1681525050601e816005600c81101515620014c357fe5b602002019060ff16908160ff1681525050601f816006600c81101515620014e657fe5b602002019060ff16908160ff1681525050601f816007600c811015156200150957fe5b602002019060ff16908160ff1681525050601e816008600c811015156200152c57fe5b602002019060ff16908160ff1681525050601f816009600c811015156200154f57fe5b602002019060ff16908160ff1681525050601e81600a600c811015156200157257fe5b602002019060ff16908160ff1681525050601f81600b600c811015156200159557fe5b602002019060ff16908160ff1681525050600191505b8760ff168261ffff161015620015f057806001830361ffff16600c81101515620015d157fe5b602002015160ff166201518002830192508180600101925050620015ab565b6001870360ff166201518002830192508560ff16610e1002830192508460ff16603c02830192508360ff168301925082925050509695505050505050565b600080600080600092506301e13380858115156200164857fe5b046107b261ffff16019150620016646107b261ffff166200178c565b620016738361ffff166200178c565b039050806301e285000283019250806107b2830361ffff16036301e1338002830192505b84831115620016d957620016ae60018303620016fc565b15620016c3576301e2850083039250620016cd565b6301e13380830392505b60018203915062001697565b819350505050919050565b6000620016f18262001e9d565b602001519050919050565b60008060048361ffff168115156200171057fe5b0661ffff1614151562001727576000905062001781565b600060648361ffff168115156200173a57fe5b0661ffff1614151562001751576001905062001781565b60006101908361ffff168115156200176557fe5b0661ffff161415156200177c576000905062001781565b600190505b919050565b60085481565b600060018203915061019082811515620017a257fe5b04606483811515620017b057fe5b04600484811515620017be57fe5b0403019050919050565b600060018360ff161480620017e0575060038360ff16145b80620017ef575060058360ff16145b80620017fe575060078360ff16145b806200180d575060088360ff16145b806200181c5750600a8360ff16145b806200182b5750600c8360ff16145b156200183b57601f90506200189f565b60048360ff16148062001851575060068360ff16145b8062001860575060098360ff16145b806200186f5750600b8360ff16145b156200187f57601e90506200189f565b6200188a82620016fc565b156200189a57601d90506200189f565b601c90505b92915050565b60065481565b6000809054906101000a900473ffffffffffffffffffffffffffffffffffffffff1681565b60d281565b60003373ffffffffffffffffffffffffffffffffffffffff166000809054906101000a900473ffffffffffffffffffffffffffffffffffffffff1673ffffffffffffffffffffffffffffffffffffffff161415156200193357600080fd5b60055442101515156200194557600080fd5b600960029054906101000a900460ff161515156200196257600080fd5b600960009054906101000a900460ff16151562001995576001600960006101000a81548160ff0219169083151502179055505b8160088190555062278d004201600581905550600260009054906101000a900473ffffffffffffffffffffffffffffffffffffffff166005546002600854026000809054906101000a900473ffffffffffffffffffffffffffffffffffffffff1662001a006200205a565b808573ffffffffffffffffffffffffffffffffffffffff1673ffffffffffffffffffffffffffffffffffffffff1681526020018481526020018381526020018273ffffffffffffffffffffffffffffffffffffffff1673ffffffffffffffffffffffffffffffffffffffff168152602001945050505050604051809103906000f08015801562001a94573d6000803e3d6000fd5b50600360006101000a81548173ffffffffffffffffffffffffffffffffffffffff021916908373ffffffffffffffffffffffffffffffffffffffff16021790555062001b08600260085402600360009054906101000a900473ffffffffffffffffffffffffffffffffffffffff1662001d82565b151562001b1457600080fd5b60019050919050565b600360009054906101000a900473ffffffffffffffffffffffffffffffffffffffff1681565b60003373ffffffffffffffffffffffffffffffffffffffff166000809054906101000a900473ffffffffffffffffffffffffffffffffffffffff1673ffffffffffffffffffffffffffffffffffffffff1614151562001ba157600080fd5b81600960006101000a81548160ff021916908315150217905550600360009054906101000a900473ffffffffffffffffffffffffffffffffffffffff1673ffffffffffffffffffffffffffffffffffffffff166322f3e2d46040518163ffffffff167c0100000000000000000000000000000000000000000000000000000000028152600401602060405180830381600087803b15801562001c4257600080fd5b505af115801562001c57573d6000803e3d6000fd5b505050506040513d602081101562001c6e57600080fd5b81019080805190602001909291905050501562001d5657600360009054906101000a900473ffffffffffffffffffffffffffffffffffffffff1673ffffffffffffffffffffffffffffffffffffffff1663c163de3d6040518163ffffffff167c0100000000000000000000000000000000000000000000000000000000028152600401602060405180830381600087803b15801562001d0c57600080fd5b505af115801562001d21573d6000803e3d6000fd5b505050506040513d602081101562001d3857600080fd5b8101908080519060200190929190505050151562001d5557600080fd5b5b60019050919050565b6000603c808381151562001d6f57fe5b0481151562001d7a57fe5b069050919050565b6000600260009054906101000a900473ffffffffffffffffffffffffffffffffffffffff1673ffffffffffffffffffffffffffffffffffffffff166340c10f1983856040518363ffffffff167c0100000000000000000000000000000000000000000000000000000000028152600401808373ffffffffffffffffffffffffffffffffffffffff1673ffffffffffffffffffffffffffffffffffffffff16815260200182815260200192505050602060405180830381600087803b15801562001e4a57600080fd5b505af115801562001e5f573d6000803e3d6000fd5b505050506040513d602081101562001e7657600080fd5b8101908080519060200190929190505050151562001e9357600080fd5b6001905092915050565b62001ea76200208f565b6000806000806000935062001ebc866200162e565b856000019061ffff16908161ffff168152505062001ee06107b261ffff166200178c565b62001ef3866000015161ffff166200178c565b039250826301e285000284019350826107b286600001510361ffff16036301e133800284019350600191505b600c8260ff1611151562001f7d5762001f3d828660000151620017c8565b60ff166201518002905085848201111562001f6a5781856020019060ff16908160ff168152505062001f7d565b8084019350818060010192505062001f1f565b600191505b62001f9685602001518660000151620017c8565b60ff168260ff1611151562001fe15785846201518001111562001fcb5781856040019060ff16908160ff168152505062001fe1565b6201518084019350818060010192505062001f82565b62001fec8662001280565b856060019060ff16908160ff1681525050620020088662001d5f565b856080019060ff16908160ff1681525050620020248662001337565b8560a0019060ff16908160ff16815250506200204086620012b0565b8560c0019060ff16908160ff168152505050505050919050565b60405161080b80620020e483390190565b61018060405190810160405280600c90602082028038833980820191505090505090565b60e060405190810160405280600061ffff168152602001600060ff168152602001600060ff168152602001600060ff168152602001600060ff168152602001600060ff168152602001600060ff16815250905600608060405234801561001057600080fd5b5060405160808061080b83398101806040528101908080519060200190929190805190602001909291908051906020019092919080519060200190929190505050836000806101000a81548173ffffffffffffffffffffffffffffffffffffffff021916908373ffffffffffffffffffffffffffffffffffffffff160217905550826001819055508160048190555080600360006101000a81548173ffffffffffffffffffffffffffffffffffffffff021916908373ffffffffffffffffffffffffffffffffffffffff16021790555060008060146101000a81548160ff021916908360028111156100fe57fe5b021790555033600260006101000a81548173ffffffffffffffffffffffffffffffffffffffff021916908373ffffffffffffffffffffffffffffffffffffffff160217905550505050506106b4806101576000396000f30060806040526004361061008e576000357c0100000000000000000000000000000000000000000000000000000000900463ffffffff168063186099601461009357806322f3e2d4146100cc5780633ccfd60b146100fb578063627749e61461012a57806371ce99ad14610155578063bcead63e146101ac578063c163de3d14610203578063eec7faa114610232575b600080fd5b34801561009f57600080fd5b506100a861025d565b604051808260028111156100b857fe5b60ff16815260200191505060405180910390f35b3480156100d857600080fd5b506100e1610270565b604051808215151515815260200191505060405180910390f35b34801561010757600080fd5b506101106102ad565b604051808215151515815260200191505060405180910390f35b34801561013657600080fd5b5061013f610387565b6040518082815260200191505060405180910390f35b34801561016157600080fd5b5061016a61038d565b604051808273ffffffffffffffffffffffffffffffffffffffff1673ffffffffffffffffffffffffffffffffffffffff16815260200191505060405180910390f35b3480156101b857600080fd5b506101c16103b3565b604051808273ffffffffffffffffffffffffffffffffffffffff1673ffffffffffffffffffffffffffffffffffffffff16815260200191505060405180910390f35b34801561020f57600080fd5b506102186103d9565b604051808215151515815260200191505060405180910390f35b34801561023e57600080fd5b506102476104a2565b6040518082815260200191505060405180910390f35b600060149054906101000a900460ff1681565b600080600281111561027e57fe5b600060149054906101000a900460ff16600281111561029957fe5b146102a55760006102a8565b60015b905090565b60003373ffffffffffffffffffffffffffffffffffffffff16600260009054906101000a900473ffffffffffffffffffffffffffffffffffffffff1673ffffffffffffffffffffffffffffffffffffffff1614151561030b57600080fd5b600154421015151561031c57600080fd5b6000600281111561032957fe5b600060149054906101000a900460ff16600281111561034457fe5b14151561035057600080fd5b61035b6004546104a8565b506001600060146101000a81548160ff0219169083600281111561037b57fe5b02179055506001905090565b60015481565b600260009054906101000a900473ffffffffffffffffffffffffffffffffffffffff1681565b600360009054906101000a900473ffffffffffffffffffffffffffffffffffffffff1681565b60003373ffffffffffffffffffffffffffffffffffffffff16600260009054906101000a900473ffffffffffffffffffffffffffffffffffffffff1673ffffffffffffffffffffffffffffffffffffffff1614151561043757600080fd5b6000600281111561044457fe5b600060149054906101000a900460ff16600281111561045f57fe5b14151561046b57600080fd5b6104766004546105d5565b506002600060146101000a81548160ff0219169083600281111561049657fe5b02179055506001905090565b60045481565b60008060009054906101000a900473ffffffffffffffffffffffffffffffffffffffff1673ffffffffffffffffffffffffffffffffffffffff1663a9059cbb600360009054906101000a900473ffffffffffffffffffffffffffffffffffffffff16846040518363ffffffff167c0100000000000000000000000000000000000000000000000000000000028152600401808373ffffffffffffffffffffffffffffffffffffffff1673ffffffffffffffffffffffffffffffffffffffff16815260200182815260200192505050602060405180830381600087803b15801561059057600080fd5b505af11580156105a4573d6000803e3d6000fd5b505050506040513d60208110156105ba57600080fd5b81019080805190602001909291905050505060019050919050565b60008060009054906101000a900473ffffffffffffffffffffffffffffffffffffffff1673ffffffffffffffffffffffffffffffffffffffff166342966c68836040518263ffffffff167c010000000000000000000000000000000000000000000000000000000002815260040180828152602001915050600060405180830381600087803b15801561066757600080fd5b505af115801561067b573d6000803e3d6000fd5b50505050600190509190505600a165627a7a72305820553116ba52e82ce8cd9265ac89f0a51146dd0cf9d94a0cd1a247046423a03e370029a165627a7a723058201d5b87a4bae60e2642c0e67dfd7783660038b4ccfa285d992f404aebbb3aa9070029a165627a7a72305820ef837a2d52ba42cf8d4d16576c078073d82c142d74b9cbce474a10e1087bd5090029",
  "source": "pragma solidity ^0.4.24;\nimport \"../SharedContracts/VuupleAdmins.sol\";\nimport \"../SharedContracts/VuupleToken.sol\";\n// import \"../../node_modules/openzeppelin-solidity/contracts/access/roles/MinterRole.sol\";\nimport \"./LenderRegistration.sol\";\ncontract LenderFactory{\n    VuupleAdmins private vuupleAdmin;\n    VuupleToken private vuupleToken;\n    uint public lenderIndex =0;\n\n\n    // MinterRole private minters;\n    \n     mapping (address=>address) lendersToContracts;\n    constructor( VuupleAdmins _adminAddress,  VuupleToken _vuupleToken ){\n        vuupleAdmin =_adminAddress;\n         vuupleToken=   _vuupleToken ;\n// TODO: adding contract to minter group will be done monually on migration\n        //vuupleToken.addMinter(this);\n    }\n \n modifier isNewLender{\n        require(lendersToContracts[msg.sender] == address(0));\n        _;\n    }\n       function lenderRegister(uint256 _rentedStorage) public isNewLender  returns (bool) {\n        /**VuupleAdmins _adminAddress , uint256 _renewalDate, uint256 _rentedStorage , VuupleToken _vuupleToken , _ */\n        lendersToContracts[msg.sender] = new LenderRegistration(vuupleAdmin \n        ,    _rentedStorage , vuupleToken ,msg.sender);\n         \n        _addToMinerRole(lendersToContracts[msg.sender]);\n\n          lenderIndex++;\n        return true;\n    }\n    function getLenderContract(address lenderAddress) returns (address ) {\n        return lendersToContracts[lenderAddress];\n    }\n    function _addToMinerRole(address contractAddress) internal returns (bool){\n        vuupleToken.addMinter(contractAddress);\n        return true;\n    }\n   \n    \n}\n\n",
  "sourcePath": "/home/ubuntu/Smart-Contracts/contracts/LendersContracts/LenderFactory.sol",
  "compiler": {
    "name": "solc",
    "version": "0.4.24+commit.e67f0147.Emscripten.clang"
  },
  "schemaVersion": "2.0.1",
  "updatedAt": "2019-09-20T09:33:17.665Z"
}