{
  "contractName": "RenterFiles",
  "abi": [
    {
      "constant": true,
      "inputs": [],
      "name": "parentContract",
      "outputs": [
        {
          "name": "",
          "type": "address"
        }
      ],
      "payable": false,
      "stateMutability": "view",
      "type": "function"
    },
    {
      "constant": true,
      "inputs": [],
      "name": "index",
      "outputs": [
        {
          "name": "",
          "type": "uint256"
        }
      ],
      "payable": false,
      "stateMutability": "view",
      "type": "function"
    },
    {
      "constant": true,
      "inputs": [],
      "name": "fileOwner",
      "outputs": [
        {
          "name": "",
          "type": "address"
        }
      ],
      "payable": false,
      "stateMutability": "view",
      "type": "function"
    },
    {
      "inputs": [
        {
          "name": "_fileOwner",
          "type": "address"
        }
      ],
      "payable": false,
      "stateMutability": "nonpayable",
      "type": "constructor"
    },
    {
      "constant": false,
      "inputs": [
        {
          "name": "_bzzHash",
          "type": "string"
        },
        {
          "name": "_fileName",
          "type": "string"
        },
        {
          "name": "_size",
          "type": "uint256"
        }
      ],
      "name": "addFile",
      "outputs": [
        {
          "name": "",
          "type": "bool"
        }
      ],
      "payable": false,
      "stateMutability": "nonpayable",
      "type": "function"
    },
    {
      "constant": true,
      "inputs": [
        {
          "name": "name",
          "type": "string"
        }
      ],
      "name": "getFileByName",
      "outputs": [
        {
          "name": "_bzzHash",
          "type": "string"
        },
        {
          "name": "_size",
          "type": "uint256"
        }
      ],
      "payable": false,
      "stateMutability": "view",
      "type": "function"
    },
    {
      "constant": true,
      "inputs": [
        {
          "name": "bzzHash",
          "type": "string"
        }
      ],
      "name": "getFileByHash",
      "outputs": [
        {
          "name": "_size",
          "type": "uint256"
        },
        {
          "name": "_name",
          "type": "string"
        }
      ],
      "payable": false,
      "stateMutability": "view",
      "type": "function"
    },
    {
      "constant": true,
      "inputs": [
        {
          "name": "name",
          "type": "string"
        }
      ],
      "name": "getFileHashByName",
      "outputs": [
        {
          "name": "",
          "type": "string"
        }
      ],
      "payable": false,
      "stateMutability": "view",
      "type": "function"
    },
    {
      "constant": true,
      "inputs": [
        {
          "name": "index",
          "type": "uint256"
        }
      ],
      "name": "getFileHashByIndex",
      "outputs": [
        {
          "name": "",
          "type": "string"
        }
      ],
      "payable": false,
      "stateMutability": "view",
      "type": "function"
    },
    {
      "constant": false,
      "inputs": [],
      "name": "destroy",
      "outputs": [],
      "payable": false,
      "stateMutability": "nonpayable",
      "type": "function"
    }
  ],
  "bytecode": "0x608060405234801561001057600080fd5b50604051602080610ed28339810180604052810190808051906020019092919050505080600160006101000a81548173ffffffffffffffffffffffffffffffffffffffff021916908373ffffffffffffffffffffffffffffffffffffffff16021790555033600260006101000a81548173ffffffffffffffffffffffffffffffffffffffff021916908373ffffffffffffffffffffffffffffffffffffffff16021790555050610e0d806100c56000396000f300608060405260043610610099576000357c0100000000000000000000000000000000000000000000000000000000900463ffffffff16806309c6e3741461009e578063230b9da3146101875780632986c0e5146101de5780636aec95b61461020957806383197ef0146102605780638cfeeef61461027757806391a7f62014610348578063cecaf69e1461042a578063de490eaa14610513575b600080fd5b3480156100aa57600080fd5b50610105600480360381019080803590602001908201803590602001908080601f01602080910402602001604051908101604052809392919081815260200183838082843782019150505050505091929192905050506105b9565b6040518080602001838152602001828103825284818151815260200191508051906020019080838360005b8381101561014b578082015181840152602081019050610130565b50505050905090810190601f1680156101785780820380516001836020036101000a031916815260200191505b50935050505060405180910390f35b34801561019357600080fd5b5061019c610644565b604051808273ffffffffffffffffffffffffffffffffffffffff1673ffffffffffffffffffffffffffffffffffffffff16815260200191505060405180910390f35b3480156101ea57600080fd5b506101f361066a565b6040518082815260200191505060405180910390f35b34801561021557600080fd5b5061021e610670565b604051808273ffffffffffffffffffffffffffffffffffffffff1673ffffffffffffffffffffffffffffffffffffffff16815260200191505060405180910390f35b34801561026c57600080fd5b50610275610696565b005b34801561028357600080fd5b5061032e600480360381019080803590602001908201803590602001908080601f0160208091040260200160405190810160405280939291908181526020018383808284378201915050505050509192919290803590602001908201803590602001908080601f0160208091040260200160405190810160405280939291908181526020018383808284378201915050505050509192919290803590602001909291905050506106f6565b604051808215151515815260200191505060405180910390f35b34801561035457600080fd5b506103af600480360381019080803590602001908201803590602001908080601f016020809104026020016040519081016040528093929190818152602001838380828437820191505050505050919291929050505061095a565b6040518080602001828103825283818151815260200191508051906020019080838360005b838110156103ef5780820151818401526020810190506103d4565b50505050905090810190601f16801561041c5780820380516001836020036101000a031916815260200191505b509250505060405180910390f35b34801561043657600080fd5b50610491600480360381019080803590602001908201803590602001908080601f0160208091040260200160405190810160405280939291908181526020018383808284378201915050505050509192919290505050610a67565b6040518083815260200180602001828103825283818151815260200191508051906020019080838360005b838110156104d75780820151818401526020810190506104bc565b50505050905090810190601f1680156105045780820380516001836020036101000a031916815260200191505b50935050505060405180910390f35b34801561051f57600080fd5b5061053e60048036038101908080359060200190929190505050610bed565b6040518080602001828103825283818151815260200191508051906020019080838360005b8381101561057e578082015181840152602081019050610563565b50505050905090810190601f1680156105ab5780820380516001836020036101000a031916815260200191505b509250505060405180910390f35b6060600060606105c88461095a565b9050806003826040518082805190602001908083835b60208310151561060357805182526020820191506020810190506020830392506105de565b6001836020036101000a0380198251168184511680821785525050505050509050019150509081526020016040518091039020600001549250925050915091565b600260009054906101000a900473ffffffffffffffffffffffffffffffffffffffff1681565b60005481565b600160009054906101000a900473ffffffffffffffffffffffffffffffffffffffff1681565b600260009054906101000a900473ffffffffffffffffffffffffffffffffffffffff1673ffffffffffffffffffffffffffffffffffffffff163373ffffffffffffffffffffffffffffffffffffffff161415156106f257600080fd5b6000ff5b6000610700610ca2565b600260009054906101000a900473ffffffffffffffffffffffffffffffffffffffff1673ffffffffffffffffffffffffffffffffffffffff163373ffffffffffffffffffffffffffffffffffffffff161415156107eb576040517f08c379a000000000000000000000000000000000000000000000000000000000815260040180806020018281038252602a8152602001807f6f6e6c7920706172656e74436f6e74726163742063616e2063616c6c2074686981526020017f732066756e6374696f6e0000000000000000000000000000000000000000000081525060400191505060405180910390fd5b846004856040518082805190602001908083835b60208310151561082457805182526020820191506020810190506020830392506107ff565b6001836020036101000a0380198251168184511680821785525050505050509050019150509081526020016040518091039020908051906020019061086a929190610cbc565b508460056000805481526020019081526020016000209080519060200190610893929190610cbc565b50600080815480929190600101919050555082816000018181525050838160200181905250806003866040518082805190602001908083835b6020831015156108f157805182526020820191506020810190506020830392506108cc565b6001836020036101000a038019825116818451168082178552505050505050905001915050908152602001604051809103902060008201518160000155602082015181600101908051906020019061094a929190610d3c565b5090505060019150509392505050565b60606004826040518082805190602001908083835b602083101515610994578051825260208201915060208101905060208303925061096f565b6001836020036101000a03801982511681845116808217855250505050505090500191505090815260200160405180910390208054600181600116156101000203166002900480601f016020809104026020016040519081016040528092919081815260200182805460018160011615610100020316600290048015610a5b5780601f10610a3057610100808354040283529160200191610a5b565b820191906000526020600020905b815481529060010190602001808311610a3e57829003601f168201915b50505050509050919050565b600060606003836040518082805190602001908083835b602083101515610aa35780518252602082019150602081019050602083039250610a7e565b6001836020036101000a0380198251168184511680821785525050505050509050019150509081526020016040518091039020600001546003846040518082805190602001908083835b602083101515610b125780518252602082019150602081019050602083039250610aed565b6001836020036101000a0380198251168184511680821785525050505050509050019150509081526020016040518091039020600101808054600181600116156101000203166002900480601f016020809104026020016040519081016040528092919081815260200182805460018160011615610100020316600290048015610bdd5780601f10610bb257610100808354040283529160200191610bdd565b820191906000526020600020905b815481529060010190602001808311610bc057829003601f168201915b5050505050905091509150915091565b6060600560008381526020019081526020016000208054600181600116156101000203166002900480601f016020809104026020016040519081016040528092919081815260200182805460018160011615610100020316600290048015610c965780601f10610c6b57610100808354040283529160200191610c96565b820191906000526020600020905b815481529060010190602001808311610c7957829003601f168201915b50505050509050919050565b604080519081016040528060008152602001606081525090565b828054600181600116156101000203166002900490600052602060002090601f016020900481019282601f10610cfd57805160ff1916838001178555610d2b565b82800160010185558215610d2b579182015b82811115610d2a578251825591602001919060010190610d0f565b5b509050610d389190610dbc565b5090565b828054600181600116156101000203166002900490600052602060002090601f016020900481019282601f10610d7d57805160ff1916838001178555610dab565b82800160010185558215610dab579182015b82811115610daa578251825591602001919060010190610d8f565b5b509050610db89190610dbc565b5090565b610dde91905b80821115610dda576000816000905550600101610dc2565b5090565b905600a165627a7a723058207be51e31f348f5237b282c6c93277b65a02b66a6c63c7d177498f018125b5cbe0029",
  "source": "pragma solidity ^0.4.24;\n// import \"../SharedContracts/VuupleAdmins.sol\";\n\ncontract RenterFiles {\n   // enum BzzSchemas { RESOURCE,IMMUTABLE,HASH,LISTt ,RAW}\n        // VuupleAdmins private vuupleAdmin;\n\n    struct File{\n        //string BZZHash;\n        uint size;\n        string name;\n      //  string fileType;\n   //     BzzSchemas bzzSchema;\n      //  bool isDeleted;\n        // bool isEncrypted;\n        // string encryptedKey;\n    }\n    uint256 public index;\n    address public fileOwner;\n    address public parentContract;\n    // bool public burn=false;\n    mapping (string=>File) BzzHashToFileDetails;\n    mapping (string=>string) fileNameToBzzHash;\n    mapping (uint256=>string) indexToBzzHash;\n    // string[]BZZHash;\n    // uint index;\n\n    modifier onlyParentContract(){\n        require(msg.sender==parentContract, \"only parentContract can call this function\");\n        _;\n    }\n    constructor(address _fileOwner){\n        fileOwner = _fileOwner;\n        parentContract=msg.sender;\n    }\n    // modifier isBurnt{\n    //          require(!burn);\n    //                _;}\nfunction addFile(\n        string _bzzHash,\n        string _fileName,\n        uint _size) onlyParentContract returns (bool) {\n\n          fileNameToBzzHash[_fileName]= _bzzHash; \n          indexToBzzHash[index]= _bzzHash; \n          index++;\n          File memory newFile ;\n         \n          newFile.size=_size;\n          newFile.name=_fileName;\n       \n       // newFile.isDeleted=false;\n     \n          BzzHashToFileDetails[_bzzHash]= newFile; \n          return true;\n    \n}\n// function addFile(\n//         string _bzzHash,\n//         string _fileName,\n//         uint _size,\n//         string _fileType,\n//         uint _bzzSchema,\n//         bool _isEncrypted,\n//         string _encryptedKey) onlyParentContract returns (bool) {\n\n//           fileNameToBzzHash[_fileName]= _bzzHash; \n//           indexToBzzHash[index]= _bzzHash; \n//           index++;\n//           File memory newFile ;\n//           if(uint(BzzSchemas.RESOURCE)==_bzzSchema){\n//              newFile.bzzSchema=BzzSchemas.RESOURCE;\n//           }\n//           else if(uint(BzzSchemas.IMMUTABLE)==_bzzSchema){\n//              newFile.bzzSchema=BzzSchemas.IMMUTABLE;\n//           }\n//           else if(uint(BzzSchemas.HASH)==_bzzSchema){\n//              newFile.bzzSchema=BzzSchemas.HASH;\n//           }\n//          else if(uint(BzzSchemas.LISTt)==_bzzSchema){\n//              newFile.bzzSchema=BzzSchemas.LISTt;\n//           }\n//          else if(uint(BzzSchemas.RAW)==_bzzSchema){\n//              newFile.bzzSchema=BzzSchemas.RAW;\n//           }else{\n//               revert();\n//           }\n//           newFile.size=_size;\n//           newFile.name=_fileName;\n//         newFile.fileType=_fileType;\n       \n//         newFile.isDeleted=false;\n//         newFile.isEncrypted=_isEncrypted;\n//         newFile.encryptedKey=_encryptedKey;\n//           BzzHashToFileDetails[_bzzHash]= newFile; \n//           return true;\n    \n// }\nfunction getFileByName(string name) view returns(   \n    string _bzzHash,\n        uint _size\n  ){\n  string memory bzzHash =   getFileHashByName(name);\n  return (bzzHash,\n  BzzHashToFileDetails[bzzHash].size\n  );\n}\n\nfunction getFileByHash(string bzzHash) view returns( \n        uint _size,\n            string _name) {\n  return (\n  BzzHashToFileDetails[bzzHash].size,\n    BzzHashToFileDetails[bzzHash].name);\n}\n\nfunction getFileHashByName(string name) view returns (string) {\n    return fileNameToBzzHash[name];\n}\nfunction getFileHashByIndex(uint256 index) view returns (string) {\n    return indexToBzzHash[index];\n}\nfunction destroy() external {\n    require(msg.sender==parentContract  );\n    selfdestruct(0);\n}\n}",
  "sourcePath": "/home/ubuntu/Smart-Contracts/contracts/RentersContracts/RenterFiles.sol",
  "compiler": {
    "name": "solc",
    "version": "0.4.24+commit.e67f0147.Emscripten.clang"
  },
  "schemaVersion": "2.0.1",
  "updatedAt": "2019-09-20T09:33:08.729Z"
}