{
  "contractName": "RenterRegistration",
  "abi": [
    {
      "constant": true,
      "inputs": [],
      "name": "active",
      "outputs": [
        {
          "name": "",
          "type": "bool"
        }
      ],
      "payable": false,
      "stateMutability": "view",
      "type": "function"
    },
    {
      "constant": true,
      "inputs": [],
      "name": "banned",
      "outputs": [
        {
          "name": "",
          "type": "bool"
        }
      ],
      "payable": false,
      "stateMutability": "view",
      "type": "function"
    },
    {
      "constant": true,
      "inputs": [],
      "name": "membershipType",
      "outputs": [
        {
          "name": "",
          "type": "uint8"
        }
      ],
      "payable": false,
      "stateMutability": "view",
      "type": "function"
    },
    {
      "constant": true,
      "inputs": [
        {
          "name": "timestamp",
          "type": "uint256"
        }
      ],
      "name": "getHour",
      "outputs": [
        {
          "name": "",
          "type": "uint8"
        }
      ],
      "payable": false,
      "stateMutability": "pure",
      "type": "function"
    },
    {
      "constant": true,
      "inputs": [
        {
          "name": "timestamp",
          "type": "uint256"
        }
      ],
      "name": "getWeekday",
      "outputs": [
        {
          "name": "",
          "type": "uint8"
        }
      ],
      "payable": false,
      "stateMutability": "pure",
      "type": "function"
    },
    {
      "constant": true,
      "inputs": [],
      "name": "renteredStorage",
      "outputs": [
        {
          "name": "",
          "type": "uint256"
        }
      ],
      "payable": false,
      "stateMutability": "view",
      "type": "function"
    },
    {
      "constant": true,
      "inputs": [
        {
          "name": "year",
          "type": "uint16"
        },
        {
          "name": "month",
          "type": "uint8"
        },
        {
          "name": "day",
          "type": "uint8"
        },
        {
          "name": "hour",
          "type": "uint8"
        },
        {
          "name": "minute",
          "type": "uint8"
        }
      ],
      "name": "toTimestamp",
      "outputs": [
        {
          "name": "timestamp",
          "type": "uint256"
        }
      ],
      "payable": false,
      "stateMutability": "pure",
      "type": "function"
    },
    {
      "constant": true,
      "inputs": [
        {
          "name": "timestamp",
          "type": "uint256"
        }
      ],
      "name": "getDay",
      "outputs": [
        {
          "name": "",
          "type": "uint8"
        }
      ],
      "payable": false,
      "stateMutability": "pure",
      "type": "function"
    },
    {
      "constant": true,
      "inputs": [],
      "name": "renewalDate",
      "outputs": [
        {
          "name": "",
          "type": "uint256"
        }
      ],
      "payable": false,
      "stateMutability": "view",
      "type": "function"
    },
    {
      "constant": true,
      "inputs": [
        {
          "name": "year",
          "type": "uint16"
        },
        {
          "name": "month",
          "type": "uint8"
        },
        {
          "name": "day",
          "type": "uint8"
        },
        {
          "name": "hour",
          "type": "uint8"
        }
      ],
      "name": "toTimestamp",
      "outputs": [
        {
          "name": "timestamp",
          "type": "uint256"
        }
      ],
      "payable": false,
      "stateMutability": "pure",
      "type": "function"
    },
    {
      "constant": true,
      "inputs": [
        {
          "name": "timestamp",
          "type": "uint256"
        }
      ],
      "name": "getSecond",
      "outputs": [
        {
          "name": "",
          "type": "uint8"
        }
      ],
      "payable": false,
      "stateMutability": "pure",
      "type": "function"
    },
    {
      "constant": true,
      "inputs": [
        {
          "name": "year",
          "type": "uint16"
        },
        {
          "name": "month",
          "type": "uint8"
        },
        {
          "name": "day",
          "type": "uint8"
        }
      ],
      "name": "toTimestamp",
      "outputs": [
        {
          "name": "timestamp",
          "type": "uint256"
        }
      ],
      "payable": false,
      "stateMutability": "pure",
      "type": "function"
    },
    {
      "constant": true,
      "inputs": [
        {
          "name": "year",
          "type": "uint16"
        },
        {
          "name": "month",
          "type": "uint8"
        },
        {
          "name": "day",
          "type": "uint8"
        },
        {
          "name": "hour",
          "type": "uint8"
        },
        {
          "name": "minute",
          "type": "uint8"
        },
        {
          "name": "second",
          "type": "uint8"
        }
      ],
      "name": "toTimestamp",
      "outputs": [
        {
          "name": "timestamp",
          "type": "uint256"
        }
      ],
      "payable": false,
      "stateMutability": "pure",
      "type": "function"
    },
    {
      "constant": true,
      "inputs": [
        {
          "name": "timestamp",
          "type": "uint256"
        }
      ],
      "name": "getYear",
      "outputs": [
        {
          "name": "",
          "type": "uint16"
        }
      ],
      "payable": false,
      "stateMutability": "pure",
      "type": "function"
    },
    {
      "constant": true,
      "inputs": [
        {
          "name": "timestamp",
          "type": "uint256"
        }
      ],
      "name": "getMonth",
      "outputs": [
        {
          "name": "",
          "type": "uint8"
        }
      ],
      "payable": false,
      "stateMutability": "pure",
      "type": "function"
    },
    {
      "constant": true,
      "inputs": [
        {
          "name": "year",
          "type": "uint16"
        }
      ],
      "name": "isLeapYear",
      "outputs": [
        {
          "name": "",
          "type": "bool"
        }
      ],
      "payable": false,
      "stateMutability": "pure",
      "type": "function"
    },
    {
      "constant": true,
      "inputs": [
        {
          "name": "year",
          "type": "uint256"
        }
      ],
      "name": "leapYearsBefore",
      "outputs": [
        {
          "name": "",
          "type": "uint256"
        }
      ],
      "payable": false,
      "stateMutability": "pure",
      "type": "function"
    },
    {
      "constant": true,
      "inputs": [
        {
          "name": "month",
          "type": "uint8"
        },
        {
          "name": "year",
          "type": "uint16"
        }
      ],
      "name": "getDaysInMonth",
      "outputs": [
        {
          "name": "",
          "type": "uint8"
        }
      ],
      "payable": false,
      "stateMutability": "pure",
      "type": "function"
    },
    {
      "constant": true,
      "inputs": [],
      "name": "registerDate",
      "outputs": [
        {
          "name": "",
          "type": "uint256"
        }
      ],
      "payable": false,
      "stateMutability": "view",
      "type": "function"
    },
    {
      "constant": true,
      "inputs": [],
      "name": "contractOwner",
      "outputs": [
        {
          "name": "",
          "type": "address"
        }
      ],
      "payable": false,
      "stateMutability": "view",
      "type": "function"
    },
    {
      "constant": true,
      "inputs": [],
      "name": "escrow",
      "outputs": [
        {
          "name": "",
          "type": "address"
        }
      ],
      "payable": false,
      "stateMutability": "view",
      "type": "function"
    },
    {
      "constant": true,
      "inputs": [],
      "name": "usedStorage",
      "outputs": [
        {
          "name": "",
          "type": "uint256"
        }
      ],
      "payable": false,
      "stateMutability": "view",
      "type": "function"
    },
    {
      "constant": true,
      "inputs": [],
      "name": "tokenAmount",
      "outputs": [
        {
          "name": "",
          "type": "uint256"
        }
      ],
      "payable": false,
      "stateMutability": "view",
      "type": "function"
    },
    {
      "constant": true,
      "inputs": [],
      "name": "currentStatus",
      "outputs": [
        {
          "name": "",
          "type": "uint8"
        }
      ],
      "payable": false,
      "stateMutability": "view",
      "type": "function"
    },
    {
      "constant": true,
      "inputs": [
        {
          "name": "timestamp",
          "type": "uint256"
        }
      ],
      "name": "getMinute",
      "outputs": [
        {
          "name": "",
          "type": "uint8"
        }
      ],
      "payable": false,
      "stateMutability": "pure",
      "type": "function"
    },
    {
      "inputs": [
        {
          "name": "_type",
          "type": "uint256"
        },
        {
          "name": "_adminAddress",
          "type": "address"
        },
        {
          "name": "_vuupleToken",
          "type": "address"
        },
        {
          "name": "_sender",
          "type": "address"
        }
      ],
      "payable": false,
      "stateMutability": "nonpayable",
      "type": "constructor"
    },
    {
      "constant": false,
      "inputs": [
        {
          "name": "_renteredStorage",
          "type": "uint256"
        }
      ],
      "name": "renewSubscription",
      "outputs": [
        {
          "name": "",
          "type": "bool"
        }
      ],
      "payable": false,
      "stateMutability": "nonpayable",
      "type": "function"
    },
    {
      "constant": false,
      "inputs": [
        {
          "name": "_bzzHash",
          "type": "string"
        },
        {
          "name": "_fileName",
          "type": "string"
        },
        {
          "name": "_size",
          "type": "uint256"
        }
      ],
      "name": "addFileToStorage",
      "outputs": [
        {
          "name": "",
          "type": "bool"
        }
      ],
      "payable": false,
      "stateMutability": "nonpayable",
      "type": "function"
    },
    {
      "constant": false,
      "inputs": [],
      "name": "completeSubscription",
      "outputs": [
        {
          "name": "",
          "type": "bool"
        }
      ],
      "payable": false,
      "stateMutability": "nonpayable",
      "type": "function"
    },
    {
      "constant": true,
      "inputs": [],
      "name": "getBalance",
      "outputs": [
        {
          "name": "",
          "type": "uint256"
        }
      ],
      "payable": false,
      "stateMutability": "view",
      "type": "function"
    },
    {
      "constant": false,
      "inputs": [
        {
          "name": "status",
          "type": "bool"
        }
      ],
      "name": "setActiveStatus",
      "outputs": [
        {
          "name": "",
          "type": "bool"
        }
      ],
      "payable": false,
      "stateMutability": "nonpayable",
      "type": "function"
    },
    {
      "constant": false,
      "inputs": [
        {
          "name": "status",
          "type": "bool"
        }
      ],
      "name": "setBanStatus",
      "outputs": [
        {
          "name": "",
          "type": "bool"
        }
      ],
      "payable": false,
      "stateMutability": "nonpayable",
      "type": "function"
    },
    {
      "constant": false,
      "inputs": [],
      "name": "getRenterFiles",
      "outputs": [
        {
          "name": "",
          "type": "address"
        }
      ],
      "payable": false,
      "stateMutability": "nonpayable",
      "type": "function"
    }
  ],
  "bytecode": "0x608060405260006008556001600a60006101000a81548160ff021916908360018111156200002957fe5b02179055506001600a60016101000a81548160ff0219169083151502179055506000600a60026101000a81548160ff0219169083151502179055503480156200007157600080fd5b50604051608080620042cf83398101806040528101908080519060200190929190805190602001909291908051906020019092919080519060200190929190505050806000806101000a81548173ffffffffffffffffffffffffffffffffffffffff021916908373ffffffffffffffffffffffffffffffffffffffff16021790555082600160006101000a81548173ffffffffffffffffffffffffffffffffffffffff021916908373ffffffffffffffffffffffffffffffffffffffff16021790555081600360006101000a81548173ffffffffffffffffffffffffffffffffffffffff021916908373ffffffffffffffffffffffffffffffffffffffff16021790555042600681905550836001808111156200018a57fe5b1480620001a357508360006001811115620001a157fe5b145b1515620001af57600080fd5b83600180811115620001bd57fe5b141562000223576001600460146101000a81548160ff02191690836001811115620001e457fe5b021790555060056007819055506200021760046007546200029e6401000000000262002725179091906401000000009004565b60098190555062000294565b83600060018111156200023257fe5b141562000293576000600460146101000a81548160ff021916908360018111156200025957fe5b0217905550600a6007819055506200028c60036007546200029e6401000000000262002725179091906401000000009004565b6009819055505b5b50505050620002e0565b6000806000841415620002b55760009150620002d9565b8284029050828482811515620002c757fe5b04141515620002d557600080fd5b8091505b5092915050565b613fdf80620002f06000396000f300608060405260043610620001b7576000357c0100000000000000000000000000000000000000000000000000000000900463ffffffff16806302fb0c5e14620001bc5780630d4786b914620001ee57806312065fe01462000238578063158fba8f14620002665780633667e1ba14620002985780633e239e1a14620002d55780634ac1ad78146200031f578063553d3ee414620003695780635991d59914620003c35780635d5ea5f614620003f157806362ba968714620004c557806365c7284014620005415780637c1ad292146200058b5780637f79183314620005b9578063815428e914620006285780638aa001fc146200065a5780638c8d98a014620006a45780639054bdec146200070657806392d66313146200078f578063a324ad2414620007db578063a6f0e5771462000825578063b19999371462000871578063b238ad0e14620008b5578063c642f6941462000910578063ce606ee0146200093e578063d71bb37b1462000998578063e2fdcc1714620009e0578063ea2700b21462000a3a578063ec7404b11462000a68578063eec7faa11462000ab2578063ef8a92351462000ae0578063fa93f8831462000b1d575b600080fd5b348015620001c957600080fd5b50620001d462000b67565b604051808215151515815260200191505060405180910390f35b348015620001fb57600080fd5b506200021e60048036038101908080351515906020019092919050505062000b7a565b604051808215151515815260200191505060405180910390f35b3480156200024557600080fd5b506200025062000f36565b6040518082815260200191505060405180910390f35b3480156200027357600080fd5b506200027e62001094565b604051808215151515815260200191505060405180910390f35b348015620002a557600080fd5b50620002b0620010a7565b60405180826001811115620002c157fe5b60ff16815260200191505060405180910390f35b348015620002e257600080fd5b506200030360048036038101908080359060200190929190505050620010ba565b604051808260ff1660ff16815260200191505060405180910390f35b3480156200032c57600080fd5b506200034d60048036038101908080359060200190929190505050620010ea565b604051808260ff1660ff16815260200191505060405180910390f35b3480156200037657600080fd5b506200038162001113565b604051808273ffffffffffffffffffffffffffffffffffffffff1673ffffffffffffffffffffffffffffffffffffffff16815260200191505060405180910390f35b348015620003d057600080fd5b50620003db6200129c565b6040518082815260200191505060405180910390f35b348015620003fe57600080fd5b50620004ab600480360381019080803590602001908201803590602001908080601f0160208091040260200160405190810160405280939291908181526020018383808284378201915050505050509192919290803590602001908201803590602001908080601f016020809104026020016040519081016040528093929190818152602001838380828437820191505050505050919291929080359060200190929190505050620012a2565b604051808215151515815260200191505060405180910390f35b348015620004d257600080fd5b506200052b600480360381019080803561ffff169060200190929190803560ff169060200190929190803560ff169060200190929190803560ff169060200190929190803560ff16906020019092919050505062001551565b6040518082815260200191505060405180910390f35b3480156200054e57600080fd5b506200056f600480360381019080803590602001909291905050506200156f565b604051808260ff1660ff16815260200191505060405180910390f35b3480156200059857600080fd5b50620005a362001587565b6040518082815260200191505060405180910390f35b348015620005c657600080fd5b5062000612600480360381019080803561ffff169060200190929190803560ff169060200190929190803560ff169060200190929190803560ff1690602001909291905050506200158d565b6040518082815260200191505060405180910390f35b3480156200063557600080fd5b5062000640620015aa565b604051808215151515815260200191505060405180910390f35b3480156200066757600080fd5b50620006886004803603810190808035906020019092919050505062001a10565b604051808260ff1660ff16815260200191505060405180910390f35b348015620006b157600080fd5b50620006f0600480360381019080803561ffff169060200190929190803560ff169060200190929190803560ff16906020019092919050505062001a27565b6040518082815260200191505060405180910390f35b3480156200071357600080fd5b5062000779600480360381019080803561ffff169060200190929190803560ff169060200190929190803560ff169060200190929190803560ff169060200190929190803560ff169060200190929190803560ff16906020019092919050505062001a44565b6040518082815260200191505060405180910390f35b3480156200079c57600080fd5b50620007bd6004803603810190808035906020019092919050505062001d07565b604051808261ffff1661ffff16815260200191505060405180910390f35b348015620007e857600080fd5b50620008096004803603810190808035906020019092919050505062001dbd565b604051808260ff1660ff16815260200191505060405180910390f35b3480156200083257600080fd5b5062000857600480360381019080803561ffff16906020019092919050505062001dd5565b604051808215151515815260200191505060405180910390f35b3480156200087e57600080fd5b506200089f6004803603810190808035906020019092919050505062001e5f565b6040518082815260200191505060405180910390f35b348015620008c257600080fd5b50620008f4600480360381019080803560ff169060200190929190803561ffff16906020019092919050505062001e9b565b604051808260ff1660ff16815260200191505060405180910390f35b3480156200091d57600080fd5b506200092862001f78565b6040518082815260200191505060405180910390f35b3480156200094b57600080fd5b506200095662001f7e565b604051808273ffffffffffffffffffffffffffffffffffffffff1673ffffffffffffffffffffffffffffffffffffffff16815260200191505060405180910390f35b348015620009a557600080fd5b50620009c66004803603810190808035906020019092919050505062001fa3565b604051808215151515815260200191505060405180910390f35b348015620009ed57600080fd5b50620009f862002144565b604051808273ffffffffffffffffffffffffffffffffffffffff1673ffffffffffffffffffffffffffffffffffffffff16815260200191505060405180910390f35b34801562000a4757600080fd5b5062000a526200216a565b6040518082815260200191505060405180910390f35b34801562000a7557600080fd5b5062000a9860048036038101908080351515906020019092919050505062002170565b604051808215151515815260200191505060405180910390f35b34801562000abf57600080fd5b5062000aca6200246a565b6040518082815260200191505060405180910390f35b34801562000aed57600080fd5b5062000af862002470565b6040518082600181111562000b0957fe5b60ff16815260200191505060405180910390f35b34801562000b2a57600080fd5b5062000b4b6004803603810190808035906020019092919050505062002483565b604051808260ff1660ff16815260200191505060405180910390f35b600a60019054906101000a900460ff1681565b6000600160009054906101000a900473ffffffffffffffffffffffffffffffffffffffff1673ffffffffffffffffffffffffffffffffffffffff166347a6fa60336040518263ffffffff167c0100000000000000000000000000000000000000000000000000000000028152600401808273ffffffffffffffffffffffffffffffffffffffff1673ffffffffffffffffffffffffffffffffffffffff168152602001915050602060405180830381600087803b15801562000c3a57600080fd5b505af115801562000c4f573d6000803e3d6000fd5b505050506040513d602081101562000c6657600080fd5b8101908080519060200190929190505050151562000c8357600080fd5b81600a60026101000a81548160ff0219169083151502179055508115600a60016101000a81548160ff02191690831515021790555081600a60016101000a81548160ff0219169083151502179055506000600581905550811562000f2257600260009054906101000a900473ffffffffffffffffffffffffffffffffffffffff1673ffffffffffffffffffffffffffffffffffffffff166383197ef06040518163ffffffff167c0100000000000000000000000000000000000000000000000000000000028152600401600060405180830381600087803b15801562000d6857600080fd5b505af115801562000d7d573d6000803e3d6000fd5b50505050600460009054906101000a900473ffffffffffffffffffffffffffffffffffffffff1673ffffffffffffffffffffffffffffffffffffffff166322f3e2d46040518163ffffffff167c0100000000000000000000000000000000000000000000000000000000028152600401602060405180830381600087803b15801562000e0857600080fd5b505af115801562000e1d573d6000803e3d6000fd5b505050506040513d602081101562000e3457600080fd5b81019080805190602001909291905050501562000f1c57600460009054906101000a900473ffffffffffffffffffffffffffffffffffffffff1673ffffffffffffffffffffffffffffffffffffffff1663c163de3d6040518163ffffffff167c0100000000000000000000000000000000000000000000000000000000028152600401602060405180830381600087803b15801562000ed257600080fd5b505af115801562000ee7573d6000803e3d6000fd5b505050506040513d602081101562000efe57600080fd5b8101908080519060200190929190505050151562000f1b57600080fd5b5b62000f2d565b62000f2c620024a6565b5b60019050919050565b60003373ffffffffffffffffffffffffffffffffffffffff166000809054906101000a900473ffffffffffffffffffffffffffffffffffffffff1673ffffffffffffffffffffffffffffffffffffffff1614151562000f9457600080fd5b600360009054906101000a900473ffffffffffffffffffffffffffffffffffffffff1673ffffffffffffffffffffffffffffffffffffffff166370a08231306040518263ffffffff167c0100000000000000000000000000000000000000000000000000000000028152600401808273ffffffffffffffffffffffffffffffffffffffff1673ffffffffffffffffffffffffffffffffffffffff168152602001915050602060405180830381600087803b1580156200105257600080fd5b505af115801562001067573d6000803e3d6000fd5b505050506040513d60208110156200107e57600080fd5b8101908080519060200190929190505050905090565b600a60029054906101000a900460ff1681565b600460149054906101000a900460ff1681565b60006018603c8084811515620010cc57fe5b04811515620010d757fe5b04811515620010e257fe5b069050919050565b6000600760046201518084811515620010ff57fe5b04018115156200110b57fe5b069050919050565b6000600160009054906101000a900473ffffffffffffffffffffffffffffffffffffffff1673ffffffffffffffffffffffffffffffffffffffff166347a6fa60336040518263ffffffff167c0100000000000000000000000000000000000000000000000000000000028152600401808273ffffffffffffffffffffffffffffffffffffffff1673ffffffffffffffffffffffffffffffffffffffff168152602001915050602060405180830381600087803b158015620011d357600080fd5b505af1158015620011e8573d6000803e3d6000fd5b505050506040513d6020811015620011ff57600080fd5b8101908080519060200190929190505050806200126857503373ffffffffffffffffffffffffffffffffffffffff166000809054906101000a900473ffffffffffffffffffffffffffffffffffffffff1673ffffffffffffffffffffffffffffffffffffffff16145b15156200127457600080fd5b600260009054906101000a900473ffffffffffffffffffffffffffffffffffffffff16905090565b60075481565b60003373ffffffffffffffffffffffffffffffffffffffff166000809054906101000a900473ffffffffffffffffffffffffffffffffffffffff1673ffffffffffffffffffffffffffffffffffffffff161415156200130057600080fd5b600a60029054906101000a900460ff161515156200131d57600080fd5b600a60019054906101000a900460ff1615156200133957600080fd5b600060018111156200134757fe5b600a60009054906101000a900460ff1660018111156200136357fe5b1415156200137057600080fd5b6007548260085401111515156200138657600080fd5b81600860008282540192505081905550600260009054906101000a900473ffffffffffffffffffffffffffffffffffffffff1673ffffffffffffffffffffffffffffffffffffffff16638cfeeef68585856040518463ffffffff167c0100000000000000000000000000000000000000000000000000000000028152600401808060200180602001848152602001838103835286818151815260200191508051906020019080838360005b838110156200144e57808201518184015260208101905062001431565b50505050905090810190601f1680156200147c5780820380516001836020036101000a031916815260200191505b50838103825285818151815260200191508051906020019080838360005b83811015620014b75780820151818401526020810190506200149a565b50505050905090810190601f168015620014e55780820380516001836020036101000a031916815260200191505b5095505050505050602060405180830381600087803b1580156200150857600080fd5b505af11580156200151d573d6000803e3d6000fd5b505050506040513d60208110156200153457600080fd5b810190808051906020019092919050505050600190509392505050565b6000620015648686868686600062001a44565b905095945050505050565b60006200157c8262002568565b604001519050919050565b60055481565b6000620015a08585858560008062001a44565b9050949350505050565b60003373ffffffffffffffffffffffffffffffffffffffff166000809054906101000a900473ffffffffffffffffffffffffffffffffffffffff1673ffffffffffffffffffffffffffffffffffffffff161415156200160857600080fd5b60006005541415156200161a57600080fd5b600954600360009054906101000a900473ffffffffffffffffffffffffffffffffffffffff1673ffffffffffffffffffffffffffffffffffffffff166370a08231306040518263ffffffff167c0100000000000000000000000000000000000000000000000000000000028152600401808273ffffffffffffffffffffffffffffffffffffffff1673ffffffffffffffffffffffffffffffffffffffff168152602001915050602060405180830381600087803b158015620016db57600080fd5b505af1158015620016f0573d6000803e3d6000fd5b505050506040513d60208110156200170757600080fd5b8101908080519060200190929190505050101515156200172657600080fd5b62278d0042016005819055506200173c620024a6565b600160009054906101000a900473ffffffffffffffffffffffffffffffffffffffff16600360009054906101000a900473ffffffffffffffffffffffffffffffffffffffff166005546009546000809054906101000a900473ffffffffffffffffffffffffffffffffffffffff16620017b462002767565b808673ffffffffffffffffffffffffffffffffffffffff1673ffffffffffffffffffffffffffffffffffffffff1681526020018573ffffffffffffffffffffffffffffffffffffffff1673ffffffffffffffffffffffffffffffffffffffff1681526020018481526020018381526020018273ffffffffffffffffffffffffffffffffffffffff1673ffffffffffffffffffffffffffffffffffffffff16815260200195505050505050604051809103906000f0801580156200187b573d6000803e3d6000fd5b50600460006101000a81548173ffffffffffffffffffffffffffffffffffffffff021916908373ffffffffffffffffffffffffffffffffffffffff160217905550600360009054906101000a900473ffffffffffffffffffffffffffffffffffffffff1673ffffffffffffffffffffffffffffffffffffffff1663a9059cbb600460009054906101000a900473ffffffffffffffffffffffffffffffffffffffff166009546040518363ffffffff167c0100000000000000000000000000000000000000000000000000000000028152600401808373ffffffffffffffffffffffffffffffffffffffff1673ffffffffffffffffffffffffffffffffffffffff16815260200182815260200192505050602060405180830381600087803b158015620019a657600080fd5b505af1158015620019bb573d6000803e3d6000fd5b505050506040513d6020811015620019d257600080fd5b8101908080519060200190929190505050506000600a60006101000a81548160ff0219169083600181111562001a0457fe5b02179055506001905090565b6000603c8281151562001a1f57fe5b069050919050565b600062001a3b848484600080600062001a44565b90509392505050565b60008062001a5162002778565b6107b291505b8861ffff168261ffff16101562001aa05762001a738262001dd5565b1562001a88576301e285008301925062001a92565b6301e13380830192505b818060010192505062001a57565b601f816000600c8110151562001ab257fe5b602002019060ff16908160ff168152505062001ace8962001dd5565b1562001afd57601d816001600c8110151562001ae657fe5b602002019060ff16908160ff168152505062001b21565b601c816001600c8110151562001b0f57fe5b602002019060ff16908160ff16815250505b601f816002600c8110151562001b3357fe5b602002019060ff16908160ff1681525050601e816003600c8110151562001b5657fe5b602002019060ff16908160ff1681525050601f816004600c8110151562001b7957fe5b602002019060ff16908160ff1681525050601e816005600c8110151562001b9c57fe5b602002019060ff16908160ff1681525050601f816006600c8110151562001bbf57fe5b602002019060ff16908160ff1681525050601f816007600c8110151562001be257fe5b602002019060ff16908160ff1681525050601e816008600c8110151562001c0557fe5b602002019060ff16908160ff1681525050601f816009600c8110151562001c2857fe5b602002019060ff16908160ff1681525050601e81600a600c8110151562001c4b57fe5b602002019060ff16908160ff1681525050601f81600b600c8110151562001c6e57fe5b602002019060ff16908160ff1681525050600191505b8760ff168261ffff16101562001cc957806001830361ffff16600c8110151562001caa57fe5b602002015160ff16620151800283019250818060010192505062001c84565b6001870360ff166201518002830192508560ff16610e1002830192508460ff16603c02830192508360ff168301925082925050509695505050505050565b600080600080600092506301e133808581151562001d2157fe5b046107b261ffff1601915062001d3d6107b261ffff1662001e5f565b62001d4c8361ffff1662001e5f565b039050806301e285000283019250806107b2830361ffff16036301e1338002830192505b8483111562001db25762001d876001830362001dd5565b1562001d9c576301e285008303925062001da6565b6301e13380830392505b60018203915062001d70565b819350505050919050565b600062001dca8262002568565b602001519050919050565b60008060048361ffff1681151562001de957fe5b0661ffff1614151562001e00576000905062001e5a565b600060648361ffff1681151562001e1357fe5b0661ffff1614151562001e2a576001905062001e5a565b60006101908361ffff1681151562001e3e57fe5b0661ffff1614151562001e55576000905062001e5a565b600190505b919050565b60006001820391506101908281151562001e7557fe5b0460648381151562001e8357fe5b0460048481151562001e9157fe5b0403019050919050565b600060018360ff16148062001eb3575060038360ff16145b8062001ec2575060058360ff16145b8062001ed1575060078360ff16145b8062001ee0575060088360ff16145b8062001eef5750600a8360ff16145b8062001efe5750600c8360ff16145b1562001f0e57601f905062001f72565b60048360ff16148062001f24575060068360ff16145b8062001f33575060098360ff16145b8062001f425750600b8360ff16145b1562001f5257601e905062001f72565b62001f5d8262001dd5565b1562001f6d57601d905062001f72565b601c90505b92915050565b60065481565b6000809054906101000a900473ffffffffffffffffffffffffffffffffffffffff1681565b60003373ffffffffffffffffffffffffffffffffffffffff166000809054906101000a900473ffffffffffffffffffffffffffffffffffffffff1673ffffffffffffffffffffffffffffffffffffffff161415156200200157600080fd5b600554421115156200201257600080fd5b600a60029054906101000a900460ff161515156200202f57600080fd5b81600781905550600460149054906101000a900460ff1660018111156200205257fe5b6001808111156200205f57fe5b14156200208a576200207e60046007546200272590919063ffffffff16565b600981905550620020db565b600460149054906101000a900460ff166001811115620020a657fe5b60006001811115620020b457fe5b1415620020da57620020d360036007546200272590919063ffffffff16565b6009819055505b5b6001600a60006101000a81548160ff02191690836001811115620020fb57fe5b02179055506000600581905550600a60019054906101000a900460ff1615156200213b576001600a60016101000a81548160ff0219169083151502179055505b60019050919050565b600460009054906101000a900473ffffffffffffffffffffffffffffffffffffffff1681565b60085481565b60003373ffffffffffffffffffffffffffffffffffffffff166000809054906101000a900473ffffffffffffffffffffffffffffffffffffffff1673ffffffffffffffffffffffffffffffffffffffff16141515620021ce57600080fd5b600a60029054906101000a900460ff16151515620021eb57600080fd5b81600a60016101000a81548160ff02191690831515021790555060006005819055508115156200245657600260009054906101000a900473ffffffffffffffffffffffffffffffffffffffff1673ffffffffffffffffffffffffffffffffffffffff166383197ef06040518163ffffffff167c0100000000000000000000000000000000000000000000000000000000028152600401600060405180830381600087803b1580156200229c57600080fd5b505af1158015620022b1573d6000803e3d6000fd5b50505050600460009054906101000a900473ffffffffffffffffffffffffffffffffffffffff1673ffffffffffffffffffffffffffffffffffffffff166322f3e2d46040518163ffffffff167c0100000000000000000000000000000000000000000000000000000000028152600401602060405180830381600087803b1580156200233c57600080fd5b505af115801562002351573d6000803e3d6000fd5b505050506040513d60208110156200236857600080fd5b8101908080519060200190929190505050156200245057600460009054906101000a900473ffffffffffffffffffffffffffffffffffffffff1673ffffffffffffffffffffffffffffffffffffffff1663c163de3d6040518163ffffffff167c0100000000000000000000000000000000000000000000000000000000028152600401602060405180830381600087803b1580156200240657600080fd5b505af11580156200241b573d6000803e3d6000fd5b505050506040513d60208110156200243257600080fd5b810190808051906020019092919050505015156200244f57600080fd5b5b62002461565b62002460620024a6565b5b60019050919050565b60095481565b600a60009054906101000a900460ff1681565b6000603c80838115156200249357fe5b048115156200249e57fe5b069050919050565b6000809054906101000a900473ffffffffffffffffffffffffffffffffffffffff16620024d26200279c565b808273ffffffffffffffffffffffffffffffffffffffff1673ffffffffffffffffffffffffffffffffffffffff168152602001915050604051809103906000f08015801562002525573d6000803e3d6000fd5b50600260006101000a81548173ffffffffffffffffffffffffffffffffffffffff021916908373ffffffffffffffffffffffffffffffffffffffff160217905550565b62002572620027ad565b60008060008060009350620025878662001d07565b856000019061ffff16908161ffff1681525050620025ab6107b261ffff1662001e5f565b620025be866000015161ffff1662001e5f565b039250826301e285000284019350826107b286600001510361ffff16036301e133800284019350600191505b600c8260ff1611151562002648576200260882866000015162001e9b565b60ff1662015180029050858482011115620026355781856020019060ff16908160ff168152505062002648565b80840193508180600101925050620025ea565b600191505b620026618560200151866000015162001e9b565b60ff168260ff16111515620026ac57858462015180011115620026965781856040019060ff16908160ff1681525050620026ac565b620151808401935081806001019250506200264d565b620026b786620010ba565b856060019060ff16908160ff1681525050620026d38662002483565b856080019060ff16908160ff1681525050620026ef8662001a10565b8560a0019060ff16908160ff16815250506200270b86620010ea565b8560c0019060ff16908160ff168152505050505050919050565b60008060008414156200273c576000915062002760565b82840290508284828115156200274e57fe5b041415156200275c57600080fd5b8091505b5092915050565b6040516108e0806200280283390190565b61018060405190810160405280600c90602082028038833980820191505090505090565b604051610ed280620030e283390190565b60e060405190810160405280600061ffff168152602001600060ff168152602001600060ff168152602001600060ff168152602001600060ff168152602001600060ff168152602001600060ff16815250905600608060405234801561001057600080fd5b5060405160a0806108e0833981018060405281019080805190602001909291908051906020019092919080519060200190929190805190602001909291908051906020019092919050505084600560006101000a81548173ffffffffffffffffffffffffffffffffffffffff021916908373ffffffffffffffffffffffffffffffffffffffff160217905550836000806101000a81548173ffffffffffffffffffffffffffffffffffffffff021916908373ffffffffffffffffffffffffffffffffffffffff160217905550826001819055508160048190555080600360006101000a81548173ffffffffffffffffffffffffffffffffffffffff021916908373ffffffffffffffffffffffffffffffffffffffff16021790555060008060146101000a81548160ff0219169083600281111561014957fe5b021790555033600260006101000a81548173ffffffffffffffffffffffffffffffffffffffff021916908373ffffffffffffffffffffffffffffffffffffffff160217905550505050505061073d806101a36000396000f3006080604052600436106100a4576000357c0100000000000000000000000000000000000000000000000000000000900463ffffffff16806318609960146100a957806322b43c84146100e257806322f3e2d4146101395780632e88ab0b146101685780633ccfd60b146101bf578063627749e6146101ee578063a201ce9c14610219578063c163de3d14610270578063c327c1351461029f578063eec7faa1146102f6575b600080fd5b3480156100b557600080fd5b506100be610321565b604051808260028111156100ce57fe5b60ff16815260200191505060405180910390f35b3480156100ee57600080fd5b506100f7610334565b604051808273ffffffffffffffffffffffffffffffffffffffff1673ffffffffffffffffffffffffffffffffffffffff16815260200191505060405180910390f35b34801561014557600080fd5b5061014e61035a565b604051808215151515815260200191505060405180910390f35b34801561017457600080fd5b5061017d610397565b604051808273ffffffffffffffffffffffffffffffffffffffff1673ffffffffffffffffffffffffffffffffffffffff16815260200191505060405180910390f35b3480156101cb57600080fd5b506101d46103bd565b604051808215151515815260200191505060405180910390f35b3480156101fa57600080fd5b5061020361053e565b6040518082815260200191505060405180910390f35b34801561022557600080fd5b5061022e610544565b604051808273ffffffffffffffffffffffffffffffffffffffff1673ffffffffffffffffffffffffffffffffffffffff16815260200191505060405180910390f35b34801561027c57600080fd5b5061028561056a565b604051808215151515815260200191505060405180910390f35b3480156102ab57600080fd5b506102b4610633565b604051808273ffffffffffffffffffffffffffffffffffffffff1673ffffffffffffffffffffffffffffffffffffffff16815260200191505060405180910390f35b34801561030257600080fd5b5061030b610658565b6040518082815260200191505060405180910390f35b600060149054906101000a900460ff1681565b600260009054906101000a900473ffffffffffffffffffffffffffffffffffffffff1681565b600080600281111561036857fe5b600060149054906101000a900460ff16600281111561038357fe5b1461038f576000610392565b60015b905090565b600360009054906101000a900473ffffffffffffffffffffffffffffffffffffffff1681565b6000600560009054906101000a900473ffffffffffffffffffffffffffffffffffffffff1673ffffffffffffffffffffffffffffffffffffffff166347a6fa60336040518263ffffffff167c0100000000000000000000000000000000000000000000000000000000028152600401808273ffffffffffffffffffffffffffffffffffffffff1673ffffffffffffffffffffffffffffffffffffffff168152602001915050602060405180830381600087803b15801561047c57600080fd5b505af1158015610490573d6000803e3d6000fd5b505050506040513d60208110156104a657600080fd5b810190808051906020019092919050505015156104c257600080fd5b60015442101515156104d357600080fd5b600060028111156104e057fe5b600060149054906101000a900460ff1660028111156104fb57fe5b14151561050757600080fd5b61051260045461065e565b506001600060146101000a81548160ff0219169083600281111561053257fe5b02179055506001905090565b60015481565b600560009054906101000a900473ffffffffffffffffffffffffffffffffffffffff1681565b60003373ffffffffffffffffffffffffffffffffffffffff16600260009054906101000a900473ffffffffffffffffffffffffffffffffffffffff1673ffffffffffffffffffffffffffffffffffffffff161415156105c857600080fd5b600060028111156105d557fe5b600060149054906101000a900460ff1660028111156105f057fe5b1415156105fc57600080fd5b61060760045461065e565b506002600060146101000a81548160ff0219169083600281111561062757fe5b02179055506001905090565b6000809054906101000a900473ffffffffffffffffffffffffffffffffffffffff1681565b60045481565b60008060009054906101000a900473ffffffffffffffffffffffffffffffffffffffff1673ffffffffffffffffffffffffffffffffffffffff166342966c68836040518263ffffffff167c010000000000000000000000000000000000000000000000000000000002815260040180828152602001915050600060405180830381600087803b1580156106f057600080fd5b505af1158015610704573d6000803e3d6000fd5b50505050600190509190505600a165627a7a723058202acf1db286733547e49a36e1cd724d86f2bbfe852f4d59360a002e5911a71cf10029608060405234801561001057600080fd5b50604051602080610ed28339810180604052810190808051906020019092919050505080600160006101000a81548173ffffffffffffffffffffffffffffffffffffffff021916908373ffffffffffffffffffffffffffffffffffffffff16021790555033600260006101000a81548173ffffffffffffffffffffffffffffffffffffffff021916908373ffffffffffffffffffffffffffffffffffffffff16021790555050610e0d806100c56000396000f300608060405260043610610099576000357c0100000000000000000000000000000000000000000000000000000000900463ffffffff16806309c6e3741461009e578063230b9da3146101875780632986c0e5146101de5780636aec95b61461020957806383197ef0146102605780638cfeeef61461027757806391a7f62014610348578063cecaf69e1461042a578063de490eaa14610513575b600080fd5b3480156100aa57600080fd5b50610105600480360381019080803590602001908201803590602001908080601f01602080910402602001604051908101604052809392919081815260200183838082843782019150505050505091929192905050506105b9565b6040518080602001838152602001828103825284818151815260200191508051906020019080838360005b8381101561014b578082015181840152602081019050610130565b50505050905090810190601f1680156101785780820380516001836020036101000a031916815260200191505b50935050505060405180910390f35b34801561019357600080fd5b5061019c610644565b604051808273ffffffffffffffffffffffffffffffffffffffff1673ffffffffffffffffffffffffffffffffffffffff16815260200191505060405180910390f35b3480156101ea57600080fd5b506101f361066a565b6040518082815260200191505060405180910390f35b34801561021557600080fd5b5061021e610670565b604051808273ffffffffffffffffffffffffffffffffffffffff1673ffffffffffffffffffffffffffffffffffffffff16815260200191505060405180910390f35b34801561026c57600080fd5b50610275610696565b005b34801561028357600080fd5b5061032e600480360381019080803590602001908201803590602001908080601f0160208091040260200160405190810160405280939291908181526020018383808284378201915050505050509192919290803590602001908201803590602001908080601f0160208091040260200160405190810160405280939291908181526020018383808284378201915050505050509192919290803590602001909291905050506106f6565b604051808215151515815260200191505060405180910390f35b34801561035457600080fd5b506103af600480360381019080803590602001908201803590602001908080601f016020809104026020016040519081016040528093929190818152602001838380828437820191505050505050919291929050505061095a565b6040518080602001828103825283818151815260200191508051906020019080838360005b838110156103ef5780820151818401526020810190506103d4565b50505050905090810190601f16801561041c5780820380516001836020036101000a031916815260200191505b509250505060405180910390f35b34801561043657600080fd5b50610491600480360381019080803590602001908201803590602001908080601f0160208091040260200160405190810160405280939291908181526020018383808284378201915050505050509192919290505050610a67565b6040518083815260200180602001828103825283818151815260200191508051906020019080838360005b838110156104d75780820151818401526020810190506104bc565b50505050905090810190601f1680156105045780820380516001836020036101000a031916815260200191505b50935050505060405180910390f35b34801561051f57600080fd5b5061053e60048036038101908080359060200190929190505050610bed565b6040518080602001828103825283818151815260200191508051906020019080838360005b8381101561057e578082015181840152602081019050610563565b50505050905090810190601f1680156105ab5780820380516001836020036101000a031916815260200191505b509250505060405180910390f35b6060600060606105c88461095a565b9050806003826040518082805190602001908083835b60208310151561060357805182526020820191506020810190506020830392506105de565b6001836020036101000a0380198251168184511680821785525050505050509050019150509081526020016040518091039020600001549250925050915091565b600260009054906101000a900473ffffffffffffffffffffffffffffffffffffffff1681565b60005481565b600160009054906101000a900473ffffffffffffffffffffffffffffffffffffffff1681565b600260009054906101000a900473ffffffffffffffffffffffffffffffffffffffff1673ffffffffffffffffffffffffffffffffffffffff163373ffffffffffffffffffffffffffffffffffffffff161415156106f257600080fd5b6000ff5b6000610700610ca2565b600260009054906101000a900473ffffffffffffffffffffffffffffffffffffffff1673ffffffffffffffffffffffffffffffffffffffff163373ffffffffffffffffffffffffffffffffffffffff161415156107eb576040517f08c379a000000000000000000000000000000000000000000000000000000000815260040180806020018281038252602a8152602001807f6f6e6c7920706172656e74436f6e74726163742063616e2063616c6c2074686981526020017f732066756e6374696f6e0000000000000000000000000000000000000000000081525060400191505060405180910390fd5b846004856040518082805190602001908083835b60208310151561082457805182526020820191506020810190506020830392506107ff565b6001836020036101000a0380198251168184511680821785525050505050509050019150509081526020016040518091039020908051906020019061086a929190610cbc565b508460056000805481526020019081526020016000209080519060200190610893929190610cbc565b50600080815480929190600101919050555082816000018181525050838160200181905250806003866040518082805190602001908083835b6020831015156108f157805182526020820191506020810190506020830392506108cc565b6001836020036101000a038019825116818451168082178552505050505050905001915050908152602001604051809103902060008201518160000155602082015181600101908051906020019061094a929190610d3c565b5090505060019150509392505050565b60606004826040518082805190602001908083835b602083101515610994578051825260208201915060208101905060208303925061096f565b6001836020036101000a03801982511681845116808217855250505050505090500191505090815260200160405180910390208054600181600116156101000203166002900480601f016020809104026020016040519081016040528092919081815260200182805460018160011615610100020316600290048015610a5b5780601f10610a3057610100808354040283529160200191610a5b565b820191906000526020600020905b815481529060010190602001808311610a3e57829003601f168201915b50505050509050919050565b600060606003836040518082805190602001908083835b602083101515610aa35780518252602082019150602081019050602083039250610a7e565b6001836020036101000a0380198251168184511680821785525050505050509050019150509081526020016040518091039020600001546003846040518082805190602001908083835b602083101515610b125780518252602082019150602081019050602083039250610aed565b6001836020036101000a0380198251168184511680821785525050505050509050019150509081526020016040518091039020600101808054600181600116156101000203166002900480601f016020809104026020016040519081016040528092919081815260200182805460018160011615610100020316600290048015610bdd5780601f10610bb257610100808354040283529160200191610bdd565b820191906000526020600020905b815481529060010190602001808311610bc057829003601f168201915b5050505050905091509150915091565b6060600560008381526020019081526020016000208054600181600116156101000203166002900480601f016020809104026020016040519081016040528092919081815260200182805460018160011615610100020316600290048015610c965780601f10610c6b57610100808354040283529160200191610c96565b820191906000526020600020905b815481529060010190602001808311610c7957829003601f168201915b50505050509050919050565b604080519081016040528060008152602001606081525090565b828054600181600116156101000203166002900490600052602060002090601f016020900481019282601f10610cfd57805160ff1916838001178555610d2b565b82800160010185558215610d2b579182015b82811115610d2a578251825591602001919060010190610d0f565b5b509050610d389190610dbc565b5090565b828054600181600116156101000203166002900490600052602060002090601f016020900481019282601f10610d7d57805160ff1916838001178555610dab565b82800160010185558215610dab579182015b82811115610daa578251825591602001919060010190610d8f565b5b509050610db89190610dbc565b5090565b610dde91905b80821115610dda576000816000905550600101610dc2565b5090565b905600a165627a7a723058207be51e31f348f5237b282c6c93277b65a02b66a6c63c7d177498f018125b5cbe0029a165627a7a723058200d29971a3c6dd90f80300b85560fee4caafb931aab8ffe40152fff85ccdbfcb20029",
  "source": "pragma solidity ^0.4.24;\nimport \"../../node_modules/openzeppelin-solidity/contracts/math/SafeMath.sol\";\n\nimport \"../SharedContracts/VuupleAdmins.sol\";\nimport \"./RenterFiles.sol\";\nimport \"./RenterEscrow.sol\";\nimport \"../SharedContracts/VuupleToken.sol\";\nimport \"../SharedContracts/DateTimeParser.sol\";\n\ncontract RenterRegistration is DateTimeParser {\n    using SafeMath for uint256;\n\n    address public contractOwner;\n    VuupleAdmins private vuupleAdmin;\n    RenterFiles private renterFiles;\n    VuupleToken private vuupleToken;\n    RenterEscrow public escrow;\n\n\n    enum MembershipType { Org, Individual }\n    enum Status { ready, pending }\n\n    MembershipType public membershipType;\n    uint256 public renewalDate; // this date stores the renewal date and expire after 30 days\n    uint256 public registerDate;\n    uint256 public renteredStorage;               // we will set list of storage tiers  in Giga \n    uint256 public usedStorage =0;  // in Byte \n    uint256 public tokenAmount ;  \n    Status public currentStatus = Status.pending;  \n    bool public active =true;\n    bool public banned =false;\n\n    // uint16  year;\n    // uint8   month ;\n    // uint8  day ;\n    // uint8  hour ; \n    // uint8  minute ;\n    modifier isOwner {\n        require(contractOwner == msg.sender);\n        _;\n    }    \n    modifier onlyVuupleAdmin() {\n        require(vuupleAdmin.isVuupleAdmin(msg.sender));\n        _;\n    }\n    modifier onlyAdminOrOwner() {\n        require(vuupleAdmin.isVuupleAdmin(msg.sender) || contractOwner == msg.sender);\n        _;\n    }\n     \n    modifier subscriptionEnded() {\n        require( block.timestamp > renewalDate);\n        _;\n    }\n    modifier subscriptionNotEnded() {\n        require( renewalDate >= block.timestamp);\n        _;\n    }\n    modifier subscriptionNew() {\n        require( renewalDate==0);\n        _;\n    }\n    modifier unbanned() {\n        require( !banned);\n        _;\n    }\n    modifier isActive() {\n        require( active);\n        _;\n    }\n    modifier isReady() {\n        require( currentStatus==Status.ready);\n        _;\n    }\n\n    constructor (uint256 _type, VuupleAdmins _adminAddress, VuupleToken _vuupleToken , address _sender) public {            \n               \n        contractOwner = _sender;\n        vuupleAdmin = _adminAddress;\n        vuupleToken = _vuupleToken;\n        registerDate = block.timestamp;\n\n        require(uint(MembershipType.Individual)==_type ||uint(MembershipType.Org)==_type );\n    \n  \n        \n     \n        if(uint(MembershipType.Individual)==_type){\n            membershipType =MembershipType.Individual ;\n            // require( _vuupleToken.balanceOf(msg.sender)>);\n            renteredStorage=5;\n            tokenAmount = renteredStorage.mul(4);\n        \n        }else if (uint(MembershipType.Org)==_type){\n            membershipType =MembershipType.Org ;\n            renteredStorage=10;\n            tokenAmount=renteredStorage.mul(3);\n        }\n    //   require( _vuupleToken.balanceOf(msg.sender)>= tokenAmount);\n     //  _issueRenterFilecontract();\n     \n     //vuupleToken.transfer(escrow, tokenAmount);\n        } \n    // check that the last subscription is ended\n    // we need to rewrite this code to suuport renewal suppscription and to match the whitepaper logic \n    function renewSubscription (uint256 _renteredStorage ) public isOwner subscriptionEnded unbanned returns(bool){     // enter amount in GB\n      \n\n        \n       \n\n        renteredStorage = _renteredStorage;\n            if(MembershipType.Individual==membershipType){\n          \n            tokenAmount = renteredStorage.mul(4);\n        \n        }else if (MembershipType.Org==membershipType){\n                        \n            tokenAmount=renteredStorage.mul(3);\n        }\n        currentStatus = Status.pending;  \n        renewalDate =0;\n        if(!active){\n            active=true;\n\n        }\n          return true;\n      \n    }\n\n    function addFileToStorage (string _bzzHash,\n        string _fileName,\n        uint256 _size) public isOwner/* subscriptionNotEnded*/  unbanned isActive isReady returns(bool) {\n        require(usedStorage +_size <= renteredStorage);\n        usedStorage += _size;\n        renterFiles.addFile( _bzzHash,\n        _fileName,\n        _size);\n        return true;\n\n    }\n    // function addEncryptedFileToStorage (string _bzzHash,\n    //     string _fileName,\n    //     uint256 _size,\n    //     string _fileType,\n    //     uint256 _bzzSchema,\n    //     bool _isEncrypted,\n    //     string _encryptedKey) public isOwner subscriptionNotEnded unbanned isActive isReady returns(bool) {\n    //     require(usedStorage +_size <= renteredStorage);\n    //     usedStorage += _size;\n    //     renterFiles.addFile( _bzzHash,\n    //     _fileName,\n    //     _size,\n    //     _fileType,\n    //     _bzzSchema,\n    //     _isEncrypted,\n    //     _encryptedKey);\n    //     return true;\n\n    // }\n\n\n    function completeSubscription()isOwner subscriptionNew returns(bool)  {\n        require( vuupleToken.balanceOf(this)>= tokenAmount);\n        renewalDate = now + 30 days; //block.timestamp + 2592000;// add 30 days just to avoid quorum issue _getRenewalDate();\n        _issueRenterFilecontract(); \n         escrow = new RenterEscrow( vuupleAdmin,vuupleToken ,renewalDate,tokenAmount,contractOwner);\n         vuupleToken.transfer(escrow,tokenAmount);\n         currentStatus=Status.ready;\n          return true;\n    }\n    \n    function getBalance() public view isOwner returns (uint) {\n        return vuupleToken.balanceOf(this) ;\n    }\n    \n    function setActiveStatus(bool status) public isOwner unbanned returns(bool) {\n        active = status;\n        renewalDate =0;\n        if(!status){\n            renterFiles.destroy();\n            if(escrow.isActive()){\n            require(escrow.closeEscrow());\n\n        }\n        }else{\n            // weird bug , it fails when call this function only here and on setBanStatus function \n     _issueRenterFilecontract(); \n        }\n        \n        // TODO : set contract address to equivalent  null value in solidity \n        // renterFiles=address(0);\n        \n        return true;\n\n    }\n\n    function setBanStatus(bool status) public onlyVuupleAdmin returns(bool) {\n        banned = status;\n        active = !status;\n        \n         active = status;\n        renewalDate =0;\n        if(status){\n            renterFiles.destroy();\n            if(escrow.isActive()){\n            require(escrow.closeEscrow());\n\n        }\n        }else{\n     _issueRenterFilecontract(); \n        }\n        \n        // TODO : set contract address to equivalent  null value in solidity \n        // renterFiles=address(0);\n        \n        return true;\n    }\nfunction getRenterFiles() onlyAdminOrOwner returns (RenterFiles) {\n    return renterFiles;\n}\n    function _issueRenterFilecontract() internal {\n        renterFiles = new RenterFiles(contractOwner);\n    }\n//     function getTimeNow() public returns (uint) {\n//     return block.timestamp;\n// }\n\n}\n",
  "sourcePath": "/home/ubuntu/Smart-Contracts/contracts/RentersContracts/RenterRegistration.sol",
  "compiler": {
    "name": "solc",
    "version": "0.4.24+commit.e67f0147.Emscripten.clang"
  },
  "schemaVersion": "2.0.1",
  "updatedAt": "2019-11-09T21:03:59.003Z"
}