{
  "contractName": "RenterFiles",
  "abi": [
    {
      "constant": true,
      "inputs": [],
      "name": "parentContract",
      "outputs": [
        {
          "name": "",
          "type": "address"
        }
      ],
      "payable": false,
      "stateMutability": "view",
      "type": "function"
    },
    {
      "constant": true,
      "inputs": [],
      "name": "fileOwner",
      "outputs": [
        {
          "name": "",
          "type": "address"
        }
      ],
      "payable": false,
      "stateMutability": "view",
      "type": "function"
    },
    {
      "inputs": [
        {
          "name": "_fileOwner",
          "type": "address"
        }
      ],
      "payable": false,
      "stateMutability": "nonpayable",
      "type": "constructor"
    },
    {
      "constant": false,
      "inputs": [
        {
          "name": "_bzzHash",
          "type": "string"
        },
        {
          "name": "_fileName",
          "type": "string"
        },
        {
          "name": "_size",
          "type": "uint256"
        },
        {
          "name": "_fileType",
          "type": "string"
        },
        {
          "name": "_bzzSchema",
          "type": "uint256"
        },
        {
          "name": "_isEncrypted",
          "type": "bool"
        },
        {
          "name": "_encryptedKey",
          "type": "string"
        }
      ],
      "name": "addFile",
      "outputs": [
        {
          "name": "",
          "type": "bool"
        }
      ],
      "payable": false,
      "stateMutability": "nonpayable",
      "type": "function"
    },
    {
      "constant": true,
      "inputs": [
        {
          "name": "name",
          "type": "string"
        }
      ],
      "name": "getFileByName",
      "outputs": [
        {
          "name": "_bzzHash",
          "type": "string"
        },
        {
          "name": "_size",
          "type": "uint256"
        },
        {
          "name": "_fileType",
          "type": "string"
        },
        {
          "name": "_bzzSchema",
          "type": "uint256"
        },
        {
          "name": "_isEncrypted",
          "type": "bool"
        },
        {
          "name": "_encryptedKey",
          "type": "string"
        }
      ],
      "payable": false,
      "stateMutability": "view",
      "type": "function"
    },
    {
      "constant": true,
      "inputs": [
        {
          "name": "bzzHash",
          "type": "string"
        }
      ],
      "name": "getFileByHash",
      "outputs": [
        {
          "name": "_size",
          "type": "uint256"
        },
        {
          "name": "_fileType",
          "type": "string"
        },
        {
          "name": "_bzzSchema",
          "type": "uint256"
        },
        {
          "name": "_isEncrypted",
          "type": "bool"
        },
        {
          "name": "_encryptedKey",
          "type": "string"
        }
      ],
      "payable": false,
      "stateMutability": "view",
      "type": "function"
    },
    {
      "constant": true,
      "inputs": [
        {
          "name": "name",
          "type": "string"
        }
      ],
      "name": "getFileHashByName",
      "outputs": [
        {
          "name": "",
          "type": "string"
        }
      ],
      "payable": false,
      "stateMutability": "view",
      "type": "function"
    },
    {
      "constant": false,
      "inputs": [],
      "name": "destroy",
      "outputs": [],
      "payable": false,
      "stateMutability": "nonpayable",
      "type": "function"
    }
  ],
  "bytecode": "0x608060405234801561001057600080fd5b5060405160208061165783398101806040528101908080519060200190929190505050806000806101000a81548173ffffffffffffffffffffffffffffffffffffffff021916908373ffffffffffffffffffffffffffffffffffffffff16021790555033600160006101000a81548173ffffffffffffffffffffffffffffffffffffffff021916908373ffffffffffffffffffffffffffffffffffffffff16021790555050611593806100c46000396000f300608060405260043610610083576000357c0100000000000000000000000000000000000000000000000000000000900463ffffffff16806309c6e37414610088578063230b9da31461025b5780636aec95b6146102b257806383197ef01461030957806391a7f62014610320578063cecaf69e14610402578063e14947f214610569575b600080fd5b34801561009457600080fd5b506100ef600480360381019080803590602001908201803590602001908080601f01602080910402602001604051908101604052809392919081815260200183838082843782019150505050505091929192905050506106dc565b604051808060200187815260200180602001868152602001851515151581526020018060200184810384528a818151815260200191508051906020019080838360005b8381101561014d578082015181840152602081019050610132565b50505050905090810190601f16801561017a5780820380516001836020036101000a031916815260200191505b50848103835288818151815260200191508051906020019080838360005b838110156101b3578082015181840152602081019050610198565b50505050905090810190601f1680156101e05780820380516001836020036101000a031916815260200191505b50848103825285818151815260200191508051906020019080838360005b838110156102195780820151818401526020810190506101fe565b50505050905090810190601f1680156102465780820380516001836020036101000a031916815260200191505b50995050505050505050505060405180910390f35b34801561026757600080fd5b50610270610a90565b604051808273ffffffffffffffffffffffffffffffffffffffff1673ffffffffffffffffffffffffffffffffffffffff16815260200191505060405180910390f35b3480156102be57600080fd5b506102c7610ab6565b604051808273ffffffffffffffffffffffffffffffffffffffff1673ffffffffffffffffffffffffffffffffffffffff16815260200191505060405180910390f35b34801561031557600080fd5b5061031e610adb565b005b34801561032c57600080fd5b50610387600480360381019080803590602001908201803590602001908080601f0160208091040260200160405190810160405280939291908181526020018383808284378201915050505050509192919290505050610b3b565b6040518080602001828103825283818151815260200191508051906020019080838360005b838110156103c75780820151818401526020810190506103ac565b50505050905090810190601f1680156103f45780820380516001836020036101000a031916815260200191505b509250505060405180910390f35b34801561040e57600080fd5b50610469600480360381019080803590602001908201803590602001908080601f0160208091040260200160405190810160405280939291908181526020018383808284378201915050505050509192919290505050610c48565b60405180868152602001806020018581526020018415151515815260200180602001838103835287818151815260200191508051906020019080838360005b838110156104c35780820151818401526020810190506104a8565b50505050905090810190601f1680156104f05780820380516001836020036101000a031916815260200191505b50838103825284818151815260200191508051906020019080838360005b8381101561052957808201518184015260208101905061050e565b50505050905090810190601f1680156105565780820380516001836020036101000a031916815260200191505b5097505050505050505060405180910390f35b34801561057557600080fd5b506106c2600480360381019080803590602001908201803590602001908080601f0160208091040260200160405190810160405280939291908181526020018383808284378201915050505050509192919290803590602001908201803590602001908080601f016020809104026020016040519081016040528093929190818152602001838380828437820191505050505050919291929080359060200190929190803590602001908201803590602001908080601f016020809104026020016040519081016040528093929190818152602001838380828437820191505050505050919291929080359060200190929190803515159060200190929190803590602001908201803590602001908080601f0160208091040260200160405190810160405280939291908181526020018383808284378201915050505050509192919290505050610fea565b604051808215151515815260200191505060405180910390f35b6060600060606000806060806106f188610b3b565b9050806002826040518082805190602001908083835b60208310151561072c5780518252602082019150602081019050602083039250610707565b6001836020036101000a0380198251168184511680821785525050505050509050019150509081526020016040518091039020600001546002836040518082805190602001908083835b60208310151561079b5780518252602082019150602081019050602083039250610776565b6001836020036101000a03801982511681845116808217855250505050505090500191505090815260200160405180910390206001016002846040518082805190602001908083835b60208310151561080957805182526020820191506020810190506020830392506107e4565b6001836020036101000a038019825116818451168082178552505050505050905001915050908152602001604051809103902060020160009054906101000a900460ff16600481111561085857fe5b6002856040518082805190602001908083835b602083101515610890578051825260208201915060208101905060208303925061086b565b6001836020036101000a038019825116818451168082178552505050505050905001915050908152602001604051809103902060020160029054906101000a900460ff166002866040518082805190602001908083835b60208310151561090c57805182526020820191506020810190506020830392506108e7565b6001836020036101000a0380198251168184511680821785525050505050509050019150509081526020016040518091039020600301838054600181600116156101000203166002900480601f0160208091040260200160405190810160405280929190818152602001828054600181600116156101000203166002900480156109d75780601f106109ac576101008083540402835291602001916109d7565b820191906000526020600020905b8154815290600101906020018083116109ba57829003601f168201915b50505050509350808054600181600116156101000203166002900480601f016020809104026020016040519081016040528092919081815260200182805460018160011615610100020316600290048015610a735780601f10610a4857610100808354040283529160200191610a73565b820191906000526020600020905b815481529060010190602001808311610a5657829003601f168201915b505050505090509650965096509650965096505091939550919395565b600160009054906101000a900473ffffffffffffffffffffffffffffffffffffffff1681565b6000809054906101000a900473ffffffffffffffffffffffffffffffffffffffff1681565b600160009054906101000a900473ffffffffffffffffffffffffffffffffffffffff1673ffffffffffffffffffffffffffffffffffffffff163373ffffffffffffffffffffffffffffffffffffffff16141515610b3757600080fd5b6000ff5b60606003826040518082805190602001908083835b602083101515610b755780518252602082019150602081019050602083039250610b50565b6001836020036101000a03801982511681845116808217855250505050505090500191505090815260200160405180910390208054600181600116156101000203166002900480601f016020809104026020016040519081016040528092919081815260200182805460018160011615610100020316600290048015610c3c5780601f10610c1157610100808354040283529160200191610c3c565b820191906000526020600020905b815481529060010190602001808311610c1f57829003601f168201915b50505050509050919050565b6000606060008060606002866040518082805190602001908083835b602083101515610c895780518252602082019150602081019050602083039250610c64565b6001836020036101000a0380198251168184511680821785525050505050509050019150509081526020016040518091039020600001546002876040518082805190602001908083835b602083101515610cf85780518252602082019150602081019050602083039250610cd3565b6001836020036101000a03801982511681845116808217855250505050505090500191505090815260200160405180910390206001016002886040518082805190602001908083835b602083101515610d665780518252602082019150602081019050602083039250610d41565b6001836020036101000a038019825116818451168082178552505050505050905001915050908152602001604051809103902060020160009054906101000a900460ff166004811115610db557fe5b6002896040518082805190602001908083835b602083101515610ded5780518252602082019150602081019050602083039250610dc8565b6001836020036101000a038019825116818451168082178552505050505050905001915050908152602001604051809103902060020160029054906101000a900460ff1660028a6040518082805190602001908083835b602083101515610e695780518252602082019150602081019050602083039250610e44565b6001836020036101000a0380198251168184511680821785525050505050509050019150509081526020016040518091039020600301838054600181600116156101000203166002900480601f016020809104026020016040519081016040528092919081815260200182805460018160011615610100020316600290048015610f345780601f10610f0957610100808354040283529160200191610f34565b820191906000526020600020905b815481529060010190602001808311610f1757829003601f168201915b50505050509350808054600181600116156101000203166002900480601f016020809104026020016040519081016040528092919081815260200182805460018160011615610100020316600290048015610fd05780601f10610fa557610100808354040283529160200191610fd0565b820191906000526020600020905b815481529060010190602001808311610fb357829003601f168201915b505050505090509450945094509450945091939590929450565b6000610ff46113fc565b600160009054906101000a900473ffffffffffffffffffffffffffffffffffffffff1673ffffffffffffffffffffffffffffffffffffffff163373ffffffffffffffffffffffffffffffffffffffff161415156110df576040517f08c379a000000000000000000000000000000000000000000000000000000000815260040180806020018281038252602a8152602001807f6f6e6c7920706172656e74436f6e74726163742063616e2063616c6c2074686981526020017f732066756e6374696f6e0000000000000000000000000000000000000000000081525060400191505060405180910390fd5b886003896040518082805190602001908083835b60208310151561111857805182526020820191506020810190506020830392506110f3565b6001836020036101000a0380198251168184511680821785525050505050509050019150509081526020016040518091039020908051906020019061115e929190611442565b50846000600481111561116d57fe5b141561119b5760008160400190600481111561118557fe5b9081600481111561119257fe5b81525050611293565b84600160048111156111a957fe5b14156111d7576001816040019060048111156111c157fe5b908160048111156111ce57fe5b81525050611292565b84600260048111156111e557fe5b1415611213576002816040019060048111156111fd57fe5b9081600481111561120a57fe5b81525050611291565b846003600481111561122157fe5b141561124f5760038160400190600481111561123957fe5b9081600481111561124657fe5b81525050611290565b8460048081111561125c57fe5b141561128a5760048160400190600481111561127457fe5b9081600481111561128157fe5b8152505061128f565b600080fd5b5b5b5b5b86816000018181525050858160200181905250600081606001901515908115158152505083816080019015159081151581525050828160a001819052508060028a6040518082805190602001908083835b60208310151561130957805182526020820191506020810190506020830392506112e4565b6001836020036101000a03801982511681845116808217855250505050505090500191505090815260200160405180910390206000820151816000015560208201518160010190805190602001906113629291906114c2565b5060408201518160020160006101000a81548160ff0219169083600481111561138757fe5b021790555060608201518160020160016101000a81548160ff02191690831515021790555060808201518160020160026101000a81548160ff02191690831515021790555060a08201518160030190805190602001906113e89291906114c2565b509050506001915050979650505050505050565b60c06040519081016040528060008152602001606081526020016000600481111561142357fe5b8152602001600015158152602001600015158152602001606081525090565b828054600181600116156101000203166002900490600052602060002090601f016020900481019282601f1061148357805160ff19168380011785556114b1565b828001600101855582156114b1579182015b828111156114b0578251825591602001919060010190611495565b5b5090506114be9190611542565b5090565b828054600181600116156101000203166002900490600052602060002090601f016020900481019282601f1061150357805160ff1916838001178555611531565b82800160010185558215611531579182015b82811115611530578251825591602001919060010190611515565b5b50905061153e9190611542565b5090565b61156491905b80821115611560576000816000905550600101611548565b5090565b905600a165627a7a723058209cccb7e48ee78cddcb3e318e0ae3e607f81e3c202f6a4276d2bf47a1d086538d0029",
  "source": "pragma solidity ^0.4.24;\n// import \"../SharedContracts/VuupleAdmins.sol\";\n\ncontract RenterFiles {\n    enum BzzSchemas { RESOURCE,IMMUTABLE,HASH,LISTt ,RAW}\n        // VuupleAdmins private vuupleAdmin;\n\n    struct File{\n        //string BZZHash;\n        uint size;\n        string fileType;\n        BzzSchemas bzzSchema;\n        bool isDeleted;\n        bool isEncrypted;\n        string encryptedKey;\n    }\n    address public fileOwner;\n    address public parentContract;\n    // bool public burn=false;\n    mapping (string=>File) BzzHashToFileDetails;\n    mapping (string=>string) fileNameToBzzHash;\n    // string[]BZZHash;\n    // uint index;\n\n    modifier onlyParentContract(){\n        require(msg.sender==parentContract, \"only parentContract can call this function\");\n        _;\n    }\n    constructor(address _fileOwner){\n        fileOwner = _fileOwner;\n        parentContract=msg.sender;\n    }\n    // modifier isBurnt{\n    //          require(!burn);\n    //                _;}\nfunction addFile(\n        string _bzzHash,\n        string _fileName,\n        uint _size,\n        string _fileType,\n        uint _bzzSchema,\n        bool _isEncrypted,\n        string _encryptedKey) onlyParentContract returns (bool) {\n\n          fileNameToBzzHash[_fileName]= _bzzHash; \n\n          File memory newFile ;\n          if(uint(BzzSchemas.RESOURCE)==_bzzSchema){\n             newFile.bzzSchema=BzzSchemas.RESOURCE;\n          }\n          else if(uint(BzzSchemas.IMMUTABLE)==_bzzSchema){\n             newFile.bzzSchema=BzzSchemas.IMMUTABLE;\n          }\n          else if(uint(BzzSchemas.HASH)==_bzzSchema){\n             newFile.bzzSchema=BzzSchemas.HASH;\n          }\n         else if(uint(BzzSchemas.LISTt)==_bzzSchema){\n             newFile.bzzSchema=BzzSchemas.LISTt;\n          }\n         else if(uint(BzzSchemas.RAW)==_bzzSchema){\n             newFile.bzzSchema=BzzSchemas.RAW;\n          }else{\n              revert();\n          }\n          newFile.size=_size;\n        newFile.fileType=_fileType;\n       \n        newFile.isDeleted=false;\n        newFile.isEncrypted=_isEncrypted;\n        newFile.encryptedKey=_encryptedKey;\n          BzzHashToFileDetails[_bzzHash]= newFile; \n          return true;\n    \n}\nfunction getFileByName(string name) view returns(   string _bzzHash,\n        uint _size,\n        string _fileType,\n        uint _bzzSchema,\n        bool _isEncrypted,\n        string _encryptedKey){\n  string memory bzzHash =   getFileHashByName(name);\n  return (bzzHash,\n  BzzHashToFileDetails[bzzHash].size,\n  BzzHashToFileDetails[bzzHash].fileType,\n uint( BzzHashToFileDetails[bzzHash].bzzSchema),\n  BzzHashToFileDetails[bzzHash].isEncrypted,\n  BzzHashToFileDetails[bzzHash].encryptedKey\n  \n  \n  \n  );\n}\n\nfunction getFileByHash(string bzzHash) view returns( \n        uint _size,\n        string _fileType,\n        uint _bzzSchema,\n        bool _isEncrypted,\n        string _encryptedKey) {\n  return (\n  BzzHashToFileDetails[bzzHash].size,\n  BzzHashToFileDetails[bzzHash].fileType,\n  uint(BzzHashToFileDetails[bzzHash].bzzSchema),\n  BzzHashToFileDetails[bzzHash].isEncrypted,\n  BzzHashToFileDetails[bzzHash].encryptedKey\n  \n  \n  \n  );\n}\n\nfunction getFileHashByName(string name) view returns (string) {\n    return fileNameToBzzHash[name];\n}\nfunction destroy() external {\n    require(msg.sender==parentContract  );\n    selfdestruct(0);\n}\n}",
  "sourcePath": "/home/ubuntu/Smart-Contracts/contracts/RentersContracts/RenterFiles.sol",
  "compiler": {
    "name": "solc",
    "version": "0.4.24+commit.e67f0147.Emscripten.clang"
  },
  "schemaVersion": "2.0.1",
  "updatedAt": "2019-06-27T12:47:13.221Z"
}