{
  "contractName": "RenterFactory",
  "abi": [
    {
      "constant": true,
      "inputs": [],
      "name": "vuupleAdmin",
      "outputs": [
        {
          "name": "",
          "type": "address"
        }
      ],
      "payable": false,
      "stateMutability": "view",
      "type": "function"
    },
    {
      "constant": true,
      "inputs": [],
      "name": "renterIndex",
      "outputs": [
        {
          "name": "",
          "type": "uint256"
        }
      ],
      "payable": false,
      "stateMutability": "view",
      "type": "function"
    },
    {
      "constant": true,
      "inputs": [],
      "name": "vuupleToken",
      "outputs": [
        {
          "name": "",
          "type": "address"
        }
      ],
      "payable": false,
      "stateMutability": "view",
      "type": "function"
    },
    {
      "inputs": [
        {
          "name": "_adminAddress",
          "type": "address"
        },
        {
          "name": "_vuupleToken",
          "type": "address"
        }
      ],
      "payable": false,
      "stateMutability": "nonpayable",
      "type": "constructor"
    },
    {
      "constant": false,
      "inputs": [
        {
          "name": "_type",
          "type": "uint256"
        }
      ],
      "name": "renterRegister",
      "outputs": [
        {
          "name": "",
          "type": "bool"
        }
      ],
      "payable": false,
      "stateMutability": "nonpayable",
      "type": "function"
    },
    {
      "constant": false,
      "inputs": [
        {
          "name": "renterAddress",
          "type": "address"
        }
      ],
      "name": "getRenterContract",
      "outputs": [
        {
          "name": "",
          "type": "address"
        }
      ],
      "payable": false,
      "stateMutability": "nonpayable",
      "type": "function"
    }
  ],
  "bytecode": "0x6080604052600060025534801561001557600080fd5b506040516040806153e78339810180604052810190808051906020019092919080519060200190929190505050816000806101000a81548173ffffffffffffffffffffffffffffffffffffffff021916908373ffffffffffffffffffffffffffffffffffffffff16021790555080600160006101000a81548173ffffffffffffffffffffffffffffffffffffffff021916908373ffffffffffffffffffffffffffffffffffffffff1602179055505050615313806100d46000396000f30060806040526004361061006d576000357c0100000000000000000000000000000000000000000000000000000000900463ffffffff1680637fbbe9a314610072578063a201ce9c146100f5578063adf7855b1461014c578063c327c13514610177578063cb195a06146101ce575b600080fd5b34801561007e57600080fd5b506100b3600480360381019080803573ffffffffffffffffffffffffffffffffffffffff169060200190929190505050610213565b604051808273ffffffffffffffffffffffffffffffffffffffff1673ffffffffffffffffffffffffffffffffffffffff16815260200191505060405180910390f35b34801561010157600080fd5b5061010a61027c565b604051808273ffffffffffffffffffffffffffffffffffffffff1673ffffffffffffffffffffffffffffffffffffffff16815260200191505060405180910390f35b34801561015857600080fd5b506101616102a1565b6040518082815260200191505060405180910390f35b34801561018357600080fd5b5061018c6102a7565b604051808273ffffffffffffffffffffffffffffffffffffffff1673ffffffffffffffffffffffffffffffffffffffff16815260200191505060405180910390f35b3480156101da57600080fd5b506101f9600480360381019080803590602001909291905050506102cd565b604051808215151515815260200191505060405180910390f35b6000600360008373ffffffffffffffffffffffffffffffffffffffff1673ffffffffffffffffffffffffffffffffffffffff16815260200190815260200160002060009054906101000a900473ffffffffffffffffffffffffffffffffffffffff169050919050565b6000809054906101000a900473ffffffffffffffffffffffffffffffffffffffff1681565b60025481565b600160009054906101000a900473ffffffffffffffffffffffffffffffffffffffff1681565b60008073ffffffffffffffffffffffffffffffffffffffff16600360003373ffffffffffffffffffffffffffffffffffffffff1673ffffffffffffffffffffffffffffffffffffffff16815260200190815260200160002060009054906101000a900473ffffffffffffffffffffffffffffffffffffffff1673ffffffffffffffffffffffffffffffffffffffff1614151561036857600080fd5b816000809054906101000a900473ffffffffffffffffffffffffffffffffffffffff16600160009054906101000a900473ffffffffffffffffffffffffffffffffffffffff16336103b761050f565b808581526020018473ffffffffffffffffffffffffffffffffffffffff1673ffffffffffffffffffffffffffffffffffffffff1681526020018373ffffffffffffffffffffffffffffffffffffffff1673ffffffffffffffffffffffffffffffffffffffff1681526020018273ffffffffffffffffffffffffffffffffffffffff1673ffffffffffffffffffffffffffffffffffffffff168152602001945050505050604051809103906000f080158015610476573d6000803e3d6000fd5b50600360003373ffffffffffffffffffffffffffffffffffffffff1673ffffffffffffffffffffffffffffffffffffffff16815260200190815260200160002060006101000a81548173ffffffffffffffffffffffffffffffffffffffff021916908373ffffffffffffffffffffffffffffffffffffffff16021790555060026000815480929190600101919050555060019050919050565b604051614dc880610520833901905600608060405260006008556001600a60006101000a81548160ff021916908360018111156200002957fe5b02179055506001600a60016101000a81548160ff0219169083151502179055506000600a60026101000a81548160ff0219169083151502179055503480156200007157600080fd5b5060405160808062004dc883398101806040528101908080519060200190929190805190602001909291908051906020019092919080519060200190929190505050806000806101000a81548173ffffffffffffffffffffffffffffffffffffffff021916908373ffffffffffffffffffffffffffffffffffffffff16021790555082600160006101000a81548173ffffffffffffffffffffffffffffffffffffffff021916908373ffffffffffffffffffffffffffffffffffffffff16021790555081600360006101000a81548173ffffffffffffffffffffffffffffffffffffffff021916908373ffffffffffffffffffffffffffffffffffffffff16021790555042600681905550836001808111156200018a57fe5b1480620001a357508360006001811115620001a157fe5b145b1515620001af57600080fd5b83600180811115620001bd57fe5b141562000223576001600460146101000a81548160ff02191690836001811115620001e457fe5b021790555060056007819055506200021760046007546200029e6401000000000262002a99179091906401000000009004565b60098190555062000294565b83600060018111156200023257fe5b141562000293576000600460146101000a81548160ff021916908360018111156200025957fe5b0217905550600a6007819055506200028c60036007546200029e6401000000000262002a99179091906401000000009004565b6009819055505b5b50505050620002e0565b6000806000841415620002b55760009150620002d9565b8284029050828482811515620002c757fe5b04141515620002d557600080fd5b8091505b5092915050565b614ad880620002f06000396000f300608060405260043610620001b7576000357c0100000000000000000000000000000000000000000000000000000000900463ffffffff16806302fb0c5e14620001bc5780630d4786b914620001ee57806312065fe01462000238578063158fba8f14620002665780633667e1ba14620002985780633e239e1a14620002d55780634ac1ad78146200031f578063553d3ee414620003695780635991d59914620003c357806362ba968714620003f157806365c72840146200046d5780636b5bcee914620004b75780637c1ad292146200062d5780637f791833146200065b578063815428e914620006ca5780638aa001fc14620006fc5780638c8d98a014620007465780639054bdec14620007a857806392d663131462000831578063a324ad24146200087d578063a6f0e57714620008c7578063b19999371462000913578063b238ad0e1462000957578063c642f69414620009b2578063ce606ee014620009e0578063d71bb37b1462000a3a578063e2fdcc171462000a82578063ea2700b21462000adc578063ec7404b11462000b0a578063eec7faa11462000b54578063ef8a92351462000b82578063fa93f8831462000bbf575b600080fd5b348015620001c957600080fd5b50620001d462000c09565b604051808215151515815260200191505060405180910390f35b348015620001fb57600080fd5b506200021e60048036038101908080351515906020019092919050505062000c1c565b604051808215151515815260200191505060405180910390f35b3480156200024557600080fd5b506200025062000fd8565b6040518082815260200191505060405180910390f35b3480156200027357600080fd5b506200027e62001136565b604051808215151515815260200191505060405180910390f35b348015620002a557600080fd5b50620002b062001149565b60405180826001811115620002c157fe5b60ff16815260200191505060405180910390f35b348015620002e257600080fd5b5062000303600480360381019080803590602001909291905050506200115c565b604051808260ff1660ff16815260200191505060405180910390f35b3480156200032c57600080fd5b506200034d600480360381019080803590602001909291905050506200118c565b604051808260ff1660ff16815260200191505060405180910390f35b3480156200037657600080fd5b5062000381620011b5565b604051808273ffffffffffffffffffffffffffffffffffffffff1673ffffffffffffffffffffffffffffffffffffffff16815260200191505060405180910390f35b348015620003d057600080fd5b50620003db6200133e565b6040518082815260200191505060405180910390f35b348015620003fe57600080fd5b5062000457600480360381019080803561ffff169060200190929190803560ff169060200190929190803560ff169060200190929190803560ff169060200190929190803560ff16906020019092919050505062001344565b6040518082815260200191505060405180910390f35b3480156200047a57600080fd5b506200049b6004803603810190808035906020019092919050505062001362565b604051808260ff1660ff16815260200191505060405180910390f35b348015620004c457600080fd5b5062000613600480360381019080803590602001908201803590602001908080601f0160208091040260200160405190810160405280939291908181526020018383808284378201915050505050509192919290803590602001908201803590602001908080601f016020809104026020016040519081016040528093929190818152602001838380828437820191505050505050919291929080359060200190929190803590602001908201803590602001908080601f016020809104026020016040519081016040528093929190818152602001838380828437820191505050505050919291929080359060200190929190803515159060200190929190803590602001908201803590602001908080601f01602080910402602001604051908101604052809392919081815260200183838082843782019150505050505091929192905050506200137a565b604051808215151515815260200191505060405180910390f35b3480156200063a57600080fd5b506200064562001733565b6040518082815260200191505060405180910390f35b3480156200066857600080fd5b50620006b4600480360381019080803561ffff169060200190929190803560ff169060200190929190803560ff169060200190929190803560ff16906020019092919050505062001739565b6040518082815260200191505060405180910390f35b348015620006d757600080fd5b50620006e262001756565b604051808215151515815260200191505060405180910390f35b3480156200070957600080fd5b506200072a6004803603810190808035906020019092919050505062001bc0565b604051808260ff1660ff16815260200191505060405180910390f35b3480156200075357600080fd5b5062000792600480360381019080803561ffff169060200190929190803560ff169060200190929190803560ff16906020019092919050505062001bd7565b6040518082815260200191505060405180910390f35b348015620007b557600080fd5b506200081b600480360381019080803561ffff169060200190929190803560ff169060200190929190803560ff169060200190929190803560ff169060200190929190803560ff169060200190929190803560ff16906020019092919050505062001bf4565b6040518082815260200191505060405180910390f35b3480156200083e57600080fd5b506200085f6004803603810190808035906020019092919050505062001eb7565b604051808261ffff1661ffff16815260200191505060405180910390f35b3480156200088a57600080fd5b50620008ab6004803603810190808035906020019092919050505062001f6d565b604051808260ff1660ff16815260200191505060405180910390f35b348015620008d457600080fd5b50620008f9600480360381019080803561ffff16906020019092919050505062001f85565b604051808215151515815260200191505060405180910390f35b3480156200092057600080fd5b5062000941600480360381019080803590602001909291905050506200200f565b6040518082815260200191505060405180910390f35b3480156200096457600080fd5b5062000996600480360381019080803560ff169060200190929190803561ffff1690602001909291905050506200204b565b604051808260ff1660ff16815260200191505060405180910390f35b348015620009bf57600080fd5b50620009ca62002128565b6040518082815260200191505060405180910390f35b348015620009ed57600080fd5b50620009f86200212e565b604051808273ffffffffffffffffffffffffffffffffffffffff1673ffffffffffffffffffffffffffffffffffffffff16815260200191505060405180910390f35b34801562000a4757600080fd5b5062000a686004803603810190808035906020019092919050505062002153565b604051808215151515815260200191505060405180910390f35b34801562000a8f57600080fd5b5062000a9a620022f4565b604051808273ffffffffffffffffffffffffffffffffffffffff1673ffffffffffffffffffffffffffffffffffffffff16815260200191505060405180910390f35b34801562000ae957600080fd5b5062000af46200231a565b6040518082815260200191505060405180910390f35b34801562000b1757600080fd5b5062000b3a60048036038101908080351515906020019092919050505062002320565b604051808215151515815260200191505060405180910390f35b34801562000b6157600080fd5b5062000b6c6200261a565b6040518082815260200191505060405180910390f35b34801562000b8f57600080fd5b5062000b9a62002620565b6040518082600181111562000bab57fe5b60ff16815260200191505060405180910390f35b34801562000bcc57600080fd5b5062000bed6004803603810190808035906020019092919050505062002633565b604051808260ff1660ff16815260200191505060405180910390f35b600a60019054906101000a900460ff1681565b6000600160009054906101000a900473ffffffffffffffffffffffffffffffffffffffff1673ffffffffffffffffffffffffffffffffffffffff166347a6fa60336040518263ffffffff167c0100000000000000000000000000000000000000000000000000000000028152600401808273ffffffffffffffffffffffffffffffffffffffff1673ffffffffffffffffffffffffffffffffffffffff168152602001915050602060405180830381600087803b15801562000cdc57600080fd5b505af115801562000cf1573d6000803e3d6000fd5b505050506040513d602081101562000d0857600080fd5b8101908080519060200190929190505050151562000d2557600080fd5b81600a60026101000a81548160ff0219169083151502179055508115600a60016101000a81548160ff02191690831515021790555081600a60016101000a81548160ff0219169083151502179055506000600581905550811562000fc457600260009054906101000a900473ffffffffffffffffffffffffffffffffffffffff1673ffffffffffffffffffffffffffffffffffffffff166383197ef06040518163ffffffff167c0100000000000000000000000000000000000000000000000000000000028152600401600060405180830381600087803b15801562000e0a57600080fd5b505af115801562000e1f573d6000803e3d6000fd5b50505050600460009054906101000a900473ffffffffffffffffffffffffffffffffffffffff1673ffffffffffffffffffffffffffffffffffffffff166322f3e2d46040518163ffffffff167c0100000000000000000000000000000000000000000000000000000000028152600401602060405180830381600087803b15801562000eaa57600080fd5b505af115801562000ebf573d6000803e3d6000fd5b505050506040513d602081101562000ed657600080fd5b81019080805190602001909291905050501562000fbe57600460009054906101000a900473ffffffffffffffffffffffffffffffffffffffff1673ffffffffffffffffffffffffffffffffffffffff1663c163de3d6040518163ffffffff167c0100000000000000000000000000000000000000000000000000000000028152600401602060405180830381600087803b15801562000f7457600080fd5b505af115801562000f89573d6000803e3d6000fd5b505050506040513d602081101562000fa057600080fd5b8101908080519060200190929190505050151562000fbd57600080fd5b5b62000fcf565b62000fce62002656565b5b60019050919050565b60003373ffffffffffffffffffffffffffffffffffffffff166000809054906101000a900473ffffffffffffffffffffffffffffffffffffffff1673ffffffffffffffffffffffffffffffffffffffff161415156200103657600080fd5b600360009054906101000a900473ffffffffffffffffffffffffffffffffffffffff1673ffffffffffffffffffffffffffffffffffffffff166370a08231306040518263ffffffff167c0100000000000000000000000000000000000000000000000000000000028152600401808273ffffffffffffffffffffffffffffffffffffffff1673ffffffffffffffffffffffffffffffffffffffff168152602001915050602060405180830381600087803b158015620010f457600080fd5b505af115801562001109573d6000803e3d6000fd5b505050506040513d60208110156200112057600080fd5b8101908080519060200190929190505050905090565b600a60029054906101000a900460ff1681565b600460149054906101000a900460ff1681565b60006018603c80848115156200116e57fe5b048115156200117957fe5b048115156200118457fe5b069050919050565b6000600760046201518084811515620011a157fe5b0401811515620011ad57fe5b069050919050565b6000600160009054906101000a900473ffffffffffffffffffffffffffffffffffffffff1673ffffffffffffffffffffffffffffffffffffffff166347a6fa60336040518263ffffffff167c0100000000000000000000000000000000000000000000000000000000028152600401808273ffffffffffffffffffffffffffffffffffffffff1673ffffffffffffffffffffffffffffffffffffffff168152602001915050602060405180830381600087803b1580156200127557600080fd5b505af11580156200128a573d6000803e3d6000fd5b505050506040513d6020811015620012a157600080fd5b8101908080519060200190929190505050806200130a57503373ffffffffffffffffffffffffffffffffffffffff166000809054906101000a900473ffffffffffffffffffffffffffffffffffffffff1673ffffffffffffffffffffffffffffffffffffffff16145b15156200131657600080fd5b600260009054906101000a900473ffffffffffffffffffffffffffffffffffffffff16905090565b60075481565b6000620013578686868686600062001bf4565b905095945050505050565b60006200136f8262002718565b604001519050919050565b60003373ffffffffffffffffffffffffffffffffffffffff166000809054906101000a900473ffffffffffffffffffffffffffffffffffffffff1673ffffffffffffffffffffffffffffffffffffffff16141515620013d857600080fd5b4260055410151515620013ea57600080fd5b600a60029054906101000a900460ff161515156200140757600080fd5b600a60019054906101000a900460ff1615156200142357600080fd5b600060018111156200143157fe5b600a60009054906101000a900460ff1660018111156200144d57fe5b1415156200145a57600080fd5b6007548660085401111515156200147057600080fd5b85600860008282540192505081905550600260009054906101000a900473ffffffffffffffffffffffffffffffffffffffff1673ffffffffffffffffffffffffffffffffffffffff1663e14947f2898989898989896040518863ffffffff167c010000000000000000000000000000000000000000000000000000000002815260040180806020018060200188815260200180602001878152602001861515151581526020018060200185810385528c818151815260200191508051906020019080838360005b838110156200155457808201518184015260208101905062001537565b50505050905090810190601f168015620015825780820380516001836020036101000a031916815260200191505b5085810384528b818151815260200191508051906020019080838360005b83811015620015bd578082015181840152602081019050620015a0565b50505050905090810190601f168015620015eb5780820380516001836020036101000a031916815260200191505b50858103835289818151815260200191508051906020019080838360005b838110156200162657808201518184015260208101905062001609565b50505050905090810190601f168015620016545780820380516001836020036101000a031916815260200191505b50858103825286818151815260200191508051906020019080838360005b838110156200168f57808201518184015260208101905062001672565b50505050905090810190601f168015620016bd5780820380516001836020036101000a031916815260200191505b509b505050505050505050505050602060405180830381600087803b158015620016e657600080fd5b505af1158015620016fb573d6000803e3d6000fd5b505050506040513d60208110156200171257600080fd5b81019080805190602001909291905050505060019050979650505050505050565b60055481565b60006200174c8585858560008062001bf4565b9050949350505050565b60003373ffffffffffffffffffffffffffffffffffffffff166000809054906101000a900473ffffffffffffffffffffffffffffffffffffffff1673ffffffffffffffffffffffffffffffffffffffff16141515620017b457600080fd5b6000600554141515620017c657600080fd5b600954600360009054906101000a900473ffffffffffffffffffffffffffffffffffffffff1673ffffffffffffffffffffffffffffffffffffffff166370a08231306040518263ffffffff167c0100000000000000000000000000000000000000000000000000000000028152600401808273ffffffffffffffffffffffffffffffffffffffff1673ffffffffffffffffffffffffffffffffffffffff168152602001915050602060405180830381600087803b1580156200188757600080fd5b505af11580156200189c573d6000803e3d6000fd5b505050506040513d6020811015620018b357600080fd5b810190808051906020019092919050505010151515620018d257600080fd5b620018dc620028d5565b600581905550620018ec62002656565b600160009054906101000a900473ffffffffffffffffffffffffffffffffffffffff16600360009054906101000a900473ffffffffffffffffffffffffffffffffffffffff166005546009546000809054906101000a900473ffffffffffffffffffffffffffffffffffffffff166200196462002adb565b808673ffffffffffffffffffffffffffffffffffffffff1673ffffffffffffffffffffffffffffffffffffffff1681526020018573ffffffffffffffffffffffffffffffffffffffff1673ffffffffffffffffffffffffffffffffffffffff1681526020018481526020018381526020018273ffffffffffffffffffffffffffffffffffffffff1673ffffffffffffffffffffffffffffffffffffffff16815260200195505050505050604051809103906000f08015801562001a2b573d6000803e3d6000fd5b50600460006101000a81548173ffffffffffffffffffffffffffffffffffffffff021916908373ffffffffffffffffffffffffffffffffffffffff160217905550600360009054906101000a900473ffffffffffffffffffffffffffffffffffffffff1673ffffffffffffffffffffffffffffffffffffffff1663a9059cbb600460009054906101000a900473ffffffffffffffffffffffffffffffffffffffff166009546040518363ffffffff167c0100000000000000000000000000000000000000000000000000000000028152600401808373ffffffffffffffffffffffffffffffffffffffff1673ffffffffffffffffffffffffffffffffffffffff16815260200182815260200192505050602060405180830381600087803b15801562001b5657600080fd5b505af115801562001b6b573d6000803e3d6000fd5b505050506040513d602081101562001b8257600080fd5b8101908080519060200190929190505050506000600a60006101000a81548160ff0219169083600181111562001bb457fe5b02179055506001905090565b6000603c8281151562001bcf57fe5b069050919050565b600062001beb848484600080600062001bf4565b90509392505050565b60008062001c0162002aec565b6107b291505b8861ffff168261ffff16101562001c505762001c238262001f85565b1562001c38576301e285008301925062001c42565b6301e13380830192505b818060010192505062001c07565b601f816000600c8110151562001c6257fe5b602002019060ff16908160ff168152505062001c7e8962001f85565b1562001cad57601d816001600c8110151562001c9657fe5b602002019060ff16908160ff168152505062001cd1565b601c816001600c8110151562001cbf57fe5b602002019060ff16908160ff16815250505b601f816002600c8110151562001ce357fe5b602002019060ff16908160ff1681525050601e816003600c8110151562001d0657fe5b602002019060ff16908160ff1681525050601f816004600c8110151562001d2957fe5b602002019060ff16908160ff1681525050601e816005600c8110151562001d4c57fe5b602002019060ff16908160ff1681525050601f816006600c8110151562001d6f57fe5b602002019060ff16908160ff1681525050601f816007600c8110151562001d9257fe5b602002019060ff16908160ff1681525050601e816008600c8110151562001db557fe5b602002019060ff16908160ff1681525050601f816009600c8110151562001dd857fe5b602002019060ff16908160ff1681525050601e81600a600c8110151562001dfb57fe5b602002019060ff16908160ff1681525050601f81600b600c8110151562001e1e57fe5b602002019060ff16908160ff1681525050600191505b8760ff168261ffff16101562001e7957806001830361ffff16600c8110151562001e5a57fe5b602002015160ff16620151800283019250818060010192505062001e34565b6001870360ff166201518002830192508560ff16610e1002830192508460ff16603c02830192508360ff168301925082925050509695505050505050565b600080600080600092506301e133808581151562001ed157fe5b046107b261ffff1601915062001eed6107b261ffff166200200f565b62001efc8361ffff166200200f565b039050806301e285000283019250806107b2830361ffff16036301e1338002830192505b8483111562001f625762001f376001830362001f85565b1562001f4c576301e285008303925062001f56565b6301e13380830392505b60018203915062001f20565b819350505050919050565b600062001f7a8262002718565b602001519050919050565b60008060048361ffff1681151562001f9957fe5b0661ffff1614151562001fb057600090506200200a565b600060648361ffff1681151562001fc357fe5b0661ffff1614151562001fda57600190506200200a565b60006101908361ffff1681151562001fee57fe5b0661ffff161415156200200557600090506200200a565b600190505b919050565b6000600182039150610190828115156200202557fe5b046064838115156200203357fe5b046004848115156200204157fe5b0403019050919050565b600060018360ff16148062002063575060038360ff16145b8062002072575060058360ff16145b8062002081575060078360ff16145b8062002090575060088360ff16145b806200209f5750600a8360ff16145b80620020ae5750600c8360ff16145b15620020be57601f905062002122565b60048360ff161480620020d4575060068360ff16145b80620020e3575060098360ff16145b80620020f25750600b8360ff16145b156200210257601e905062002122565b6200210d8262001f85565b156200211d57601d905062002122565b601c90505b92915050565b60065481565b6000809054906101000a900473ffffffffffffffffffffffffffffffffffffffff1681565b60003373ffffffffffffffffffffffffffffffffffffffff166000809054906101000a900473ffffffffffffffffffffffffffffffffffffffff1673ffffffffffffffffffffffffffffffffffffffff16141515620021b157600080fd5b60055442111515620021c257600080fd5b600a60029054906101000a900460ff16151515620021df57600080fd5b81600781905550600460149054906101000a900460ff1660018111156200220257fe5b6001808111156200220f57fe5b14156200223a576200222e600460075462002a9990919063ffffffff16565b6009819055506200228b565b600460149054906101000a900460ff1660018111156200225657fe5b600060018111156200226457fe5b14156200228a5762002283600360075462002a9990919063ffffffff16565b6009819055505b5b6001600a60006101000a81548160ff02191690836001811115620022ab57fe5b02179055506000600581905550600a60019054906101000a900460ff161515620022eb576001600a60016101000a81548160ff0219169083151502179055505b60019050919050565b600460009054906101000a900473ffffffffffffffffffffffffffffffffffffffff1681565b60085481565b60003373ffffffffffffffffffffffffffffffffffffffff166000809054906101000a900473ffffffffffffffffffffffffffffffffffffffff1673ffffffffffffffffffffffffffffffffffffffff161415156200237e57600080fd5b600a60029054906101000a900460ff161515156200239b57600080fd5b81600a60016101000a81548160ff02191690831515021790555060006005819055508115156200260657600260009054906101000a900473ffffffffffffffffffffffffffffffffffffffff1673ffffffffffffffffffffffffffffffffffffffff166383197ef06040518163ffffffff167c0100000000000000000000000000000000000000000000000000000000028152600401600060405180830381600087803b1580156200244c57600080fd5b505af115801562002461573d6000803e3d6000fd5b50505050600460009054906101000a900473ffffffffffffffffffffffffffffffffffffffff1673ffffffffffffffffffffffffffffffffffffffff166322f3e2d46040518163ffffffff167c0100000000000000000000000000000000000000000000000000000000028152600401602060405180830381600087803b158015620024ec57600080fd5b505af115801562002501573d6000803e3d6000fd5b505050506040513d60208110156200251857600080fd5b8101908080519060200190929190505050156200260057600460009054906101000a900473ffffffffffffffffffffffffffffffffffffffff1673ffffffffffffffffffffffffffffffffffffffff1663c163de3d6040518163ffffffff167c0100000000000000000000000000000000000000000000000000000000028152600401602060405180830381600087803b158015620025b657600080fd5b505af1158015620025cb573d6000803e3d6000fd5b505050506040513d6020811015620025e257600080fd5b81019080805190602001909291905050501515620025ff57600080fd5b5b62002611565b6200261062002656565b5b60019050919050565b60095481565b600a60009054906101000a900460ff1681565b6000603c80838115156200264357fe5b048115156200264e57fe5b069050919050565b6000809054906101000a900473ffffffffffffffffffffffffffffffffffffffff166200268262002b10565b808273ffffffffffffffffffffffffffffffffffffffff1673ffffffffffffffffffffffffffffffffffffffff168152602001915050604051809103906000f080158015620026d5573d6000803e3d6000fd5b50600260006101000a81548173ffffffffffffffffffffffffffffffffffffffff021916908373ffffffffffffffffffffffffffffffffffffffff160217905550565b6200272262002b21565b60008060008060009350620027378662001eb7565b856000019061ffff16908161ffff16815250506200275b6107b261ffff166200200f565b6200276e866000015161ffff166200200f565b039250826301e285000284019350826107b286600001510361ffff16036301e133800284019350600191505b600c8260ff16111515620027f857620027b88286600001516200204b565b60ff1662015180029050858482011115620027e55781856020019060ff16908160ff1681525050620027f8565b808401935081806001019250506200279a565b600191505b62002811856020015186600001516200204b565b60ff168260ff161115156200285c57858462015180011115620028465781856040019060ff16908160ff16815250506200285c565b62015180840193508180600101925050620027fd565b62002867866200115c565b856060019060ff16908160ff1681525050620028838662002633565b856080019060ff16908160ff16815250506200289f8662001bc0565b8560a0019060ff16908160ff1681525050620028bb866200118c565b8560c0019060ff16908160ff168152505050505050919050565b6000600c620028e44262001f6d565b60ff161415620029b557620028f94262001362565b60ff166200291c6200290b4262001f6d565b620029164262001eb7565b6200204b565b60ff16141562002972576200296f6001620029374262001eb7565b016001620029536001806200294c4262001eb7565b016200204b565b6200295e426200115c565b620029694262002633565b62001344565b90505b620029ad6001620029834262001eb7565b016001620029914262001362565b6200299c426200115c565b620029a74262002633565b62001344565b905062002a93565b620029c04262001362565b60ff16620029e3620029d24262001f6d565b620029dd4262001eb7565b6200204b565b60ff16141562002a4c5762002a49620029fc4262001eb7565b600162002a094262001f6d565b0162002a2d600162002a1b4262001f6d565b0162002a274262001eb7565b6200204b565b62002a38426200115c565b62002a434262002633565b62001344565b90505b62002a9062002a5b4262001eb7565b600162002a684262001f6d565b0162002a744262001362565b62002a7f426200115c565b62002a8a4262002633565b62001344565b90505b80905090565b600080600084141562002ab0576000915062002ad4565b828402905082848281151562002ac257fe5b0414151562002ad057600080fd5b8091505b5092915050565b6040516108e08062002b7683390190565b61018060405190810160405280600c90602082028038833980820191505090505090565b604051611657806200345683390190565b60e060405190810160405280600061ffff168152602001600060ff168152602001600060ff168152602001600060ff168152602001600060ff168152602001600060ff168152602001600060ff16815250905600608060405234801561001057600080fd5b5060405160a0806108e0833981018060405281019080805190602001909291908051906020019092919080519060200190929190805190602001909291908051906020019092919050505084600560006101000a81548173ffffffffffffffffffffffffffffffffffffffff021916908373ffffffffffffffffffffffffffffffffffffffff160217905550836000806101000a81548173ffffffffffffffffffffffffffffffffffffffff021916908373ffffffffffffffffffffffffffffffffffffffff160217905550826001819055508160048190555080600360006101000a81548173ffffffffffffffffffffffffffffffffffffffff021916908373ffffffffffffffffffffffffffffffffffffffff16021790555060008060146101000a81548160ff0219169083600281111561014957fe5b021790555033600260006101000a81548173ffffffffffffffffffffffffffffffffffffffff021916908373ffffffffffffffffffffffffffffffffffffffff160217905550505050505061073d806101a36000396000f3006080604052600436106100a4576000357c0100000000000000000000000000000000000000000000000000000000900463ffffffff16806318609960146100a957806322b43c84146100e257806322f3e2d4146101395780632e88ab0b146101685780633ccfd60b146101bf578063627749e6146101ee578063a201ce9c14610219578063c163de3d14610270578063c327c1351461029f578063eec7faa1146102f6575b600080fd5b3480156100b557600080fd5b506100be610321565b604051808260028111156100ce57fe5b60ff16815260200191505060405180910390f35b3480156100ee57600080fd5b506100f7610334565b604051808273ffffffffffffffffffffffffffffffffffffffff1673ffffffffffffffffffffffffffffffffffffffff16815260200191505060405180910390f35b34801561014557600080fd5b5061014e61035a565b604051808215151515815260200191505060405180910390f35b34801561017457600080fd5b5061017d610397565b604051808273ffffffffffffffffffffffffffffffffffffffff1673ffffffffffffffffffffffffffffffffffffffff16815260200191505060405180910390f35b3480156101cb57600080fd5b506101d46103bd565b604051808215151515815260200191505060405180910390f35b3480156101fa57600080fd5b5061020361053e565b6040518082815260200191505060405180910390f35b34801561022557600080fd5b5061022e610544565b604051808273ffffffffffffffffffffffffffffffffffffffff1673ffffffffffffffffffffffffffffffffffffffff16815260200191505060405180910390f35b34801561027c57600080fd5b5061028561056a565b604051808215151515815260200191505060405180910390f35b3480156102ab57600080fd5b506102b4610633565b604051808273ffffffffffffffffffffffffffffffffffffffff1673ffffffffffffffffffffffffffffffffffffffff16815260200191505060405180910390f35b34801561030257600080fd5b5061030b610658565b6040518082815260200191505060405180910390f35b600060149054906101000a900460ff1681565b600260009054906101000a900473ffffffffffffffffffffffffffffffffffffffff1681565b600080600281111561036857fe5b600060149054906101000a900460ff16600281111561038357fe5b1461038f576000610392565b60015b905090565b600360009054906101000a900473ffffffffffffffffffffffffffffffffffffffff1681565b6000600560009054906101000a900473ffffffffffffffffffffffffffffffffffffffff1673ffffffffffffffffffffffffffffffffffffffff166347a6fa60336040518263ffffffff167c0100000000000000000000000000000000000000000000000000000000028152600401808273ffffffffffffffffffffffffffffffffffffffff1673ffffffffffffffffffffffffffffffffffffffff168152602001915050602060405180830381600087803b15801561047c57600080fd5b505af1158015610490573d6000803e3d6000fd5b505050506040513d60208110156104a657600080fd5b810190808051906020019092919050505015156104c257600080fd5b60015442101515156104d357600080fd5b600060028111156104e057fe5b600060149054906101000a900460ff1660028111156104fb57fe5b14151561050757600080fd5b61051260045461065e565b506001600060146101000a81548160ff0219169083600281111561053257fe5b02179055506001905090565b60015481565b600560009054906101000a900473ffffffffffffffffffffffffffffffffffffffff1681565b60003373ffffffffffffffffffffffffffffffffffffffff16600260009054906101000a900473ffffffffffffffffffffffffffffffffffffffff1673ffffffffffffffffffffffffffffffffffffffff161415156105c857600080fd5b600060028111156105d557fe5b600060149054906101000a900460ff1660028111156105f057fe5b1415156105fc57600080fd5b61060760045461065e565b506002600060146101000a81548160ff0219169083600281111561062757fe5b02179055506001905090565b6000809054906101000a900473ffffffffffffffffffffffffffffffffffffffff1681565b60045481565b60008060009054906101000a900473ffffffffffffffffffffffffffffffffffffffff1673ffffffffffffffffffffffffffffffffffffffff166342966c68836040518263ffffffff167c010000000000000000000000000000000000000000000000000000000002815260040180828152602001915050600060405180830381600087803b1580156106f057600080fd5b505af1158015610704573d6000803e3d6000fd5b50505050600190509190505600a165627a7a723058202ccefd65745017cbc7ff7b624efe50b83499be4573988e130dfdd5e76c867ac40029608060405234801561001057600080fd5b5060405160208061165783398101806040528101908080519060200190929190505050806000806101000a81548173ffffffffffffffffffffffffffffffffffffffff021916908373ffffffffffffffffffffffffffffffffffffffff16021790555033600160006101000a81548173ffffffffffffffffffffffffffffffffffffffff021916908373ffffffffffffffffffffffffffffffffffffffff16021790555050611593806100c46000396000f300608060405260043610610083576000357c0100000000000000000000000000000000000000000000000000000000900463ffffffff16806309c6e37414610088578063230b9da31461025b5780636aec95b6146102b257806383197ef01461030957806391a7f62014610320578063cecaf69e14610402578063e14947f214610569575b600080fd5b34801561009457600080fd5b506100ef600480360381019080803590602001908201803590602001908080601f01602080910402602001604051908101604052809392919081815260200183838082843782019150505050505091929192905050506106dc565b604051808060200187815260200180602001868152602001851515151581526020018060200184810384528a818151815260200191508051906020019080838360005b8381101561014d578082015181840152602081019050610132565b50505050905090810190601f16801561017a5780820380516001836020036101000a031916815260200191505b50848103835288818151815260200191508051906020019080838360005b838110156101b3578082015181840152602081019050610198565b50505050905090810190601f1680156101e05780820380516001836020036101000a031916815260200191505b50848103825285818151815260200191508051906020019080838360005b838110156102195780820151818401526020810190506101fe565b50505050905090810190601f1680156102465780820380516001836020036101000a031916815260200191505b50995050505050505050505060405180910390f35b34801561026757600080fd5b50610270610a90565b604051808273ffffffffffffffffffffffffffffffffffffffff1673ffffffffffffffffffffffffffffffffffffffff16815260200191505060405180910390f35b3480156102be57600080fd5b506102c7610ab6565b604051808273ffffffffffffffffffffffffffffffffffffffff1673ffffffffffffffffffffffffffffffffffffffff16815260200191505060405180910390f35b34801561031557600080fd5b5061031e610adb565b005b34801561032c57600080fd5b50610387600480360381019080803590602001908201803590602001908080601f0160208091040260200160405190810160405280939291908181526020018383808284378201915050505050509192919290505050610b3b565b6040518080602001828103825283818151815260200191508051906020019080838360005b838110156103c75780820151818401526020810190506103ac565b50505050905090810190601f1680156103f45780820380516001836020036101000a031916815260200191505b509250505060405180910390f35b34801561040e57600080fd5b50610469600480360381019080803590602001908201803590602001908080601f0160208091040260200160405190810160405280939291908181526020018383808284378201915050505050509192919290505050610c48565b60405180868152602001806020018581526020018415151515815260200180602001838103835287818151815260200191508051906020019080838360005b838110156104c35780820151818401526020810190506104a8565b50505050905090810190601f1680156104f05780820380516001836020036101000a031916815260200191505b50838103825284818151815260200191508051906020019080838360005b8381101561052957808201518184015260208101905061050e565b50505050905090810190601f1680156105565780820380516001836020036101000a031916815260200191505b5097505050505050505060405180910390f35b34801561057557600080fd5b506106c2600480360381019080803590602001908201803590602001908080601f0160208091040260200160405190810160405280939291908181526020018383808284378201915050505050509192919290803590602001908201803590602001908080601f016020809104026020016040519081016040528093929190818152602001838380828437820191505050505050919291929080359060200190929190803590602001908201803590602001908080601f016020809104026020016040519081016040528093929190818152602001838380828437820191505050505050919291929080359060200190929190803515159060200190929190803590602001908201803590602001908080601f0160208091040260200160405190810160405280939291908181526020018383808284378201915050505050509192919290505050610fea565b604051808215151515815260200191505060405180910390f35b6060600060606000806060806106f188610b3b565b9050806002826040518082805190602001908083835b60208310151561072c5780518252602082019150602081019050602083039250610707565b6001836020036101000a0380198251168184511680821785525050505050509050019150509081526020016040518091039020600001546002836040518082805190602001908083835b60208310151561079b5780518252602082019150602081019050602083039250610776565b6001836020036101000a03801982511681845116808217855250505050505090500191505090815260200160405180910390206001016002846040518082805190602001908083835b60208310151561080957805182526020820191506020810190506020830392506107e4565b6001836020036101000a038019825116818451168082178552505050505050905001915050908152602001604051809103902060020160009054906101000a900460ff16600481111561085857fe5b6002856040518082805190602001908083835b602083101515610890578051825260208201915060208101905060208303925061086b565b6001836020036101000a038019825116818451168082178552505050505050905001915050908152602001604051809103902060020160029054906101000a900460ff166002866040518082805190602001908083835b60208310151561090c57805182526020820191506020810190506020830392506108e7565b6001836020036101000a0380198251168184511680821785525050505050509050019150509081526020016040518091039020600301838054600181600116156101000203166002900480601f0160208091040260200160405190810160405280929190818152602001828054600181600116156101000203166002900480156109d75780601f106109ac576101008083540402835291602001916109d7565b820191906000526020600020905b8154815290600101906020018083116109ba57829003601f168201915b50505050509350808054600181600116156101000203166002900480601f016020809104026020016040519081016040528092919081815260200182805460018160011615610100020316600290048015610a735780601f10610a4857610100808354040283529160200191610a73565b820191906000526020600020905b815481529060010190602001808311610a5657829003601f168201915b505050505090509650965096509650965096505091939550919395565b600160009054906101000a900473ffffffffffffffffffffffffffffffffffffffff1681565b6000809054906101000a900473ffffffffffffffffffffffffffffffffffffffff1681565b600160009054906101000a900473ffffffffffffffffffffffffffffffffffffffff1673ffffffffffffffffffffffffffffffffffffffff163373ffffffffffffffffffffffffffffffffffffffff16141515610b3757600080fd5b6000ff5b60606003826040518082805190602001908083835b602083101515610b755780518252602082019150602081019050602083039250610b50565b6001836020036101000a03801982511681845116808217855250505050505090500191505090815260200160405180910390208054600181600116156101000203166002900480601f016020809104026020016040519081016040528092919081815260200182805460018160011615610100020316600290048015610c3c5780601f10610c1157610100808354040283529160200191610c3c565b820191906000526020600020905b815481529060010190602001808311610c1f57829003601f168201915b50505050509050919050565b6000606060008060606002866040518082805190602001908083835b602083101515610c895780518252602082019150602081019050602083039250610c64565b6001836020036101000a0380198251168184511680821785525050505050509050019150509081526020016040518091039020600001546002876040518082805190602001908083835b602083101515610cf85780518252602082019150602081019050602083039250610cd3565b6001836020036101000a03801982511681845116808217855250505050505090500191505090815260200160405180910390206001016002886040518082805190602001908083835b602083101515610d665780518252602082019150602081019050602083039250610d41565b6001836020036101000a038019825116818451168082178552505050505050905001915050908152602001604051809103902060020160009054906101000a900460ff166004811115610db557fe5b6002896040518082805190602001908083835b602083101515610ded5780518252602082019150602081019050602083039250610dc8565b6001836020036101000a038019825116818451168082178552505050505050905001915050908152602001604051809103902060020160029054906101000a900460ff1660028a6040518082805190602001908083835b602083101515610e695780518252602082019150602081019050602083039250610e44565b6001836020036101000a0380198251168184511680821785525050505050509050019150509081526020016040518091039020600301838054600181600116156101000203166002900480601f016020809104026020016040519081016040528092919081815260200182805460018160011615610100020316600290048015610f345780601f10610f0957610100808354040283529160200191610f34565b820191906000526020600020905b815481529060010190602001808311610f1757829003601f168201915b50505050509350808054600181600116156101000203166002900480601f016020809104026020016040519081016040528092919081815260200182805460018160011615610100020316600290048015610fd05780601f10610fa557610100808354040283529160200191610fd0565b820191906000526020600020905b815481529060010190602001808311610fb357829003601f168201915b505050505090509450945094509450945091939590929450565b6000610ff46113fc565b600160009054906101000a900473ffffffffffffffffffffffffffffffffffffffff1673ffffffffffffffffffffffffffffffffffffffff163373ffffffffffffffffffffffffffffffffffffffff161415156110df576040517f08c379a000000000000000000000000000000000000000000000000000000000815260040180806020018281038252602a8152602001807f6f6e6c7920706172656e74436f6e74726163742063616e2063616c6c2074686981526020017f732066756e6374696f6e0000000000000000000000000000000000000000000081525060400191505060405180910390fd5b886003896040518082805190602001908083835b60208310151561111857805182526020820191506020810190506020830392506110f3565b6001836020036101000a0380198251168184511680821785525050505050509050019150509081526020016040518091039020908051906020019061115e929190611442565b50846000600481111561116d57fe5b141561119b5760008160400190600481111561118557fe5b9081600481111561119257fe5b81525050611293565b84600160048111156111a957fe5b14156111d7576001816040019060048111156111c157fe5b908160048111156111ce57fe5b81525050611292565b84600260048111156111e557fe5b1415611213576002816040019060048111156111fd57fe5b9081600481111561120a57fe5b81525050611291565b846003600481111561122157fe5b141561124f5760038160400190600481111561123957fe5b9081600481111561124657fe5b81525050611290565b8460048081111561125c57fe5b141561128a5760048160400190600481111561127457fe5b9081600481111561128157fe5b8152505061128f565b600080fd5b5b5b5b5b86816000018181525050858160200181905250600081606001901515908115158152505083816080019015159081151581525050828160a001819052508060028a6040518082805190602001908083835b60208310151561130957805182526020820191506020810190506020830392506112e4565b6001836020036101000a03801982511681845116808217855250505050505090500191505090815260200160405180910390206000820151816000015560208201518160010190805190602001906113629291906114c2565b5060408201518160020160006101000a81548160ff0219169083600481111561138757fe5b021790555060608201518160020160016101000a81548160ff02191690831515021790555060808201518160020160026101000a81548160ff02191690831515021790555060a08201518160030190805190602001906113e89291906114c2565b509050506001915050979650505050505050565b60c06040519081016040528060008152602001606081526020016000600481111561142357fe5b8152602001600015158152602001600015158152602001606081525090565b828054600181600116156101000203166002900490600052602060002090601f016020900481019282601f1061148357805160ff19168380011785556114b1565b828001600101855582156114b1579182015b828111156114b0578251825591602001919060010190611495565b5b5090506114be9190611542565b5090565b828054600181600116156101000203166002900490600052602060002090601f016020900481019282601f1061150357805160ff1916838001178555611531565b82800160010185558215611531579182015b82811115611530578251825591602001919060010190611515565b5b50905061153e9190611542565b5090565b61156491905b80821115611560576000816000905550600101611548565b5090565b905600a165627a7a723058209cccb7e48ee78cddcb3e318e0ae3e607f81e3c202f6a4276d2bf47a1d086538d0029a165627a7a72305820d4b9ca543e05b0321928a3a162fb17f80e08b30d51f9f5094c16f43571e85c3a0029a165627a7a72305820f379eff8186b567a01a1d379cfaf229cfa2fe12d16814598d7b89941837cb65b0029",
  "source": "pragma solidity ^0.4.24;\nimport \"../SharedContracts/VuupleAdmins.sol\";\nimport \"../SharedContracts/VuupleToken.sol\";\n// import \"../../node_modules/openzeppelin-solidity/contracts/access/roles/MinterRole.sol\";\nimport \"./RenterRegistration.sol\";\ncontract RenterFactory{\n    VuupleAdmins public vuupleAdmin;\n    VuupleToken public vuupleToken;\n    uint public renterIndex =0;\n\n    // MinterRole private minters;\n    \n    mapping (address=>address) rentersToContracts;\n    constructor( VuupleAdmins _adminAddress,  VuupleToken _vuupleToken ){\n        vuupleAdmin =_adminAddress;\n        vuupleToken=   _vuupleToken ;\n// TODO: adding contract to minter group will be done monually on migration\n        //vuupleToken.addMinter(this);\n    }\n \n    modifier isNewRenter{\n        require(rentersToContracts[msg.sender] == address(0));\n        _;\n    }\n    function renterRegister(uint256 _type ) public isNewRenter returns (bool) {\n        /**, uint256 _type,uint256 _renewalDate , VuupleAdmins _adminAddress, VuupleToken _vuupleToken , _ */\n        rentersToContracts[msg.sender]= new RenterRegistration(  _type,vuupleAdmin, vuupleToken ,msg.sender);\n        renterIndex++;\n        return true;\n    }\n    function getRenterContract(address renterAddress) returns (address ) {\n        return rentersToContracts[renterAddress];\n    }\n    \n}\n\n",
  "sourcePath": "/home/ubuntu/Smart-Contracts/contracts/RentersContracts/RenterFactory.sol",
  "compiler": {
    "name": "solc",
    "version": "0.4.24+commit.e67f0147.Emscripten.clang"
  },
  "schemaVersion": "2.0.1",
  "updatedAt": "2019-04-26T19:41:17.228Z"
}