{
  "contractName": "RenterRegistration",
  "abi": [
    {
      "constant": true,
      "inputs": [],
      "name": "active",
      "outputs": [
        {
          "name": "",
          "type": "bool"
        }
      ],
      "payable": false,
      "stateMutability": "view",
      "type": "function"
    },
    {
      "constant": true,
      "inputs": [],
      "name": "banned",
      "outputs": [
        {
          "name": "",
          "type": "bool"
        }
      ],
      "payable": false,
      "stateMutability": "view",
      "type": "function"
    },
    {
      "constant": true,
      "inputs": [],
      "name": "membershipType",
      "outputs": [
        {
          "name": "",
          "type": "uint8"
        }
      ],
      "payable": false,
      "stateMutability": "view",
      "type": "function"
    },
    {
      "constant": true,
      "inputs": [
        {
          "name": "timestamp",
          "type": "uint256"
        }
      ],
      "name": "getHour",
      "outputs": [
        {
          "name": "",
          "type": "uint8"
        }
      ],
      "payable": false,
      "stateMutability": "pure",
      "type": "function"
    },
    {
      "constant": true,
      "inputs": [
        {
          "name": "timestamp",
          "type": "uint256"
        }
      ],
      "name": "getWeekday",
      "outputs": [
        {
          "name": "",
          "type": "uint8"
        }
      ],
      "payable": false,
      "stateMutability": "pure",
      "type": "function"
    },
    {
      "constant": true,
      "inputs": [],
      "name": "renteredStorage",
      "outputs": [
        {
          "name": "",
          "type": "uint256"
        }
      ],
      "payable": false,
      "stateMutability": "view",
      "type": "function"
    },
    {
      "constant": true,
      "inputs": [
        {
          "name": "year",
          "type": "uint16"
        },
        {
          "name": "month",
          "type": "uint8"
        },
        {
          "name": "day",
          "type": "uint8"
        },
        {
          "name": "hour",
          "type": "uint8"
        },
        {
          "name": "minute",
          "type": "uint8"
        }
      ],
      "name": "toTimestamp",
      "outputs": [
        {
          "name": "timestamp",
          "type": "uint256"
        }
      ],
      "payable": false,
      "stateMutability": "pure",
      "type": "function"
    },
    {
      "constant": true,
      "inputs": [
        {
          "name": "timestamp",
          "type": "uint256"
        }
      ],
      "name": "getDay",
      "outputs": [
        {
          "name": "",
          "type": "uint8"
        }
      ],
      "payable": false,
      "stateMutability": "pure",
      "type": "function"
    },
    {
      "constant": true,
      "inputs": [],
      "name": "renewalDate",
      "outputs": [
        {
          "name": "",
          "type": "uint256"
        }
      ],
      "payable": false,
      "stateMutability": "view",
      "type": "function"
    },
    {
      "constant": true,
      "inputs": [
        {
          "name": "year",
          "type": "uint16"
        },
        {
          "name": "month",
          "type": "uint8"
        },
        {
          "name": "day",
          "type": "uint8"
        },
        {
          "name": "hour",
          "type": "uint8"
        }
      ],
      "name": "toTimestamp",
      "outputs": [
        {
          "name": "timestamp",
          "type": "uint256"
        }
      ],
      "payable": false,
      "stateMutability": "pure",
      "type": "function"
    },
    {
      "constant": true,
      "inputs": [
        {
          "name": "timestamp",
          "type": "uint256"
        }
      ],
      "name": "getSecond",
      "outputs": [
        {
          "name": "",
          "type": "uint8"
        }
      ],
      "payable": false,
      "stateMutability": "pure",
      "type": "function"
    },
    {
      "constant": true,
      "inputs": [
        {
          "name": "year",
          "type": "uint16"
        },
        {
          "name": "month",
          "type": "uint8"
        },
        {
          "name": "day",
          "type": "uint8"
        }
      ],
      "name": "toTimestamp",
      "outputs": [
        {
          "name": "timestamp",
          "type": "uint256"
        }
      ],
      "payable": false,
      "stateMutability": "pure",
      "type": "function"
    },
    {
      "constant": true,
      "inputs": [
        {
          "name": "year",
          "type": "uint16"
        },
        {
          "name": "month",
          "type": "uint8"
        },
        {
          "name": "day",
          "type": "uint8"
        },
        {
          "name": "hour",
          "type": "uint8"
        },
        {
          "name": "minute",
          "type": "uint8"
        },
        {
          "name": "second",
          "type": "uint8"
        }
      ],
      "name": "toTimestamp",
      "outputs": [
        {
          "name": "timestamp",
          "type": "uint256"
        }
      ],
      "payable": false,
      "stateMutability": "pure",
      "type": "function"
    },
    {
      "constant": true,
      "inputs": [
        {
          "name": "timestamp",
          "type": "uint256"
        }
      ],
      "name": "getYear",
      "outputs": [
        {
          "name": "",
          "type": "uint16"
        }
      ],
      "payable": false,
      "stateMutability": "pure",
      "type": "function"
    },
    {
      "constant": true,
      "inputs": [
        {
          "name": "timestamp",
          "type": "uint256"
        }
      ],
      "name": "getMonth",
      "outputs": [
        {
          "name": "",
          "type": "uint8"
        }
      ],
      "payable": false,
      "stateMutability": "pure",
      "type": "function"
    },
    {
      "constant": true,
      "inputs": [
        {
          "name": "year",
          "type": "uint16"
        }
      ],
      "name": "isLeapYear",
      "outputs": [
        {
          "name": "",
          "type": "bool"
        }
      ],
      "payable": false,
      "stateMutability": "pure",
      "type": "function"
    },
    {
      "constant": true,
      "inputs": [
        {
          "name": "year",
          "type": "uint256"
        }
      ],
      "name": "leapYearsBefore",
      "outputs": [
        {
          "name": "",
          "type": "uint256"
        }
      ],
      "payable": false,
      "stateMutability": "pure",
      "type": "function"
    },
    {
      "constant": true,
      "inputs": [
        {
          "name": "month",
          "type": "uint8"
        },
        {
          "name": "year",
          "type": "uint16"
        }
      ],
      "name": "getDaysInMonth",
      "outputs": [
        {
          "name": "",
          "type": "uint8"
        }
      ],
      "payable": false,
      "stateMutability": "pure",
      "type": "function"
    },
    {
      "constant": true,
      "inputs": [],
      "name": "registerDate",
      "outputs": [
        {
          "name": "",
          "type": "uint256"
        }
      ],
      "payable": false,
      "stateMutability": "view",
      "type": "function"
    },
    {
      "constant": true,
      "inputs": [],
      "name": "contractOwner",
      "outputs": [
        {
          "name": "",
          "type": "address"
        }
      ],
      "payable": false,
      "stateMutability": "view",
      "type": "function"
    },
    {
      "constant": true,
      "inputs": [],
      "name": "escrow",
      "outputs": [
        {
          "name": "",
          "type": "address"
        }
      ],
      "payable": false,
      "stateMutability": "view",
      "type": "function"
    },
    {
      "constant": true,
      "inputs": [],
      "name": "usedStorage",
      "outputs": [
        {
          "name": "",
          "type": "uint256"
        }
      ],
      "payable": false,
      "stateMutability": "view",
      "type": "function"
    },
    {
      "constant": true,
      "inputs": [],
      "name": "tokenAmount",
      "outputs": [
        {
          "name": "",
          "type": "uint256"
        }
      ],
      "payable": false,
      "stateMutability": "view",
      "type": "function"
    },
    {
      "constant": true,
      "inputs": [],
      "name": "currentStatus",
      "outputs": [
        {
          "name": "",
          "type": "uint8"
        }
      ],
      "payable": false,
      "stateMutability": "view",
      "type": "function"
    },
    {
      "constant": true,
      "inputs": [
        {
          "name": "timestamp",
          "type": "uint256"
        }
      ],
      "name": "getMinute",
      "outputs": [
        {
          "name": "",
          "type": "uint8"
        }
      ],
      "payable": false,
      "stateMutability": "pure",
      "type": "function"
    },
    {
      "inputs": [
        {
          "name": "_type",
          "type": "uint256"
        },
        {
          "name": "_adminAddress",
          "type": "address"
        },
        {
          "name": "_vuupleToken",
          "type": "address"
        },
        {
          "name": "_sender",
          "type": "address"
        }
      ],
      "payable": false,
      "stateMutability": "nonpayable",
      "type": "constructor"
    },
    {
      "constant": false,
      "inputs": [
        {
          "name": "_renteredStorage",
          "type": "uint256"
        }
      ],
      "name": "renewSubscription",
      "outputs": [
        {
          "name": "",
          "type": "bool"
        }
      ],
      "payable": false,
      "stateMutability": "nonpayable",
      "type": "function"
    },
    {
      "constant": false,
      "inputs": [
        {
          "name": "_bzzHash",
          "type": "string"
        },
        {
          "name": "_fileName",
          "type": "string"
        },
        {
          "name": "_size",
          "type": "uint256"
        },
        {
          "name": "_fileType",
          "type": "string"
        },
        {
          "name": "_bzzSchema",
          "type": "uint256"
        },
        {
          "name": "_isEncrypted",
          "type": "bool"
        },
        {
          "name": "_encryptedKey",
          "type": "string"
        }
      ],
      "name": "addFileToStorage",
      "outputs": [
        {
          "name": "",
          "type": "bool"
        }
      ],
      "payable": false,
      "stateMutability": "nonpayable",
      "type": "function"
    },
    {
      "constant": false,
      "inputs": [],
      "name": "completeSubscription",
      "outputs": [
        {
          "name": "",
          "type": "bool"
        }
      ],
      "payable": false,
      "stateMutability": "nonpayable",
      "type": "function"
    },
    {
      "constant": true,
      "inputs": [],
      "name": "getBalance",
      "outputs": [
        {
          "name": "",
          "type": "uint256"
        }
      ],
      "payable": false,
      "stateMutability": "view",
      "type": "function"
    },
    {
      "constant": false,
      "inputs": [
        {
          "name": "status",
          "type": "bool"
        }
      ],
      "name": "setActiveStatus",
      "outputs": [
        {
          "name": "",
          "type": "bool"
        }
      ],
      "payable": false,
      "stateMutability": "nonpayable",
      "type": "function"
    },
    {
      "constant": false,
      "inputs": [
        {
          "name": "status",
          "type": "bool"
        }
      ],
      "name": "setBanStatus",
      "outputs": [
        {
          "name": "",
          "type": "bool"
        }
      ],
      "payable": false,
      "stateMutability": "nonpayable",
      "type": "function"
    },
    {
      "constant": false,
      "inputs": [],
      "name": "getRenterFiles",
      "outputs": [
        {
          "name": "",
          "type": "address"
        }
      ],
      "payable": false,
      "stateMutability": "nonpayable",
      "type": "function"
    }
  ],
  "bytecode": "0x608060405260006008556001600a60006101000a81548160ff021916908360018111156200002957fe5b02179055506001600a60016101000a81548160ff0219169083151502179055506000600a60026101000a81548160ff0219169083151502179055503480156200007157600080fd5b5060405160808062004c0083398101806040528101908080519060200190929190805190602001909291908051906020019092919080519060200190929190505050806000806101000a81548173ffffffffffffffffffffffffffffffffffffffff021916908373ffffffffffffffffffffffffffffffffffffffff16021790555082600160006101000a81548173ffffffffffffffffffffffffffffffffffffffff021916908373ffffffffffffffffffffffffffffffffffffffff16021790555081600360006101000a81548173ffffffffffffffffffffffffffffffffffffffff021916908373ffffffffffffffffffffffffffffffffffffffff16021790555042600681905550836001808111156200018a57fe5b1480620001a357508360006001811115620001a157fe5b145b1515620001af57600080fd5b83600180811115620001bd57fe5b141562000223576001600460146101000a81548160ff02191690836001811115620001e457fe5b021790555060056007819055506200021760046007546200029e64010000000002620028d1179091906401000000009004565b60098190555062000294565b83600060018111156200023257fe5b141562000293576000600460146101000a81548160ff021916908360018111156200025957fe5b0217905550600a6007819055506200028c60036007546200029e64010000000002620028d1179091906401000000009004565b6009819055505b5b50505050620002e0565b6000806000841415620002b55760009150620002d9565b8284029050828482811515620002c757fe5b04141515620002d557600080fd5b8091505b5092915050565b61491080620002f06000396000f300608060405260043610620001b7576000357c0100000000000000000000000000000000000000000000000000000000900463ffffffff16806302fb0c5e14620001bc5780630d4786b914620001ee57806312065fe01462000238578063158fba8f14620002665780633667e1ba14620002985780633e239e1a14620002d55780634ac1ad78146200031f578063553d3ee414620003695780635991d59914620003c357806362ba968714620003f157806365c72840146200046d5780636b5bcee914620004b75780637c1ad292146200062d5780637f791833146200065b578063815428e914620006ca5780638aa001fc14620006fc5780638c8d98a014620007465780639054bdec14620007a857806392d663131462000831578063a324ad24146200087d578063a6f0e57714620008c7578063b19999371462000913578063b238ad0e1462000957578063c642f69414620009b2578063ce606ee014620009e0578063d71bb37b1462000a3a578063e2fdcc171462000a82578063ea2700b21462000adc578063ec7404b11462000b0a578063eec7faa11462000b54578063ef8a92351462000b82578063fa93f8831462000bbf575b600080fd5b348015620001c957600080fd5b50620001d462000c09565b604051808215151515815260200191505060405180910390f35b348015620001fb57600080fd5b506200021e60048036038101908080351515906020019092919050505062000c1c565b604051808215151515815260200191505060405180910390f35b3480156200024557600080fd5b506200025062000fd8565b6040518082815260200191505060405180910390f35b3480156200027357600080fd5b506200027e62001136565b604051808215151515815260200191505060405180910390f35b348015620002a557600080fd5b50620002b062001149565b60405180826001811115620002c157fe5b60ff16815260200191505060405180910390f35b348015620002e257600080fd5b5062000303600480360381019080803590602001909291905050506200115c565b604051808260ff1660ff16815260200191505060405180910390f35b3480156200032c57600080fd5b506200034d600480360381019080803590602001909291905050506200118c565b604051808260ff1660ff16815260200191505060405180910390f35b3480156200037657600080fd5b5062000381620011b5565b604051808273ffffffffffffffffffffffffffffffffffffffff1673ffffffffffffffffffffffffffffffffffffffff16815260200191505060405180910390f35b348015620003d057600080fd5b50620003db6200133e565b6040518082815260200191505060405180910390f35b348015620003fe57600080fd5b5062000457600480360381019080803561ffff169060200190929190803560ff169060200190929190803560ff169060200190929190803560ff169060200190929190803560ff16906020019092919050505062001344565b6040518082815260200191505060405180910390f35b3480156200047a57600080fd5b506200049b6004803603810190808035906020019092919050505062001362565b604051808260ff1660ff16815260200191505060405180910390f35b348015620004c457600080fd5b5062000613600480360381019080803590602001908201803590602001908080601f0160208091040260200160405190810160405280939291908181526020018383808284378201915050505050509192919290803590602001908201803590602001908080601f016020809104026020016040519081016040528093929190818152602001838380828437820191505050505050919291929080359060200190929190803590602001908201803590602001908080601f016020809104026020016040519081016040528093929190818152602001838380828437820191505050505050919291929080359060200190929190803515159060200190929190803590602001908201803590602001908080601f01602080910402602001604051908101604052809392919081815260200183838082843782019150505050505091929192905050506200137a565b604051808215151515815260200191505060405180910390f35b3480156200063a57600080fd5b506200064562001733565b6040518082815260200191505060405180910390f35b3480156200066857600080fd5b50620006b4600480360381019080803561ffff169060200190929190803560ff169060200190929190803560ff169060200190929190803560ff16906020019092919050505062001739565b6040518082815260200191505060405180910390f35b348015620006d757600080fd5b50620006e262001756565b604051808215151515815260200191505060405180910390f35b3480156200070957600080fd5b506200072a6004803603810190808035906020019092919050505062001bbc565b604051808260ff1660ff16815260200191505060405180910390f35b3480156200075357600080fd5b5062000792600480360381019080803561ffff169060200190929190803560ff169060200190929190803560ff16906020019092919050505062001bd3565b6040518082815260200191505060405180910390f35b348015620007b557600080fd5b506200081b600480360381019080803561ffff169060200190929190803560ff169060200190929190803560ff169060200190929190803560ff169060200190929190803560ff169060200190929190803560ff16906020019092919050505062001bf0565b6040518082815260200191505060405180910390f35b3480156200083e57600080fd5b506200085f6004803603810190808035906020019092919050505062001eb3565b604051808261ffff1661ffff16815260200191505060405180910390f35b3480156200088a57600080fd5b50620008ab6004803603810190808035906020019092919050505062001f69565b604051808260ff1660ff16815260200191505060405180910390f35b348015620008d457600080fd5b50620008f9600480360381019080803561ffff16906020019092919050505062001f81565b604051808215151515815260200191505060405180910390f35b3480156200092057600080fd5b5062000941600480360381019080803590602001909291905050506200200b565b6040518082815260200191505060405180910390f35b3480156200096457600080fd5b5062000996600480360381019080803560ff169060200190929190803561ffff16906020019092919050505062002047565b604051808260ff1660ff16815260200191505060405180910390f35b348015620009bf57600080fd5b50620009ca62002124565b6040518082815260200191505060405180910390f35b348015620009ed57600080fd5b50620009f86200212a565b604051808273ffffffffffffffffffffffffffffffffffffffff1673ffffffffffffffffffffffffffffffffffffffff16815260200191505060405180910390f35b34801562000a4757600080fd5b5062000a68600480360381019080803590602001909291905050506200214f565b604051808215151515815260200191505060405180910390f35b34801562000a8f57600080fd5b5062000a9a620022f0565b604051808273ffffffffffffffffffffffffffffffffffffffff1673ffffffffffffffffffffffffffffffffffffffff16815260200191505060405180910390f35b34801562000ae957600080fd5b5062000af462002316565b6040518082815260200191505060405180910390f35b34801562000b1757600080fd5b5062000b3a6004803603810190808035151590602001909291905050506200231c565b604051808215151515815260200191505060405180910390f35b34801562000b6157600080fd5b5062000b6c62002616565b6040518082815260200191505060405180910390f35b34801562000b8f57600080fd5b5062000b9a6200261c565b6040518082600181111562000bab57fe5b60ff16815260200191505060405180910390f35b34801562000bcc57600080fd5b5062000bed600480360381019080803590602001909291905050506200262f565b604051808260ff1660ff16815260200191505060405180910390f35b600a60019054906101000a900460ff1681565b6000600160009054906101000a900473ffffffffffffffffffffffffffffffffffffffff1673ffffffffffffffffffffffffffffffffffffffff166347a6fa60336040518263ffffffff167c0100000000000000000000000000000000000000000000000000000000028152600401808273ffffffffffffffffffffffffffffffffffffffff1673ffffffffffffffffffffffffffffffffffffffff168152602001915050602060405180830381600087803b15801562000cdc57600080fd5b505af115801562000cf1573d6000803e3d6000fd5b505050506040513d602081101562000d0857600080fd5b8101908080519060200190929190505050151562000d2557600080fd5b81600a60026101000a81548160ff0219169083151502179055508115600a60016101000a81548160ff02191690831515021790555081600a60016101000a81548160ff0219169083151502179055506000600581905550811562000fc457600260009054906101000a900473ffffffffffffffffffffffffffffffffffffffff1673ffffffffffffffffffffffffffffffffffffffff166383197ef06040518163ffffffff167c0100000000000000000000000000000000000000000000000000000000028152600401600060405180830381600087803b15801562000e0a57600080fd5b505af115801562000e1f573d6000803e3d6000fd5b50505050600460009054906101000a900473ffffffffffffffffffffffffffffffffffffffff1673ffffffffffffffffffffffffffffffffffffffff166322f3e2d46040518163ffffffff167c0100000000000000000000000000000000000000000000000000000000028152600401602060405180830381600087803b15801562000eaa57600080fd5b505af115801562000ebf573d6000803e3d6000fd5b505050506040513d602081101562000ed657600080fd5b81019080805190602001909291905050501562000fbe57600460009054906101000a900473ffffffffffffffffffffffffffffffffffffffff1673ffffffffffffffffffffffffffffffffffffffff1663c163de3d6040518163ffffffff167c0100000000000000000000000000000000000000000000000000000000028152600401602060405180830381600087803b15801562000f7457600080fd5b505af115801562000f89573d6000803e3d6000fd5b505050506040513d602081101562000fa057600080fd5b8101908080519060200190929190505050151562000fbd57600080fd5b5b62000fcf565b62000fce62002652565b5b60019050919050565b60003373ffffffffffffffffffffffffffffffffffffffff166000809054906101000a900473ffffffffffffffffffffffffffffffffffffffff1673ffffffffffffffffffffffffffffffffffffffff161415156200103657600080fd5b600360009054906101000a900473ffffffffffffffffffffffffffffffffffffffff1673ffffffffffffffffffffffffffffffffffffffff166370a08231306040518263ffffffff167c0100000000000000000000000000000000000000000000000000000000028152600401808273ffffffffffffffffffffffffffffffffffffffff1673ffffffffffffffffffffffffffffffffffffffff168152602001915050602060405180830381600087803b158015620010f457600080fd5b505af115801562001109573d6000803e3d6000fd5b505050506040513d60208110156200112057600080fd5b8101908080519060200190929190505050905090565b600a60029054906101000a900460ff1681565b600460149054906101000a900460ff1681565b60006018603c80848115156200116e57fe5b048115156200117957fe5b048115156200118457fe5b069050919050565b6000600760046201518084811515620011a157fe5b0401811515620011ad57fe5b069050919050565b6000600160009054906101000a900473ffffffffffffffffffffffffffffffffffffffff1673ffffffffffffffffffffffffffffffffffffffff166347a6fa60336040518263ffffffff167c0100000000000000000000000000000000000000000000000000000000028152600401808273ffffffffffffffffffffffffffffffffffffffff1673ffffffffffffffffffffffffffffffffffffffff168152602001915050602060405180830381600087803b1580156200127557600080fd5b505af11580156200128a573d6000803e3d6000fd5b505050506040513d6020811015620012a157600080fd5b8101908080519060200190929190505050806200130a57503373ffffffffffffffffffffffffffffffffffffffff166000809054906101000a900473ffffffffffffffffffffffffffffffffffffffff1673ffffffffffffffffffffffffffffffffffffffff16145b15156200131657600080fd5b600260009054906101000a900473ffffffffffffffffffffffffffffffffffffffff16905090565b60075481565b6000620013578686868686600062001bf0565b905095945050505050565b60006200136f8262002714565b604001519050919050565b60003373ffffffffffffffffffffffffffffffffffffffff166000809054906101000a900473ffffffffffffffffffffffffffffffffffffffff1673ffffffffffffffffffffffffffffffffffffffff16141515620013d857600080fd5b4260055410151515620013ea57600080fd5b600a60029054906101000a900460ff161515156200140757600080fd5b600a60019054906101000a900460ff1615156200142357600080fd5b600060018111156200143157fe5b600a60009054906101000a900460ff1660018111156200144d57fe5b1415156200145a57600080fd5b6007548660085401111515156200147057600080fd5b85600860008282540192505081905550600260009054906101000a900473ffffffffffffffffffffffffffffffffffffffff1673ffffffffffffffffffffffffffffffffffffffff1663e14947f2898989898989896040518863ffffffff167c010000000000000000000000000000000000000000000000000000000002815260040180806020018060200188815260200180602001878152602001861515151581526020018060200185810385528c818151815260200191508051906020019080838360005b838110156200155457808201518184015260208101905062001537565b50505050905090810190601f168015620015825780820380516001836020036101000a031916815260200191505b5085810384528b818151815260200191508051906020019080838360005b83811015620015bd578082015181840152602081019050620015a0565b50505050905090810190601f168015620015eb5780820380516001836020036101000a031916815260200191505b50858103835289818151815260200191508051906020019080838360005b838110156200162657808201518184015260208101905062001609565b50505050905090810190601f168015620016545780820380516001836020036101000a031916815260200191505b50858103825286818151815260200191508051906020019080838360005b838110156200168f57808201518184015260208101905062001672565b50505050905090810190601f168015620016bd5780820380516001836020036101000a031916815260200191505b509b505050505050505050505050602060405180830381600087803b158015620016e657600080fd5b505af1158015620016fb573d6000803e3d6000fd5b505050506040513d60208110156200171257600080fd5b81019080805190602001909291905050505060019050979650505050505050565b60055481565b60006200174c8585858560008062001bf0565b9050949350505050565b60003373ffffffffffffffffffffffffffffffffffffffff166000809054906101000a900473ffffffffffffffffffffffffffffffffffffffff1673ffffffffffffffffffffffffffffffffffffffff16141515620017b457600080fd5b6000600554141515620017c657600080fd5b600954600360009054906101000a900473ffffffffffffffffffffffffffffffffffffffff1673ffffffffffffffffffffffffffffffffffffffff166370a08231306040518263ffffffff167c0100000000000000000000000000000000000000000000000000000000028152600401808273ffffffffffffffffffffffffffffffffffffffff1673ffffffffffffffffffffffffffffffffffffffff168152602001915050602060405180830381600087803b1580156200188757600080fd5b505af11580156200189c573d6000803e3d6000fd5b505050506040513d6020811015620018b357600080fd5b810190808051906020019092919050505010151515620018d257600080fd5b62278d004201600581905550620018e862002652565b600160009054906101000a900473ffffffffffffffffffffffffffffffffffffffff16600360009054906101000a900473ffffffffffffffffffffffffffffffffffffffff166005546009546000809054906101000a900473ffffffffffffffffffffffffffffffffffffffff166200196062002913565b808673ffffffffffffffffffffffffffffffffffffffff1673ffffffffffffffffffffffffffffffffffffffff1681526020018573ffffffffffffffffffffffffffffffffffffffff1673ffffffffffffffffffffffffffffffffffffffff1681526020018481526020018381526020018273ffffffffffffffffffffffffffffffffffffffff1673ffffffffffffffffffffffffffffffffffffffff16815260200195505050505050604051809103906000f08015801562001a27573d6000803e3d6000fd5b50600460006101000a81548173ffffffffffffffffffffffffffffffffffffffff021916908373ffffffffffffffffffffffffffffffffffffffff160217905550600360009054906101000a900473ffffffffffffffffffffffffffffffffffffffff1673ffffffffffffffffffffffffffffffffffffffff1663a9059cbb600460009054906101000a900473ffffffffffffffffffffffffffffffffffffffff166009546040518363ffffffff167c0100000000000000000000000000000000000000000000000000000000028152600401808373ffffffffffffffffffffffffffffffffffffffff1673ffffffffffffffffffffffffffffffffffffffff16815260200182815260200192505050602060405180830381600087803b15801562001b5257600080fd5b505af115801562001b67573d6000803e3d6000fd5b505050506040513d602081101562001b7e57600080fd5b8101908080519060200190929190505050506000600a60006101000a81548160ff0219169083600181111562001bb057fe5b02179055506001905090565b6000603c8281151562001bcb57fe5b069050919050565b600062001be7848484600080600062001bf0565b90509392505050565b60008062001bfd62002924565b6107b291505b8861ffff168261ffff16101562001c4c5762001c1f8262001f81565b1562001c34576301e285008301925062001c3e565b6301e13380830192505b818060010192505062001c03565b601f816000600c8110151562001c5e57fe5b602002019060ff16908160ff168152505062001c7a8962001f81565b1562001ca957601d816001600c8110151562001c9257fe5b602002019060ff16908160ff168152505062001ccd565b601c816001600c8110151562001cbb57fe5b602002019060ff16908160ff16815250505b601f816002600c8110151562001cdf57fe5b602002019060ff16908160ff1681525050601e816003600c8110151562001d0257fe5b602002019060ff16908160ff1681525050601f816004600c8110151562001d2557fe5b602002019060ff16908160ff1681525050601e816005600c8110151562001d4857fe5b602002019060ff16908160ff1681525050601f816006600c8110151562001d6b57fe5b602002019060ff16908160ff1681525050601f816007600c8110151562001d8e57fe5b602002019060ff16908160ff1681525050601e816008600c8110151562001db157fe5b602002019060ff16908160ff1681525050601f816009600c8110151562001dd457fe5b602002019060ff16908160ff1681525050601e81600a600c8110151562001df757fe5b602002019060ff16908160ff1681525050601f81600b600c8110151562001e1a57fe5b602002019060ff16908160ff1681525050600191505b8760ff168261ffff16101562001e7557806001830361ffff16600c8110151562001e5657fe5b602002015160ff16620151800283019250818060010192505062001e30565b6001870360ff166201518002830192508560ff16610e1002830192508460ff16603c02830192508360ff168301925082925050509695505050505050565b600080600080600092506301e133808581151562001ecd57fe5b046107b261ffff1601915062001ee96107b261ffff166200200b565b62001ef88361ffff166200200b565b039050806301e285000283019250806107b2830361ffff16036301e1338002830192505b8483111562001f5e5762001f336001830362001f81565b1562001f48576301e285008303925062001f52565b6301e13380830392505b60018203915062001f1c565b819350505050919050565b600062001f768262002714565b602001519050919050565b60008060048361ffff1681151562001f9557fe5b0661ffff1614151562001fac576000905062002006565b600060648361ffff1681151562001fbf57fe5b0661ffff1614151562001fd6576001905062002006565b60006101908361ffff1681151562001fea57fe5b0661ffff1614151562002001576000905062002006565b600190505b919050565b6000600182039150610190828115156200202157fe5b046064838115156200202f57fe5b046004848115156200203d57fe5b0403019050919050565b600060018360ff1614806200205f575060038360ff16145b806200206e575060058360ff16145b806200207d575060078360ff16145b806200208c575060088360ff16145b806200209b5750600a8360ff16145b80620020aa5750600c8360ff16145b15620020ba57601f90506200211e565b60048360ff161480620020d0575060068360ff16145b80620020df575060098360ff16145b80620020ee5750600b8360ff16145b15620020fe57601e90506200211e565b620021098262001f81565b156200211957601d90506200211e565b601c90505b92915050565b60065481565b6000809054906101000a900473ffffffffffffffffffffffffffffffffffffffff1681565b60003373ffffffffffffffffffffffffffffffffffffffff166000809054906101000a900473ffffffffffffffffffffffffffffffffffffffff1673ffffffffffffffffffffffffffffffffffffffff16141515620021ad57600080fd5b60055442111515620021be57600080fd5b600a60029054906101000a900460ff16151515620021db57600080fd5b81600781905550600460149054906101000a900460ff166001811115620021fe57fe5b6001808111156200220b57fe5b141562002236576200222a6004600754620028d190919063ffffffff16565b60098190555062002287565b600460149054906101000a900460ff1660018111156200225257fe5b600060018111156200226057fe5b141562002286576200227f6003600754620028d190919063ffffffff16565b6009819055505b5b6001600a60006101000a81548160ff02191690836001811115620022a757fe5b02179055506000600581905550600a60019054906101000a900460ff161515620022e7576001600a60016101000a81548160ff0219169083151502179055505b60019050919050565b600460009054906101000a900473ffffffffffffffffffffffffffffffffffffffff1681565b60085481565b60003373ffffffffffffffffffffffffffffffffffffffff166000809054906101000a900473ffffffffffffffffffffffffffffffffffffffff1673ffffffffffffffffffffffffffffffffffffffff161415156200237a57600080fd5b600a60029054906101000a900460ff161515156200239757600080fd5b81600a60016101000a81548160ff02191690831515021790555060006005819055508115156200260257600260009054906101000a900473ffffffffffffffffffffffffffffffffffffffff1673ffffffffffffffffffffffffffffffffffffffff166383197ef06040518163ffffffff167c0100000000000000000000000000000000000000000000000000000000028152600401600060405180830381600087803b1580156200244857600080fd5b505af11580156200245d573d6000803e3d6000fd5b50505050600460009054906101000a900473ffffffffffffffffffffffffffffffffffffffff1673ffffffffffffffffffffffffffffffffffffffff166322f3e2d46040518163ffffffff167c0100000000000000000000000000000000000000000000000000000000028152600401602060405180830381600087803b158015620024e857600080fd5b505af1158015620024fd573d6000803e3d6000fd5b505050506040513d60208110156200251457600080fd5b810190808051906020019092919050505015620025fc57600460009054906101000a900473ffffffffffffffffffffffffffffffffffffffff1673ffffffffffffffffffffffffffffffffffffffff1663c163de3d6040518163ffffffff167c0100000000000000000000000000000000000000000000000000000000028152600401602060405180830381600087803b158015620025b257600080fd5b505af1158015620025c7573d6000803e3d6000fd5b505050506040513d6020811015620025de57600080fd5b81019080805190602001909291905050501515620025fb57600080fd5b5b6200260d565b6200260c62002652565b5b60019050919050565b60095481565b600a60009054906101000a900460ff1681565b6000603c80838115156200263f57fe5b048115156200264a57fe5b069050919050565b6000809054906101000a900473ffffffffffffffffffffffffffffffffffffffff166200267e62002948565b808273ffffffffffffffffffffffffffffffffffffffff1673ffffffffffffffffffffffffffffffffffffffff168152602001915050604051809103906000f080158015620026d1573d6000803e3d6000fd5b50600260006101000a81548173ffffffffffffffffffffffffffffffffffffffff021916908373ffffffffffffffffffffffffffffffffffffffff160217905550565b6200271e62002959565b60008060008060009350620027338662001eb3565b856000019061ffff16908161ffff1681525050620027576107b261ffff166200200b565b6200276a866000015161ffff166200200b565b039250826301e285000284019350826107b286600001510361ffff16036301e133800284019350600191505b600c8260ff16111515620027f457620027b482866000015162002047565b60ff1662015180029050858482011115620027e15781856020019060ff16908160ff1681525050620027f4565b8084019350818060010192505062002796565b600191505b6200280d8560200151866000015162002047565b60ff168260ff161115156200285857858462015180011115620028425781856040019060ff16908160ff168152505062002858565b62015180840193508180600101925050620027f9565b62002863866200115c565b856060019060ff16908160ff16815250506200287f866200262f565b856080019060ff16908160ff16815250506200289b8662001bbc565b8560a0019060ff16908160ff1681525050620028b7866200118c565b8560c0019060ff16908160ff168152505050505050919050565b6000806000841415620028e857600091506200290c565b8284029050828482811515620028fa57fe5b041415156200290857600080fd5b8091505b5092915050565b6040516108e080620029ae83390190565b61018060405190810160405280600c90602082028038833980820191505090505090565b604051611657806200328e83390190565b60e060405190810160405280600061ffff168152602001600060ff168152602001600060ff168152602001600060ff168152602001600060ff168152602001600060ff168152602001600060ff16815250905600608060405234801561001057600080fd5b5060405160a0806108e0833981018060405281019080805190602001909291908051906020019092919080519060200190929190805190602001909291908051906020019092919050505084600560006101000a81548173ffffffffffffffffffffffffffffffffffffffff021916908373ffffffffffffffffffffffffffffffffffffffff160217905550836000806101000a81548173ffffffffffffffffffffffffffffffffffffffff021916908373ffffffffffffffffffffffffffffffffffffffff160217905550826001819055508160048190555080600360006101000a81548173ffffffffffffffffffffffffffffffffffffffff021916908373ffffffffffffffffffffffffffffffffffffffff16021790555060008060146101000a81548160ff0219169083600281111561014957fe5b021790555033600260006101000a81548173ffffffffffffffffffffffffffffffffffffffff021916908373ffffffffffffffffffffffffffffffffffffffff160217905550505050505061073d806101a36000396000f3006080604052600436106100a4576000357c0100000000000000000000000000000000000000000000000000000000900463ffffffff16806318609960146100a957806322b43c84146100e257806322f3e2d4146101395780632e88ab0b146101685780633ccfd60b146101bf578063627749e6146101ee578063a201ce9c14610219578063c163de3d14610270578063c327c1351461029f578063eec7faa1146102f6575b600080fd5b3480156100b557600080fd5b506100be610321565b604051808260028111156100ce57fe5b60ff16815260200191505060405180910390f35b3480156100ee57600080fd5b506100f7610334565b604051808273ffffffffffffffffffffffffffffffffffffffff1673ffffffffffffffffffffffffffffffffffffffff16815260200191505060405180910390f35b34801561014557600080fd5b5061014e61035a565b604051808215151515815260200191505060405180910390f35b34801561017457600080fd5b5061017d610397565b604051808273ffffffffffffffffffffffffffffffffffffffff1673ffffffffffffffffffffffffffffffffffffffff16815260200191505060405180910390f35b3480156101cb57600080fd5b506101d46103bd565b604051808215151515815260200191505060405180910390f35b3480156101fa57600080fd5b5061020361053e565b6040518082815260200191505060405180910390f35b34801561022557600080fd5b5061022e610544565b604051808273ffffffffffffffffffffffffffffffffffffffff1673ffffffffffffffffffffffffffffffffffffffff16815260200191505060405180910390f35b34801561027c57600080fd5b5061028561056a565b604051808215151515815260200191505060405180910390f35b3480156102ab57600080fd5b506102b4610633565b604051808273ffffffffffffffffffffffffffffffffffffffff1673ffffffffffffffffffffffffffffffffffffffff16815260200191505060405180910390f35b34801561030257600080fd5b5061030b610658565b6040518082815260200191505060405180910390f35b600060149054906101000a900460ff1681565b600260009054906101000a900473ffffffffffffffffffffffffffffffffffffffff1681565b600080600281111561036857fe5b600060149054906101000a900460ff16600281111561038357fe5b1461038f576000610392565b60015b905090565b600360009054906101000a900473ffffffffffffffffffffffffffffffffffffffff1681565b6000600560009054906101000a900473ffffffffffffffffffffffffffffffffffffffff1673ffffffffffffffffffffffffffffffffffffffff166347a6fa60336040518263ffffffff167c0100000000000000000000000000000000000000000000000000000000028152600401808273ffffffffffffffffffffffffffffffffffffffff1673ffffffffffffffffffffffffffffffffffffffff168152602001915050602060405180830381600087803b15801561047c57600080fd5b505af1158015610490573d6000803e3d6000fd5b505050506040513d60208110156104a657600080fd5b810190808051906020019092919050505015156104c257600080fd5b60015442101515156104d357600080fd5b600060028111156104e057fe5b600060149054906101000a900460ff1660028111156104fb57fe5b14151561050757600080fd5b61051260045461065e565b506001600060146101000a81548160ff0219169083600281111561053257fe5b02179055506001905090565b60015481565b600560009054906101000a900473ffffffffffffffffffffffffffffffffffffffff1681565b60003373ffffffffffffffffffffffffffffffffffffffff16600260009054906101000a900473ffffffffffffffffffffffffffffffffffffffff1673ffffffffffffffffffffffffffffffffffffffff161415156105c857600080fd5b600060028111156105d557fe5b600060149054906101000a900460ff1660028111156105f057fe5b1415156105fc57600080fd5b61060760045461065e565b506002600060146101000a81548160ff0219169083600281111561062757fe5b02179055506001905090565b6000809054906101000a900473ffffffffffffffffffffffffffffffffffffffff1681565b60045481565b60008060009054906101000a900473ffffffffffffffffffffffffffffffffffffffff1673ffffffffffffffffffffffffffffffffffffffff166342966c68836040518263ffffffff167c010000000000000000000000000000000000000000000000000000000002815260040180828152602001915050600060405180830381600087803b1580156106f057600080fd5b505af1158015610704573d6000803e3d6000fd5b50505050600190509190505600a165627a7a72305820b47872b9c8eddc0b009d4122a6ca024f2ecf8c7ec5f8cb043ae7e318bdaf6bb60029608060405234801561001057600080fd5b5060405160208061165783398101806040528101908080519060200190929190505050806000806101000a81548173ffffffffffffffffffffffffffffffffffffffff021916908373ffffffffffffffffffffffffffffffffffffffff16021790555033600160006101000a81548173ffffffffffffffffffffffffffffffffffffffff021916908373ffffffffffffffffffffffffffffffffffffffff16021790555050611593806100c46000396000f300608060405260043610610083576000357c0100000000000000000000000000000000000000000000000000000000900463ffffffff16806309c6e37414610088578063230b9da31461025b5780636aec95b6146102b257806383197ef01461030957806391a7f62014610320578063cecaf69e14610402578063e14947f214610569575b600080fd5b34801561009457600080fd5b506100ef600480360381019080803590602001908201803590602001908080601f01602080910402602001604051908101604052809392919081815260200183838082843782019150505050505091929192905050506106dc565b604051808060200187815260200180602001868152602001851515151581526020018060200184810384528a818151815260200191508051906020019080838360005b8381101561014d578082015181840152602081019050610132565b50505050905090810190601f16801561017a5780820380516001836020036101000a031916815260200191505b50848103835288818151815260200191508051906020019080838360005b838110156101b3578082015181840152602081019050610198565b50505050905090810190601f1680156101e05780820380516001836020036101000a031916815260200191505b50848103825285818151815260200191508051906020019080838360005b838110156102195780820151818401526020810190506101fe565b50505050905090810190601f1680156102465780820380516001836020036101000a031916815260200191505b50995050505050505050505060405180910390f35b34801561026757600080fd5b50610270610a90565b604051808273ffffffffffffffffffffffffffffffffffffffff1673ffffffffffffffffffffffffffffffffffffffff16815260200191505060405180910390f35b3480156102be57600080fd5b506102c7610ab6565b604051808273ffffffffffffffffffffffffffffffffffffffff1673ffffffffffffffffffffffffffffffffffffffff16815260200191505060405180910390f35b34801561031557600080fd5b5061031e610adb565b005b34801561032c57600080fd5b50610387600480360381019080803590602001908201803590602001908080601f0160208091040260200160405190810160405280939291908181526020018383808284378201915050505050509192919290505050610b3b565b6040518080602001828103825283818151815260200191508051906020019080838360005b838110156103c75780820151818401526020810190506103ac565b50505050905090810190601f1680156103f45780820380516001836020036101000a031916815260200191505b509250505060405180910390f35b34801561040e57600080fd5b50610469600480360381019080803590602001908201803590602001908080601f0160208091040260200160405190810160405280939291908181526020018383808284378201915050505050509192919290505050610c48565b60405180868152602001806020018581526020018415151515815260200180602001838103835287818151815260200191508051906020019080838360005b838110156104c35780820151818401526020810190506104a8565b50505050905090810190601f1680156104f05780820380516001836020036101000a031916815260200191505b50838103825284818151815260200191508051906020019080838360005b8381101561052957808201518184015260208101905061050e565b50505050905090810190601f1680156105565780820380516001836020036101000a031916815260200191505b5097505050505050505060405180910390f35b34801561057557600080fd5b506106c2600480360381019080803590602001908201803590602001908080601f0160208091040260200160405190810160405280939291908181526020018383808284378201915050505050509192919290803590602001908201803590602001908080601f016020809104026020016040519081016040528093929190818152602001838380828437820191505050505050919291929080359060200190929190803590602001908201803590602001908080601f016020809104026020016040519081016040528093929190818152602001838380828437820191505050505050919291929080359060200190929190803515159060200190929190803590602001908201803590602001908080601f0160208091040260200160405190810160405280939291908181526020018383808284378201915050505050509192919290505050610fea565b604051808215151515815260200191505060405180910390f35b6060600060606000806060806106f188610b3b565b9050806002826040518082805190602001908083835b60208310151561072c5780518252602082019150602081019050602083039250610707565b6001836020036101000a0380198251168184511680821785525050505050509050019150509081526020016040518091039020600001546002836040518082805190602001908083835b60208310151561079b5780518252602082019150602081019050602083039250610776565b6001836020036101000a03801982511681845116808217855250505050505090500191505090815260200160405180910390206001016002846040518082805190602001908083835b60208310151561080957805182526020820191506020810190506020830392506107e4565b6001836020036101000a038019825116818451168082178552505050505050905001915050908152602001604051809103902060020160009054906101000a900460ff16600481111561085857fe5b6002856040518082805190602001908083835b602083101515610890578051825260208201915060208101905060208303925061086b565b6001836020036101000a038019825116818451168082178552505050505050905001915050908152602001604051809103902060020160029054906101000a900460ff166002866040518082805190602001908083835b60208310151561090c57805182526020820191506020810190506020830392506108e7565b6001836020036101000a0380198251168184511680821785525050505050509050019150509081526020016040518091039020600301838054600181600116156101000203166002900480601f0160208091040260200160405190810160405280929190818152602001828054600181600116156101000203166002900480156109d75780601f106109ac576101008083540402835291602001916109d7565b820191906000526020600020905b8154815290600101906020018083116109ba57829003601f168201915b50505050509350808054600181600116156101000203166002900480601f016020809104026020016040519081016040528092919081815260200182805460018160011615610100020316600290048015610a735780601f10610a4857610100808354040283529160200191610a73565b820191906000526020600020905b815481529060010190602001808311610a5657829003601f168201915b505050505090509650965096509650965096505091939550919395565b600160009054906101000a900473ffffffffffffffffffffffffffffffffffffffff1681565b6000809054906101000a900473ffffffffffffffffffffffffffffffffffffffff1681565b600160009054906101000a900473ffffffffffffffffffffffffffffffffffffffff1673ffffffffffffffffffffffffffffffffffffffff163373ffffffffffffffffffffffffffffffffffffffff16141515610b3757600080fd5b6000ff5b60606003826040518082805190602001908083835b602083101515610b755780518252602082019150602081019050602083039250610b50565b6001836020036101000a03801982511681845116808217855250505050505090500191505090815260200160405180910390208054600181600116156101000203166002900480601f016020809104026020016040519081016040528092919081815260200182805460018160011615610100020316600290048015610c3c5780601f10610c1157610100808354040283529160200191610c3c565b820191906000526020600020905b815481529060010190602001808311610c1f57829003601f168201915b50505050509050919050565b6000606060008060606002866040518082805190602001908083835b602083101515610c895780518252602082019150602081019050602083039250610c64565b6001836020036101000a0380198251168184511680821785525050505050509050019150509081526020016040518091039020600001546002876040518082805190602001908083835b602083101515610cf85780518252602082019150602081019050602083039250610cd3565b6001836020036101000a03801982511681845116808217855250505050505090500191505090815260200160405180910390206001016002886040518082805190602001908083835b602083101515610d665780518252602082019150602081019050602083039250610d41565b6001836020036101000a038019825116818451168082178552505050505050905001915050908152602001604051809103902060020160009054906101000a900460ff166004811115610db557fe5b6002896040518082805190602001908083835b602083101515610ded5780518252602082019150602081019050602083039250610dc8565b6001836020036101000a038019825116818451168082178552505050505050905001915050908152602001604051809103902060020160029054906101000a900460ff1660028a6040518082805190602001908083835b602083101515610e695780518252602082019150602081019050602083039250610e44565b6001836020036101000a0380198251168184511680821785525050505050509050019150509081526020016040518091039020600301838054600181600116156101000203166002900480601f016020809104026020016040519081016040528092919081815260200182805460018160011615610100020316600290048015610f345780601f10610f0957610100808354040283529160200191610f34565b820191906000526020600020905b815481529060010190602001808311610f1757829003601f168201915b50505050509350808054600181600116156101000203166002900480601f016020809104026020016040519081016040528092919081815260200182805460018160011615610100020316600290048015610fd05780601f10610fa557610100808354040283529160200191610fd0565b820191906000526020600020905b815481529060010190602001808311610fb357829003601f168201915b505050505090509450945094509450945091939590929450565b6000610ff46113fc565b600160009054906101000a900473ffffffffffffffffffffffffffffffffffffffff1673ffffffffffffffffffffffffffffffffffffffff163373ffffffffffffffffffffffffffffffffffffffff161415156110df576040517f08c379a000000000000000000000000000000000000000000000000000000000815260040180806020018281038252602a8152602001807f6f6e6c7920706172656e74436f6e74726163742063616e2063616c6c2074686981526020017f732066756e6374696f6e0000000000000000000000000000000000000000000081525060400191505060405180910390fd5b886003896040518082805190602001908083835b60208310151561111857805182526020820191506020810190506020830392506110f3565b6001836020036101000a0380198251168184511680821785525050505050509050019150509081526020016040518091039020908051906020019061115e929190611442565b50846000600481111561116d57fe5b141561119b5760008160400190600481111561118557fe5b9081600481111561119257fe5b81525050611293565b84600160048111156111a957fe5b14156111d7576001816040019060048111156111c157fe5b908160048111156111ce57fe5b81525050611292565b84600260048111156111e557fe5b1415611213576002816040019060048111156111fd57fe5b9081600481111561120a57fe5b81525050611291565b846003600481111561122157fe5b141561124f5760038160400190600481111561123957fe5b9081600481111561124657fe5b81525050611290565b8460048081111561125c57fe5b141561128a5760048160400190600481111561127457fe5b9081600481111561128157fe5b8152505061128f565b600080fd5b5b5b5b5b86816000018181525050858160200181905250600081606001901515908115158152505083816080019015159081151581525050828160a001819052508060028a6040518082805190602001908083835b60208310151561130957805182526020820191506020810190506020830392506112e4565b6001836020036101000a03801982511681845116808217855250505050505090500191505090815260200160405180910390206000820151816000015560208201518160010190805190602001906113629291906114c2565b5060408201518160020160006101000a81548160ff0219169083600481111561138757fe5b021790555060608201518160020160016101000a81548160ff02191690831515021790555060808201518160020160026101000a81548160ff02191690831515021790555060a08201518160030190805190602001906113e89291906114c2565b509050506001915050979650505050505050565b60c06040519081016040528060008152602001606081526020016000600481111561142357fe5b8152602001600015158152602001600015158152602001606081525090565b828054600181600116156101000203166002900490600052602060002090601f016020900481019282601f1061148357805160ff19168380011785556114b1565b828001600101855582156114b1579182015b828111156114b0578251825591602001919060010190611495565b5b5090506114be9190611542565b5090565b828054600181600116156101000203166002900490600052602060002090601f016020900481019282601f1061150357805160ff1916838001178555611531565b82800160010185558215611531579182015b82811115611530578251825591602001919060010190611515565b5b50905061153e9190611542565b5090565b61156491905b80821115611560576000816000905550600101611548565b5090565b905600a165627a7a723058209cccb7e48ee78cddcb3e318e0ae3e607f81e3c202f6a4276d2bf47a1d086538d0029a165627a7a7230582057a0cd176e6932bb0206d974d6ea4e25378fde807e5548f2ad6dd7990938516a0029",
  "source": "pragma solidity ^0.4.24;\nimport \"../../node_modules/openzeppelin-solidity/contracts/math/SafeMath.sol\";\n\nimport \"../SharedContracts/VuupleAdmins.sol\";\nimport \"./RenterFiles.sol\";\nimport \"./RenterEscrow.sol\";\nimport \"../SharedContracts/VuupleToken.sol\";\nimport \"../SharedContracts/DateTimeParser.sol\";\n\ncontract RenterRegistration is DateTimeParser {\n    using SafeMath for uint256;\n\n    address public contractOwner;\n    VuupleAdmins private vuupleAdmin;\n    RenterFiles private renterFiles;\n    VuupleToken private vuupleToken;\n    RenterEscrow public escrow;\n\n\n    enum MembershipType { Org, Individual }\n    enum Status { ready, pending }\n\n    MembershipType public membershipType;\n    uint256 public renewalDate; // this date stores the renewal date and expire after 30 days\n    uint256 public registerDate;\n    uint256 public renteredStorage;               // we will set list of storage tiers  in Giga \n    uint256 public usedStorage =0;  // in Byte \n    uint256 public tokenAmount ;  \n    Status public currentStatus = Status.pending;  \n    bool public active =true;\n    bool public banned =false;\n\n    // uint16  year;\n    // uint8   month ;\n    // uint8  day ;\n    // uint8  hour ; \n    // uint8  minute ;\n    modifier isOwner {\n        require(contractOwner == msg.sender);\n        _;\n    }    \n    modifier onlyVuupleAdmin() {\n        require(vuupleAdmin.isVuupleAdmin(msg.sender));\n        _;\n    }\n    modifier onlyAdminOrOwner() {\n        require(vuupleAdmin.isVuupleAdmin(msg.sender) || contractOwner == msg.sender);\n        _;\n    }\n     \n    modifier subscriptionEnded() {\n        require( now > renewalDate);\n        _;\n    }\n    modifier subscriptionNotEnded() {\n        require( renewalDate >= now);\n        _;\n    }\n    modifier subscriptionNew() {\n        require( renewalDate==0);\n        _;\n    }\n    modifier unbanned() {\n        require( !banned);\n        _;\n    }\n    modifier isActive() {\n        require( active);\n        _;\n    }\n    modifier isReady() {\n        require( currentStatus==Status.ready);\n        _;\n    }\n\n    constructor (uint256 _type, VuupleAdmins _adminAddress, VuupleToken _vuupleToken , address _sender) public {            \n               \n        contractOwner = _sender;\n        vuupleAdmin = _adminAddress;\n        vuupleToken = _vuupleToken;\n        registerDate = now;\n\n        require(uint(MembershipType.Individual)==_type ||uint(MembershipType.Org)==_type );\n    \n  \n        \n     \n        if(uint(MembershipType.Individual)==_type){\n            membershipType =MembershipType.Individual ;\n            // require( _vuupleToken.balanceOf(msg.sender)>);\n            renteredStorage=5;\n            tokenAmount = renteredStorage.mul(4);\n        \n        }else if (uint(MembershipType.Org)==_type){\n            membershipType =MembershipType.Org ;\n            renteredStorage=10;\n            tokenAmount=renteredStorage.mul(3);\n        }\n    //   require( _vuupleToken.balanceOf(msg.sender)>= tokenAmount);\n     //  _issueRenterFilecontract();\n     \n     //vuupleToken.transfer(escrow, tokenAmount);\n        } \n    // check that the last subscription is ended\n    // we need to rewrite this code to suuport renewal suppscription and to match the whitepaper logic \n    function renewSubscription (uint256 _renteredStorage ) public isOwner subscriptionEnded unbanned returns(bool){     // enter amount in GB\n      \n\n        \n       \n\n        renteredStorage = _renteredStorage;\n            if(MembershipType.Individual==membershipType){\n          \n            tokenAmount = renteredStorage.mul(4);\n        \n        }else if (MembershipType.Org==membershipType){\n                        \n            tokenAmount=renteredStorage.mul(3);\n        }\n        currentStatus = Status.pending;  \n        renewalDate =0;\n        if(!active){\n            active=true;\n\n        }\n          return true;\n      \n    }\n\n    function addFileToStorage (string _bzzHash,\n        string _fileName,\n        uint256 _size,\n        string _fileType,\n        uint256 _bzzSchema,\n        bool _isEncrypted,\n        string _encryptedKey) public isOwner subscriptionNotEnded unbanned isActive isReady returns(bool) {\n        require(usedStorage +_size <= renteredStorage);\n        usedStorage += _size;\n        renterFiles.addFile( _bzzHash,\n        _fileName,\n        _size,\n        _fileType,\n        _bzzSchema,\n        _isEncrypted,\n        _encryptedKey);\n        return true;\n\n    }\n\n\n    function completeSubscription()isOwner subscriptionNew returns(bool)  {\n        require( vuupleToken.balanceOf(this)>= tokenAmount);\n        renewalDate = now + 2592000;// add 30 days just to avoid quorum issue _getRenewalDate();\n        _issueRenterFilecontract(); \n         escrow = new RenterEscrow( vuupleAdmin,vuupleToken ,renewalDate,tokenAmount,contractOwner);\n         vuupleToken.transfer(escrow,tokenAmount);\n         currentStatus=Status.ready;\n          return true;\n    }\n    \n    function getBalance() public view isOwner returns (uint) {\n        return vuupleToken.balanceOf(this) ;\n    }\n    \n    function setActiveStatus(bool status) public isOwner unbanned returns(bool) {\n        active = status;\n        renewalDate =0;\n        if(!status){\n            renterFiles.destroy();\n            if(escrow.isActive()){\n            require(escrow.closeEscrow());\n\n        }\n        }else{\n            // weird bug , it fails when call this function only here and on setBanStatus function \n     _issueRenterFilecontract(); \n        }\n        \n        // TODO : set contract address to equivalent  null value in solidity \n        // renterFiles=address(0);\n        \n        return true;\n\n    }\n\n    function setBanStatus(bool status) public onlyVuupleAdmin returns(bool) {\n        banned = status;\n        active = !status;\n        \n         active = status;\n        renewalDate =0;\n        if(status){\n            renterFiles.destroy();\n            if(escrow.isActive()){\n            require(escrow.closeEscrow());\n\n        }\n        }else{\n     _issueRenterFilecontract(); \n        }\n        \n        // TODO : set contract address to equivalent  null value in solidity \n        // renterFiles=address(0);\n        \n        return true;\n    }\nfunction getRenterFiles() onlyAdminOrOwner returns (RenterFiles) {\n    return renterFiles;\n}\n    function _issueRenterFilecontract() internal {\n        renterFiles = new RenterFiles(contractOwner);\n    }\n\n}\n",
  "sourcePath": "/home/ubuntu/Smart-Contracts/contracts/RentersContracts/RenterRegistration.sol",
  "compiler": {
    "name": "solc",
    "version": "0.4.24+commit.e67f0147.Emscripten.clang"
  },
  "schemaVersion": "2.0.1",
  "updatedAt": "2019-05-18T23:24:20.229Z"
}