{
  "contractName": "VuupleAdmins",
  "abi": [
    {
      "inputs": [],
      "payable": false,
      "stateMutability": "nonpayable",
      "type": "constructor"
    },
    {
      "anonymous": false,
      "inputs": [
        {
          "indexed": true,
          "name": "account",
          "type": "address"
        }
      ],
      "name": "VuupleAdminAdded",
      "type": "event"
    },
    {
      "anonymous": false,
      "inputs": [
        {
          "indexed": true,
          "name": "account",
          "type": "address"
        }
      ],
      "name": "VuupleAdminRemoved",
      "type": "event"
    },
    {
      "constant": true,
      "inputs": [
        {
          "name": "account",
          "type": "address"
        }
      ],
      "name": "isVuupleAdmin",
      "outputs": [
        {
          "name": "",
          "type": "bool"
        }
      ],
      "payable": false,
      "stateMutability": "view",
      "type": "function"
    },
    {
      "constant": false,
      "inputs": [
        {
          "name": "account",
          "type": "address"
        }
      ],
      "name": "addVuupleAdmin",
      "outputs": [
        {
          "name": "",
          "type": "bool"
        }
      ],
      "payable": false,
      "stateMutability": "nonpayable",
      "type": "function"
    },
    {
      "constant": false,
      "inputs": [],
      "name": "renounceVuupleAdmin",
      "outputs": [],
      "payable": false,
      "stateMutability": "nonpayable",
      "type": "function"
    },
    {
      "constant": false,
      "inputs": [
        {
          "name": "account",
          "type": "address"
        }
      ],
      "name": "removeVuupleAdmin",
      "outputs": [],
      "payable": false,
      "stateMutability": "nonpayable",
      "type": "function"
    }
  ],
  "bytecode": "0x608060405234801561001057600080fd5b506100293361002e640100000000026401000000009004565b6101e8565b61004f816000610095640100000000026103de179091906401000000009004565b8073ffffffffffffffffffffffffffffffffffffffff167f75d1d6d8e4784b2c488daf6c1f271130748d887028f022d98085f257235e724f60405160405180910390a250565b600073ffffffffffffffffffffffffffffffffffffffff168173ffffffffffffffffffffffffffffffffffffffff16141515156100d157600080fd5b6100ea8282610154640100000000026401000000009004565b1515156100f657600080fd5b60018260000160008373ffffffffffffffffffffffffffffffffffffffff1673ffffffffffffffffffffffffffffffffffffffff16815260200190815260200160002060006101000a81548160ff0219169083151502179055505050565b60008073ffffffffffffffffffffffffffffffffffffffff168273ffffffffffffffffffffffffffffffffffffffff161415151561019157600080fd5b8260000160008373ffffffffffffffffffffffffffffffffffffffff1673ffffffffffffffffffffffffffffffffffffffff16815260200190815260200160002060009054906101000a900460ff16905092915050565b6104ba806101f76000396000f300608060405260043610610062576000357c0100000000000000000000000000000000000000000000000000000000900463ffffffff16806301fa5495146100675780630597f1de1461007e57806314010de6146100d957806347a6fa601461011c575b600080fd5b34801561007357600080fd5b5061007c610177565b005b34801561008a57600080fd5b506100bf600480360381019080803573ffffffffffffffffffffffffffffffffffffffff169060200190929190505050610182565b604051808215151515815260200191505060405180910390f35b3480156100e557600080fd5b5061011a600480360381019080803573ffffffffffffffffffffffffffffffffffffffff1690602001909291905050506101aa565b005b34801561012857600080fd5b5061015d600480360381019080803573ffffffffffffffffffffffffffffffffffffffff1690602001909291905050506101ca565b604051808215151515815260200191505060405180910390f35b610180336101e7565b565b600061018d336101ca565b151561019857600080fd5b6101a182610241565b60019050919050565b6101b3336101ca565b15156101be57600080fd5b6101c7816101e7565b50565b60006101e082600061029b90919063ffffffff16565b9050919050565b6101fb81600061032f90919063ffffffff16565b8073ffffffffffffffffffffffffffffffffffffffff167fe7f6c3e2ff9fe48c7ac49a37a02c4109219827e57e7075023bf4874723dabed060405160405180910390a250565b6102558160006103de90919063ffffffff16565b8073ffffffffffffffffffffffffffffffffffffffff167f75d1d6d8e4784b2c488daf6c1f271130748d887028f022d98085f257235e724f60405160405180910390a250565b60008073ffffffffffffffffffffffffffffffffffffffff168273ffffffffffffffffffffffffffffffffffffffff16141515156102d857600080fd5b8260000160008373ffffffffffffffffffffffffffffffffffffffff1673ffffffffffffffffffffffffffffffffffffffff16815260200190815260200160002060009054906101000a900460ff16905092915050565b600073ffffffffffffffffffffffffffffffffffffffff168173ffffffffffffffffffffffffffffffffffffffff161415151561036b57600080fd5b610375828261029b565b151561038057600080fd5b60008260000160008373ffffffffffffffffffffffffffffffffffffffff1673ffffffffffffffffffffffffffffffffffffffff16815260200190815260200160002060006101000a81548160ff0219169083151502179055505050565b600073ffffffffffffffffffffffffffffffffffffffff168173ffffffffffffffffffffffffffffffffffffffff161415151561041a57600080fd5b610424828261029b565b15151561043057600080fd5b60018260000160008373ffffffffffffffffffffffffffffffffffffffff1673ffffffffffffffffffffffffffffffffffffffff16815260200190815260200160002060006101000a81548160ff02191690831515021790555050505600a165627a7a7230582010b9b01012b818089c11f9eadd9ef731708e9b314932b7d304c2ff97a1bd43da0029",
  "source": "pragma solidity ^0.4.24;\n\nimport \"../../node_modules/openzeppelin-solidity/contracts/access/Roles.sol\";\n\ncontract VuupleAdmins {\n  using Roles for Roles.Role;\n\n  event VuupleAdminAdded(address indexed account);\n  event VuupleAdminRemoved(address indexed account);\n\n  Roles.Role private VuupleAdmins;\n\n  constructor()  { \n    _addVuupleAdmin(msg.sender);\n  }\n\n  modifier onlyVuupleAdmin() {\n    require(isVuupleAdmin(msg.sender));\n    _;\n  }\n\n  function isVuupleAdmin(address account) public view returns (bool) {\n    return VuupleAdmins.has(account);\n  }\n\n  function addVuupleAdmin(address account) public onlyVuupleAdmin   returns (bool){\n    _addVuupleAdmin(account);\n    return true;\n  }\n\n  function renounceVuupleAdmin() public {\n    _removeVuupleAdmin(msg.sender);\n  }\n  function removeVuupleAdmin(address account) public onlyVuupleAdmin{\n    _removeVuupleAdmin(account);\n  }\n\n  function _addVuupleAdmin(address account) internal {\n    VuupleAdmins.add(account);\n    emit VuupleAdminAdded(account);\n  }\n\n  function _removeVuupleAdmin(address account) internal {\n    VuupleAdmins.remove(account);\n    emit VuupleAdminRemoved(account);\n  }\n}\n",
  "sourcePath": "/home/ubuntu/Smart-Contracts/contracts/SharedContracts/VuupleAdmins.sol",
  "compiler": {
    "name": "solc",
    "version": "0.4.24+commit.e67f0147.Emscripten.clang"
  },
  "schemaVersion": "2.0.1",
  "updatedAt": "2019-08-21T11:24:17.863Z"
}