{
  "contractName": "VuupleICO",
  "abi": [
    {
      "constant": true,
      "inputs": [],
      "name": "rate",
      "outputs": [
        {
          "name": "",
          "type": "uint256"
        }
      ],
      "payable": false,
      "stateMutability": "view",
      "type": "function"
    },
    {
      "constant": true,
      "inputs": [],
      "name": "weiRaised",
      "outputs": [
        {
          "name": "",
          "type": "uint256"
        }
      ],
      "payable": false,
      "stateMutability": "view",
      "type": "function"
    },
    {
      "constant": true,
      "inputs": [],
      "name": "wallet",
      "outputs": [
        {
          "name": "",
          "type": "address"
        }
      ],
      "payable": false,
      "stateMutability": "view",
      "type": "function"
    },
    {
      "constant": false,
      "inputs": [
        {
          "name": "beneficiary",
          "type": "address"
        }
      ],
      "name": "buyTokens",
      "outputs": [],
      "payable": true,
      "stateMutability": "payable",
      "type": "function"
    },
    {
      "constant": true,
      "inputs": [],
      "name": "token",
      "outputs": [
        {
          "name": "",
          "type": "address"
        }
      ],
      "payable": false,
      "stateMutability": "view",
      "type": "function"
    },
    {
      "inputs": [
        {
          "name": "_rate",
          "type": "uint256"
        },
        {
          "name": "_wallet",
          "type": "address"
        },
        {
          "name": "_token",
          "type": "address"
        },
        {
          "name": "_adminAddress",
          "type": "address"
        }
      ],
      "payable": false,
      "stateMutability": "nonpayable",
      "type": "constructor"
    },
    {
      "payable": true,
      "stateMutability": "payable",
      "type": "fallback"
    },
    {
      "anonymous": false,
      "inputs": [
        {
          "indexed": true,
          "name": "purchaser",
          "type": "address"
        },
        {
          "indexed": true,
          "name": "beneficiary",
          "type": "address"
        },
        {
          "indexed": false,
          "name": "value",
          "type": "uint256"
        },
        {
          "indexed": false,
          "name": "amount",
          "type": "uint256"
        }
      ],
      "name": "TokensPurchased",
      "type": "event"
    }
  ],
  "bytecode": "0x608060405234801561001057600080fd5b5060405160808061085283398101806040528101908080519060200190929190805190602001909291908051906020019092919080519060200190929190505050838383600160008190555060008311151561006b57600080fd5b600073ffffffffffffffffffffffffffffffffffffffff168273ffffffffffffffffffffffffffffffffffffffff16141515156100a757600080fd5b600073ffffffffffffffffffffffffffffffffffffffff168173ffffffffffffffffffffffffffffffffffffffff16141515156100e357600080fd5b8260038190555081600260006101000a81548173ffffffffffffffffffffffffffffffffffffffff021916908373ffffffffffffffffffffffffffffffffffffffff16021790555080600160006101000a81548173ffffffffffffffffffffffffffffffffffffffff021916908373ffffffffffffffffffffffffffffffffffffffff16021790555050505080600560006101000a81548173ffffffffffffffffffffffffffffffffffffffff021916908373ffffffffffffffffffffffffffffffffffffffff1602179055505050505061068f806101c36000396000f30060806040526004361061006d576000357c0100000000000000000000000000000000000000000000000000000000900463ffffffff1680632c4e722e146100785780634042b66f146100a3578063521eb273146100ce578063ec8ac4d814610125578063fc0c546a1461015b575b610076336101b2565b005b34801561008457600080fd5b5061008d6102a8565b6040518082815260200191505060405180910390f35b3480156100af57600080fd5b506100b86102b2565b6040518082815260200191505060405180910390f35b3480156100da57600080fd5b506100e36102bc565b604051808273ffffffffffffffffffffffffffffffffffffffff1673ffffffffffffffffffffffffffffffffffffffff16815260200191505060405180910390f35b610159600480360381019080803573ffffffffffffffffffffffffffffffffffffffff1690602001909291905050506101b2565b005b34801561016757600080fd5b506101706102e6565b604051808273ffffffffffffffffffffffffffffffffffffffff1673ffffffffffffffffffffffffffffffffffffffff16815260200191505060405180910390f35b60008060006001600080828254019250508190555060005490503492506101d98484610310565b6101e283610421565b91506101f98360045461043f90919063ffffffff16565b6004819055506102098483610460565b8373ffffffffffffffffffffffffffffffffffffffff163373ffffffffffffffffffffffffffffffffffffffff167f6faf93231a456e552dbc9961f58d9713ee4f2e69d15f1975b050ef0911053a7b8585604051808381526020018281526020019250505060405180910390a3610280848461046e565b610288610472565b61029284846104dd565b600054811415156102a257600080fd5b50505050565b6000600354905090565b6000600454905090565b6000600260009054906101000a900473ffffffffffffffffffffffffffffffffffffffff16905090565b6000600160009054906101000a900473ffffffffffffffffffffffffffffffffffffffff16905090565b600560009054906101000a900473ffffffffffffffffffffffffffffffffffffffff1673ffffffffffffffffffffffffffffffffffffffff166347a6fa60336040518263ffffffff167c0100000000000000000000000000000000000000000000000000000000028152600401808273ffffffffffffffffffffffffffffffffffffffff1673ffffffffffffffffffffffffffffffffffffffff168152602001915050602060405180830381600087803b1580156103cd57600080fd5b505af11580156103e1573d6000803e3d6000fd5b505050506040513d60208110156103f757600080fd5b8101908080519060200190929190505050151561041357600080fd5b61041d82826104e1565b5050565b60006104386003548361053190919063ffffffff16565b9050919050565b600080828401905083811015151561045657600080fd5b8091505092915050565b61046a828261056f565b5050565b5050565b600260009054906101000a900473ffffffffffffffffffffffffffffffffffffffff1673ffffffffffffffffffffffffffffffffffffffff166108fc349081150290604051600060405180830381858888f193505050501580156104da573d6000803e3d6000fd5b50565b5050565b600073ffffffffffffffffffffffffffffffffffffffff168273ffffffffffffffffffffffffffffffffffffffff161415151561051d57600080fd5b6000811415151561052d57600080fd5b5050565b60008060008414156105465760009150610568565b828402905082848281151561055757fe5b0414151561056457600080fd5b8091505b5092915050565b6105776102e6565b73ffffffffffffffffffffffffffffffffffffffff166340c10f1983836040518363ffffffff167c0100000000000000000000000000000000000000000000000000000000028152600401808373ffffffffffffffffffffffffffffffffffffffff1673ffffffffffffffffffffffffffffffffffffffff16815260200182815260200192505050602060405180830381600087803b15801561061957600080fd5b505af115801561062d573d6000803e3d6000fd5b505050506040513d602081101561064357600080fd5b8101908080519060200190929190505050151561065f57600080fd5b50505600a165627a7a72305820209f8d579ca518e2917ff0105274e6c21348a82bc4305d5d651749e0fd4e515f0029",
  "source": "pragma solidity ^0.4.24;\n\nimport \"./VuupleToken.sol\";\nimport \"./VuupleAdmins.sol\";\n\nimport '../../node_modules/openzeppelin-solidity/contracts/crowdsale/emission/MintedCrowdsale.sol';\n\n\ncontract VuupleICO is MintedCrowdsale {\n        VuupleAdmins private vuupleAdmin;\n\n      constructor\n          (\n\n              uint256 _rate,\n              address _wallet,\n              VuupleToken _token,\n              VuupleAdmins _adminAddress \n\n          )\n          public\n          Crowdsale(_rate, _wallet, _token)\n         {\n        vuupleAdmin = _adminAddress;\n\n          }\n  modifier onlyVuupleAdmin() {\n        require(vuupleAdmin.isVuupleAdmin(msg.sender));\n        _;\n    }\n            /**\n   * @dev Extend parent behavior requiring the msg sender to be vuuple admin account \n   * @param beneficiary Token purchaser\n   * @param weiAmount Amount of wei contributed\n   */\n  function _preValidatePurchase(\n    address beneficiary,\n    uint256 weiAmount\n  )\n    internal\n    onlyVuupleAdmin\n    view\n  {\n    super._preValidatePurchase(beneficiary, weiAmount);\n  }\n}\n",
  "sourcePath": "/home/ubuntu/Smart-Contracts/contracts/SharedContracts/VuupleICO.sol",
  "compiler": {
    "name": "solc",
    "version": "0.4.24+commit.e67f0147.Emscripten.clang"
  },
  "schemaVersion": "2.0.1",
  "updatedAt": "2019-06-27T12:51:58.048Z"
}