{
  "contractName": "VuupleAdmins",
  "abi": [
    {
      "inputs": [],
      "payable": false,
      "stateMutability": "nonpayable",
      "type": "constructor"
    },
    {
      "anonymous": false,
      "inputs": [
        {
          "indexed": true,
          "name": "account",
          "type": "address"
        }
      ],
      "name": "VuupleAdminAdded",
      "type": "event"
    },
    {
      "anonymous": false,
      "inputs": [
        {
          "indexed": true,
          "name": "account",
          "type": "address"
        }
      ],
      "name": "VuupleAdminRemoved",
      "type": "event"
    },
    {
      "constant": true,
      "inputs": [
        {
          "name": "account",
          "type": "address"
        }
      ],
      "name": "isVuupleAdmin",
      "outputs": [
        {
          "name": "",
          "type": "bool"
        }
      ],
      "payable": false,
      "stateMutability": "view",
      "type": "function"
    },
    {
      "constant": false,
      "inputs": [
        {
          "name": "account",
          "type": "address"
        }
      ],
      "name": "addVuupleAdmin",
      "outputs": [
        {
          "name": "",
          "type": "bool"
        }
      ],
      "payable": false,
      "stateMutability": "nonpayable",
      "type": "function"
    },
    {
      "constant": false,
      "inputs": [],
      "name": "renounceVuupleAdmin",
      "outputs": [],
      "payable": false,
      "stateMutability": "nonpayable",
      "type": "function"
    }
  ],
  "bytecode": "0x608060405234801561001057600080fd5b506100293361002e640100000000026401000000009004565b6101e8565b61004f81600061009564010000000002610370179091906401000000009004565b8073ffffffffffffffffffffffffffffffffffffffff167f75d1d6d8e4784b2c488daf6c1f271130748d887028f022d98085f257235e724f60405160405180910390a250565b600073ffffffffffffffffffffffffffffffffffffffff168173ffffffffffffffffffffffffffffffffffffffff16141515156100d157600080fd5b6100ea8282610154640100000000026401000000009004565b1515156100f657600080fd5b60018260000160008373ffffffffffffffffffffffffffffffffffffffff1673ffffffffffffffffffffffffffffffffffffffff16815260200190815260200160002060006101000a81548160ff0219169083151502179055505050565b60008073ffffffffffffffffffffffffffffffffffffffff168273ffffffffffffffffffffffffffffffffffffffff161415151561019157600080fd5b8260000160008373ffffffffffffffffffffffffffffffffffffffff1673ffffffffffffffffffffffffffffffffffffffff16815260200190815260200160002060009054906101000a900460ff16905092915050565b61044c806101f76000396000f300608060405260043610610057576000357c0100000000000000000000000000000000000000000000000000000000900463ffffffff16806301fa54951461005c5780630597f1de1461007357806347a6fa60146100ce575b600080fd5b34801561006857600080fd5b50610071610129565b005b34801561007f57600080fd5b506100b4600480360381019080803573ffffffffffffffffffffffffffffffffffffffff169060200190929190505050610134565b604051808215151515815260200191505060405180910390f35b3480156100da57600080fd5b5061010f600480360381019080803573ffffffffffffffffffffffffffffffffffffffff16906020019092919050505061015c565b604051808215151515815260200191505060405180910390f35b61013233610179565b565b600061013f3361015c565b151561014a57600080fd5b610153826101d3565b60019050919050565b600061017282600061022d90919063ffffffff16565b9050919050565b61018d8160006102c190919063ffffffff16565b8073ffffffffffffffffffffffffffffffffffffffff167fe7f6c3e2ff9fe48c7ac49a37a02c4109219827e57e7075023bf4874723dabed060405160405180910390a250565b6101e781600061037090919063ffffffff16565b8073ffffffffffffffffffffffffffffffffffffffff167f75d1d6d8e4784b2c488daf6c1f271130748d887028f022d98085f257235e724f60405160405180910390a250565b60008073ffffffffffffffffffffffffffffffffffffffff168273ffffffffffffffffffffffffffffffffffffffff161415151561026a57600080fd5b8260000160008373ffffffffffffffffffffffffffffffffffffffff1673ffffffffffffffffffffffffffffffffffffffff16815260200190815260200160002060009054906101000a900460ff16905092915050565b600073ffffffffffffffffffffffffffffffffffffffff168173ffffffffffffffffffffffffffffffffffffffff16141515156102fd57600080fd5b610307828261022d565b151561031257600080fd5b60008260000160008373ffffffffffffffffffffffffffffffffffffffff1673ffffffffffffffffffffffffffffffffffffffff16815260200190815260200160002060006101000a81548160ff0219169083151502179055505050565b600073ffffffffffffffffffffffffffffffffffffffff168173ffffffffffffffffffffffffffffffffffffffff16141515156103ac57600080fd5b6103b6828261022d565b1515156103c257600080fd5b60018260000160008373ffffffffffffffffffffffffffffffffffffffff1673ffffffffffffffffffffffffffffffffffffffff16815260200190815260200160002060006101000a81548160ff02191690831515021790555050505600a165627a7a72305820101123526aa905cf49a974465fc19d90af0dbda79739b5f12a52e61131edab2b0029",
  "source": "pragma solidity ^0.4.24;\n\nimport \"../../node_modules/openzeppelin-solidity/contracts/access/Roles.sol\";\n\ncontract VuupleAdmins {\n  using Roles for Roles.Role;\n\n  event VuupleAdminAdded(address indexed account);\n  event VuupleAdminRemoved(address indexed account);\n\n  Roles.Role private VuupleAdmins;\n\n  constructor()  { \n    _addVuupleAdmin(msg.sender);\n  }\n\n  modifier onlyVuupleAdmin() {\n    require(isVuupleAdmin(msg.sender));\n    _;\n  }\n\n  function isVuupleAdmin(address account) public view returns (bool) {\n    return VuupleAdmins.has(account);\n  }\n\n  function addVuupleAdmin(address account) public onlyVuupleAdmin   returns (bool){\n    _addVuupleAdmin(account);\n    return true;\n  }\n\n  function renounceVuupleAdmin() public {\n    _removeVuupleAdmin(msg.sender);\n  }\n\n  function _addVuupleAdmin(address account) internal {\n    VuupleAdmins.add(account);\n    emit VuupleAdminAdded(account);\n  }\n\n  function _removeVuupleAdmin(address account) internal {\n    VuupleAdmins.remove(account);\n    emit VuupleAdminRemoved(account);\n  }\n}\n",
  "sourcePath": "/home/ubuntu/Smart-Contracts/contracts/SharedContracts/VuupleAdmins.sol",
  "compiler": {
    "name": "solc",
    "version": "0.4.24+commit.e67f0147.Emscripten.clang"
  },
  "schemaVersion": "2.0.1",
  "updatedAt": "2019-04-09T23:23:42.286Z"
}