{
  "contractName": "RenterEscrow",
  "abi": [
    {
      "constant": true,
      "inputs": [],
      "name": "escrowStatus",
      "outputs": [
        {
          "name": "",
          "type": "uint8"
        }
      ],
      "payable": false,
      "stateMutability": "view",
      "type": "function"
    },
    {
      "constant": true,
      "inputs": [],
      "name": "renterAccountContract",
      "outputs": [
        {
          "name": "",
          "type": "address"
        }
      ],
      "payable": false,
      "stateMutability": "view",
      "type": "function"
    },
    {
      "constant": true,
      "inputs": [],
      "name": "renter",
      "outputs": [
        {
          "name": "",
          "type": "address"
        }
      ],
      "payable": false,
      "stateMutability": "view",
      "type": "function"
    },
    {
      "constant": true,
      "inputs": [],
      "name": "closeTime",
      "outputs": [
        {
          "name": "",
          "type": "uint256"
        }
      ],
      "payable": false,
      "stateMutability": "view",
      "type": "function"
    },
    {
      "constant": true,
      "inputs": [],
      "name": "vuupleAdmin",
      "outputs": [
        {
          "name": "",
          "type": "address"
        }
      ],
      "payable": false,
      "stateMutability": "view",
      "type": "function"
    },
    {
      "constant": true,
      "inputs": [],
      "name": "vuupleToken",
      "outputs": [
        {
          "name": "",
          "type": "address"
        }
      ],
      "payable": false,
      "stateMutability": "view",
      "type": "function"
    },
    {
      "constant": true,
      "inputs": [],
      "name": "tokenAmount",
      "outputs": [
        {
          "name": "",
          "type": "uint256"
        }
      ],
      "payable": false,
      "stateMutability": "view",
      "type": "function"
    },
    {
      "inputs": [
        {
          "name": "_adminAddress",
          "type": "address"
        },
        {
          "name": "_vuupleToken",
          "type": "address"
        },
        {
          "name": "_closeTime",
          "type": "uint256"
        },
        {
          "name": "_tokenAmount",
          "type": "uint256"
        },
        {
          "name": "_renter",
          "type": "address"
        }
      ],
      "payable": false,
      "stateMutability": "nonpayable",
      "type": "constructor"
    },
    {
      "constant": true,
      "inputs": [],
      "name": "isActive",
      "outputs": [
        {
          "name": "",
          "type": "bool"
        }
      ],
      "payable": false,
      "stateMutability": "view",
      "type": "function"
    },
    {
      "constant": false,
      "inputs": [],
      "name": "withdraw",
      "outputs": [
        {
          "name": "",
          "type": "bool"
        }
      ],
      "payable": false,
      "stateMutability": "nonpayable",
      "type": "function"
    },
    {
      "constant": false,
      "inputs": [],
      "name": "closeEscrow",
      "outputs": [
        {
          "name": "",
          "type": "bool"
        }
      ],
      "payable": false,
      "stateMutability": "nonpayable",
      "type": "function"
    }
  ],
  "bytecode": "0x608060405234801561001057600080fd5b5060405160a0806108e0833981018060405281019080805190602001909291908051906020019092919080519060200190929190805190602001909291908051906020019092919050505084600560006101000a81548173ffffffffffffffffffffffffffffffffffffffff021916908373ffffffffffffffffffffffffffffffffffffffff160217905550836000806101000a81548173ffffffffffffffffffffffffffffffffffffffff021916908373ffffffffffffffffffffffffffffffffffffffff160217905550826001819055508160048190555080600360006101000a81548173ffffffffffffffffffffffffffffffffffffffff021916908373ffffffffffffffffffffffffffffffffffffffff16021790555060008060146101000a81548160ff0219169083600281111561014957fe5b021790555033600260006101000a81548173ffffffffffffffffffffffffffffffffffffffff021916908373ffffffffffffffffffffffffffffffffffffffff160217905550505050505061073d806101a36000396000f3006080604052600436106100a4576000357c0100000000000000000000000000000000000000000000000000000000900463ffffffff16806318609960146100a957806322b43c84146100e257806322f3e2d4146101395780632e88ab0b146101685780633ccfd60b146101bf578063627749e6146101ee578063a201ce9c14610219578063c163de3d14610270578063c327c1351461029f578063eec7faa1146102f6575b600080fd5b3480156100b557600080fd5b506100be610321565b604051808260028111156100ce57fe5b60ff16815260200191505060405180910390f35b3480156100ee57600080fd5b506100f7610334565b604051808273ffffffffffffffffffffffffffffffffffffffff1673ffffffffffffffffffffffffffffffffffffffff16815260200191505060405180910390f35b34801561014557600080fd5b5061014e61035a565b604051808215151515815260200191505060405180910390f35b34801561017457600080fd5b5061017d610397565b604051808273ffffffffffffffffffffffffffffffffffffffff1673ffffffffffffffffffffffffffffffffffffffff16815260200191505060405180910390f35b3480156101cb57600080fd5b506101d46103bd565b604051808215151515815260200191505060405180910390f35b3480156101fa57600080fd5b5061020361053e565b6040518082815260200191505060405180910390f35b34801561022557600080fd5b5061022e610544565b604051808273ffffffffffffffffffffffffffffffffffffffff1673ffffffffffffffffffffffffffffffffffffffff16815260200191505060405180910390f35b34801561027c57600080fd5b5061028561056a565b604051808215151515815260200191505060405180910390f35b3480156102ab57600080fd5b506102b4610633565b604051808273ffffffffffffffffffffffffffffffffffffffff1673ffffffffffffffffffffffffffffffffffffffff16815260200191505060405180910390f35b34801561030257600080fd5b5061030b610658565b6040518082815260200191505060405180910390f35b600060149054906101000a900460ff1681565b600260009054906101000a900473ffffffffffffffffffffffffffffffffffffffff1681565b600080600281111561036857fe5b600060149054906101000a900460ff16600281111561038357fe5b1461038f576000610392565b60015b905090565b600360009054906101000a900473ffffffffffffffffffffffffffffffffffffffff1681565b6000600560009054906101000a900473ffffffffffffffffffffffffffffffffffffffff1673ffffffffffffffffffffffffffffffffffffffff166347a6fa60336040518263ffffffff167c0100000000000000000000000000000000000000000000000000000000028152600401808273ffffffffffffffffffffffffffffffffffffffff1673ffffffffffffffffffffffffffffffffffffffff168152602001915050602060405180830381600087803b15801561047c57600080fd5b505af1158015610490573d6000803e3d6000fd5b505050506040513d60208110156104a657600080fd5b810190808051906020019092919050505015156104c257600080fd5b60015442101515156104d357600080fd5b600060028111156104e057fe5b600060149054906101000a900460ff1660028111156104fb57fe5b14151561050757600080fd5b61051260045461065e565b506001600060146101000a81548160ff0219169083600281111561053257fe5b02179055506001905090565b60015481565b600560009054906101000a900473ffffffffffffffffffffffffffffffffffffffff1681565b60003373ffffffffffffffffffffffffffffffffffffffff16600260009054906101000a900473ffffffffffffffffffffffffffffffffffffffff1673ffffffffffffffffffffffffffffffffffffffff161415156105c857600080fd5b600060028111156105d557fe5b600060149054906101000a900460ff1660028111156105f057fe5b1415156105fc57600080fd5b61060760045461065e565b506002600060146101000a81548160ff0219169083600281111561062757fe5b02179055506001905090565b6000809054906101000a900473ffffffffffffffffffffffffffffffffffffffff1681565b60045481565b60008060009054906101000a900473ffffffffffffffffffffffffffffffffffffffff1673ffffffffffffffffffffffffffffffffffffffff166342966c68836040518263ffffffff167c010000000000000000000000000000000000000000000000000000000002815260040180828152602001915050600060405180830381600087803b1580156106f057600080fd5b505af1158015610704573d6000803e3d6000fd5b50505050600190509190505600a165627a7a72305820a4d074cddf467d9def82ccb114096b9f47fcd3933bc506c6ffda3ae22bb031490029",
  "source": "pragma solidity ^0.4.24;\nimport \"../SharedContracts/VuupleToken.sol\";\nimport \"../SharedContracts/VuupleAdmins.sol\";\n\n// import \"../SharedContracts/DateTimeParser.sol\";\n\n// this contract hold the token and at the end of the month , if the renter get the required reputational points , the ownership of the token transfered to this renter  if not , these token is burnt\ncontract RenterEscrow  {\n    enum EscrowStatus{Active,Completed ,Closed}\n    VuupleToken public vuupleToken;\n    EscrowStatus public escrowStatus ;\n    uint256 public closeTime;\n    address public renterAccountContract;\n    address public renter;\n    uint256 public tokenAmount;\n    VuupleAdmins public vuupleAdmin;\n\n    constructor(VuupleAdmins _adminAddress,VuupleToken _vuupleToken,\n        uint256 _closeTime,\n        uint256 _tokenAmount,\n        address _renter){\n        vuupleAdmin = _adminAddress;\n        vuupleToken =_vuupleToken;\n        closeTime =_closeTime;\n        tokenAmount =_tokenAmount;\n        renter =_renter;\n        escrowStatus = EscrowStatus.Active;\n        renterAccountContract = msg.sender;\n    }\n    modifier onlyVuupleAdmin() {\n        require(vuupleAdmin.isVuupleAdmin(msg.sender));\n        _;\n    }\n    modifier isrenterAccountContract(){\n        require(renterAccountContract==msg.sender);\n        _;\n    }\n    modifier subscriptionEnded() {\n        require( now >= closeTime);\n        _;\n    }\n    modifier escrowActive() {\n        require( escrowStatus == EscrowStatus.Active);\n        _;\n    }\n\n\n    function isActive( ) public view returns(bool) {\n        return escrowStatus == EscrowStatus.Active ? true :false;\n    }\n    // burn token to return back to the token contract\n    function withdraw()  onlyVuupleAdmin subscriptionEnded escrowActive returns (bool) {\n        _burn(tokenAmount);\n        // tokenAmount=0;\n        escrowStatus = EscrowStatus.Completed;\n        return true;\n    }\n    function closeEscrow() external isrenterAccountContract  escrowActive returns (bool)  {\n        _burn(tokenAmount);\n        // tokenAmount=0;\n        escrowStatus = EscrowStatus.Closed;\n        return true;\n    }\n    function _burn(uint256 _tokenAmount) internal returns (bool) {\n        vuupleToken.burn(_tokenAmount);\n        return true;\n    }\n    // function _transferToken(uint256 _tokenAmount) internal returns (bool) {\n    //     vuupleToken.transfer(renter,_tokenAmount);\n    //     return true;\n    // }\n\n}\n\n",
  "sourcePath": "/home/ubuntu/vuuple-solidity-contracts/contracts/RentersContracts/RenterEscrow.sol",
  "compiler": {
    "name": "solc",
    "version": "0.4.24+commit.e67f0147.Emscripten.clang"
  },
  "schemaVersion": "2.0.1",
  "updatedAt": "2019-04-01T14:20:54.760Z"
}